{
  "contractName": "SimpleStorage",
  "abi": [
    {
      "inputs": [],
      "stateMutability": "nonpayable",
      "type": "constructor"
    },
    {
      "inputs": [
        {
          "components": [
            {
              "internalType": "address",
              "name": "useraddress",
              "type": "address"
            },
            {
              "internalType": "string",
              "name": "fname",
              "type": "string"
            },
            {
              "internalType": "string",
              "name": "lname",
              "type": "string"
            },
            {
              "internalType": "string",
              "name": "dob",
              "type": "string"
            },
            {
              "internalType": "string",
              "name": "gender",
              "type": "string"
            }
          ],
          "internalType": "struct SimpleStorage.userData",
          "name": "data",
          "type": "tuple"
        }
      ],
      "name": "addUser",
      "outputs": [],
      "stateMutability": "nonpayable",
      "type": "function"
    },
    {
      "inputs": [],
      "name": "returnUser",
      "outputs": [
        {
          "components": [
            {
              "internalType": "address",
              "name": "useraddress",
              "type": "address"
            },
            {
              "internalType": "string",
              "name": "fname",
              "type": "string"
            },
            {
              "internalType": "string",
              "name": "lname",
              "type": "string"
            },
            {
              "internalType": "string",
              "name": "dob",
              "type": "string"
            },
            {
              "internalType": "string",
              "name": "gender",
              "type": "string"
            }
          ],
          "internalType": "struct SimpleStorage.userData",
          "name": "",
          "type": "tuple"
        }
      ],
      "stateMutability": "view",
      "type": "function",
      "constant": true
    }
  ],
  "bytecode": "0x608060405234801561001057600080fd5b50610bf2806100206000396000f3fe608060405234801561001057600080fd5b50600436106100365760003560e01c806394fcceaa1461003b578063ef9c0a2a14610057575b600080fd5b61005560048036038101906100509190610750565b610075565b005b61005f610159565b60405161006c91906108b2565b60405180910390f35b806000803373ffffffffffffffffffffffffffffffffffffffff1673ffffffffffffffffffffffffffffffffffffffff16815260200190815260200160002060008201518160000160006101000a81548173ffffffffffffffffffffffffffffffffffffffff021916908373ffffffffffffffffffffffffffffffffffffffff16021790555060208201518160010190816101109190610aea565b5060408201518160020190816101269190610aea565b50606082015181600301908161013c9190610aea565b5060808201518160040190816101529190610aea565b5090505050565b61016161044d565b6000803373ffffffffffffffffffffffffffffffffffffffff1673ffffffffffffffffffffffffffffffffffffffff1681526020019081526020016000206040518060a00160405290816000820160009054906101000a900473ffffffffffffffffffffffffffffffffffffffff1673ffffffffffffffffffffffffffffffffffffffff1673ffffffffffffffffffffffffffffffffffffffff16815260200160018201805461021090610903565b80601f016020809104026020016040519081016040528092919081815260200182805461023c90610903565b80156102895780601f1061025e57610100808354040283529160200191610289565b820191906000526020600020905b81548152906001019060200180831161026c57829003601f168201915b505050505081526020016002820180546102a290610903565b80601f01602080910402602001604051908101604052809291908181526020018280546102ce90610903565b801561031b5780601f106102f05761010080835404028352916020019161031b565b820191906000526020600020905b8154815290600101906020018083116102fe57829003601f168201915b5050505050815260200160038201805461033490610903565b80601f016020809104026020016040519081016040528092919081815260200182805461036090610903565b80156103ad5780601f10610382576101008083540402835291602001916103ad565b820191906000526020600020905b81548152906001019060200180831161039057829003601f168201915b505050505081526020016004820180546103c690610903565b80601f01602080910402602001604051908101604052809291908181526020018280546103f290610903565b801561043f5780601f106104145761010080835404028352916020019161043f565b820191906000526020600020905b81548152906001019060200180831161042257829003601f168201915b505050505081525050905090565b6040518060a00160405280600073ffffffffffffffffffffffffffffffffffffffff168152602001606081526020016060815260200160608152602001606081525090565b6000604051905090565b600080fd5b600080fd5b600080fd5b6000601f19601f8301169050919050565b7f4e487b7100000000000000000000000000000000000000000000000000000000600052604160045260246000fd5b6104f4826104ab565b810181811067ffffffffffffffff82111715610513576105126104bc565b5b80604052505050565b6000610526610492565b905061053282826104eb565b919050565b600080fd5b600073ffffffffffffffffffffffffffffffffffffffff82169050919050565b60006105678261053c565b9050919050565b6105778161055c565b811461058257600080fd5b50565b6000813590506105948161056e565b92915050565b600080fd5b600080fd5b600067ffffffffffffffff8211156105bf576105be6104bc565b5b6105c8826104ab565b9050602081019050919050565b82818337600083830152505050565b60006105f76105f2846105a4565b61051c565b9050828152602081018484840111156106135761061261059f565b5b61061e8482856105d5565b509392505050565b600082601f83011261063b5761063a61059a565b5b813561064b8482602086016105e4565b91505092915050565b600060a0828403121561066a576106696104a6565b5b61067460a061051c565b9050600061068484828501610585565b600083015250602082013567ffffffffffffffff8111156106a8576106a7610537565b5b6106b484828501610626565b602083015250604082013567ffffffffffffffff8111156106d8576106d7610537565b5b6106e484828501610626565b604083015250606082013567ffffffffffffffff81111561070857610707610537565b5b61071484828501610626565b606083015250608082013567ffffffffffffffff81111561073857610737610537565b5b61074484828501610626565b60808301525092915050565b6000602082840312156107665761076561049c565b5b600082013567ffffffffffffffff811115610784576107836104a1565b5b61079084828501610654565b91505092915050565b6107a28161055c565b82525050565b600081519050919050565b600082825260208201905092915050565b60005b838110156107e25780820151818401526020810190506107c7565b60008484015250505050565b60006107f9826107a8565b61080381856107b3565b93506108138185602086016107c4565b61081c816104ab565b840191505092915050565b600060a08301600083015161083f6000860182610799565b506020830151848203602086015261085782826107ee565b9150506040830151848203604086015261087182826107ee565b9150506060830151848203606086015261088b82826107ee565b915050608083015184820360808601526108a582826107ee565b9150508091505092915050565b600060208201905081810360008301526108cc8184610827565b905092915050565b7f4e487b7100000000000000000000000000000000000000000000000000000000600052602260045260246000fd5b6000600282049050600182168061091b57607f821691505b60208210810361092e5761092d6108d4565b5b50919050565b60008190508160005260206000209050919050565b60006020601f8301049050919050565b600082821b905092915050565b6000600883026109967fffffffffffffffffffffffffffffffffffffffffffffffffffffffffffffffff82610959565b6109a08683610959565b95508019841693508086168417925050509392505050565b6000819050919050565b6000819050919050565b60006109e76109e26109dd846109b8565b6109c2565b6109b8565b9050919050565b6000819050919050565b610a01836109cc565b610a15610a0d826109ee565b848454610966565b825550505050565b600090565b610a2a610a1d565b610a358184846109f8565b505050565b5b81811015610a5957610a4e600082610a22565b600181019050610a3b565b5050565b601f821115610a9e57610a6f81610934565b610a7884610949565b81016020851015610a87578190505b610a9b610a9385610949565b830182610a3a565b50505b505050565b600082821c905092915050565b6000610ac160001984600802610aa3565b1980831691505092915050565b6000610ada8383610ab0565b9150826002028217905092915050565b610af3826107a8565b67ffffffffffffffff811115610b0c57610b0b6104bc565b5b610b168254610903565b610b21828285610a5d565b600060209050601f831160018114610b545760008415610b42578287015190505b610b4c8582610ace565b865550610bb4565b601f198416610b6286610934565b60005b82811015610b8a57848901518255600182019150602085019450602081019050610b65565b86831015610ba75784890151610ba3601f891682610ab0565b8355505b6001600288020188555050505b50505050505056fea2646970667358221220d630b1dbbc6ecb2125df7b489df625b5ef1e217768b97950e7e7bfcdca9efc9a64736f6c63430008120033",
  "immutableReferences": {},
  "source": "// SPDX-License-Identifier: MIT\npragma solidity >=0.4.22 <0.9.0;\n\n\ncontract SimpleStorage {\n\n  struct userData{\n    address useraddress;\n    string fname;\n    string lname;\n    string dob;\n    string gender;\n  }\n\n  constructor(){\n\n  }\n\n  mapping(address => userData) accounts;\n\n  function addUser(userData memory data) public {\n    accounts[msg.sender] = data;\n  }\n\n  function returnUser() public view returns (userData memory) {\n    return accounts[msg.sender];\n  }\n\n\n\n}\n",
  "sourcePath": "/home/cy34/Projects/DPOSN/truffle/contracts/SimpleStorage.sol",
  "compiler": {
    "name": "solc",
    "version": "0.8.18+commit.87f61d96.Emscripten.clang"
  },
  "schemaVersion": "3.4.16",
  "updatedAt": "2024-01-31T15:20:44.922Z",
  "networkType": "ethereum",
  "devdoc": {
    "kind": "dev",
    "methods": {},
    "version": 1
  },
  "userdoc": {
    "kind": "user",
    "methods": {},
    "version": 1
  }
}