{
  "contractName": "SocialNetwork",
  "abi": [
    {
      "inputs": [
        {
          "internalType": "uint256",
          "name": "",
          "type": "uint256"
        }
      ],
      "name": "userAddresses",
      "outputs": [
        {
          "internalType": "address",
          "name": "",
          "type": "address"
        }
      ],
      "stateMutability": "view",
      "type": "function",
      "constant": true
    },
    {
      "inputs": [
        {
          "internalType": "address",
          "name": "_userAddress",
          "type": "address"
        },
        {
          "internalType": "string",
          "name": "_imageCID",
          "type": "string"
        },
        {
          "internalType": "bytes32",
          "name": "_userName",
          "type": "bytes32"
        },
        {
          "internalType": "bytes32",
          "name": "_firstName",
          "type": "bytes32"
        },
        {
          "internalType": "bytes32",
          "name": "_lastName",
          "type": "bytes32"
        },
        {
          "internalType": "bytes32",
          "name": "_dateOfBirth",
          "type": "bytes32"
        },
        {
          "internalType": "bytes32",
          "name": "_status",
          "type": "bytes32"
        }
      ],
      "name": "registerUser",
      "outputs": [],
      "stateMutability": "nonpayable",
      "type": "function"
    },
    {
      "inputs": [],
      "name": "getAllUsers",
      "outputs": [
        {
          "internalType": "address[]",
          "name": "",
          "type": "address[]"
        }
      ],
      "stateMutability": "view",
      "type": "function",
      "constant": true
    },
    {
      "inputs": [
        {
          "internalType": "address",
          "name": "userAddress",
          "type": "address"
        }
      ],
      "name": "getUser",
      "outputs": [
        {
          "components": [
            {
              "internalType": "address",
              "name": "userAddress",
              "type": "address"
            },
            {
              "internalType": "string",
              "name": "imageCID",
              "type": "string"
            },
            {
              "internalType": "bytes32",
              "name": "userName",
              "type": "bytes32"
            },
            {
              "internalType": "bytes32",
              "name": "firstName",
              "type": "bytes32"
            },
            {
              "internalType": "bytes32",
              "name": "lastName",
              "type": "bytes32"
            },
            {
              "internalType": "bytes32",
              "name": "dateOfBirth",
              "type": "bytes32"
            },
            {
              "internalType": "bytes32",
              "name": "status",
              "type": "bytes32"
            }
          ],
          "internalType": "struct SocialNetwork.userData",
          "name": "",
          "type": "tuple"
        }
      ],
      "stateMutability": "view",
      "type": "function",
      "constant": true
    },
    {
      "inputs": [],
      "name": "loginUser",
      "outputs": [
        {
          "internalType": "bool",
          "name": "",
          "type": "bool"
        }
      ],
      "stateMutability": "view",
      "type": "function",
      "constant": true
    },
    {
      "inputs": [
        {
          "internalType": "string",
          "name": "_PostCID",
          "type": "string"
        }
      ],
      "name": "addPost",
      "outputs": [],
      "stateMutability": "nonpayable",
      "type": "function"
    },
    {
      "inputs": [],
      "name": "getPosts",
      "outputs": [
        {
          "components": [
            {
              "internalType": "address",
              "name": "userAddress",
              "type": "address"
            },
            {
              "internalType": "string",
              "name": "postCID",
              "type": "string"
            },
            {
              "internalType": "string",
              "name": "commentCID",
              "type": "string"
            }
          ],
          "internalType": "struct SocialNetwork.post[]",
          "name": "",
          "type": "tuple[]"
        }
      ],
      "stateMutability": "view",
      "type": "function",
      "constant": true
    }
  ],
  "bytecode": "0x608060405234801561001057600080fd5b50611877806100206000396000f3fe608060405234801561001057600080fd5b506004361061007d5760003560e01c80636f77926b1161005b5780636f77926b146100ec578063a19ed6861461011c578063a63228191461013a578063e2842d79146101565761007d565b806341f3004a14610082578063502c9bd5146100a05780636923a07e146100d0575b600080fd5b61008a610174565b6040516100979190610e49565b60405180910390f35b6100ba60048036038101906100b59190610eb5565b61041c565b6040516100c79190610ef1565b60405180910390f35b6100ea60048036038101906100e591906110a3565b61045b565b005b61010660048036038101906101019190611161565b6106af565b6040516101139190611239565b60405180910390f35b6101246108e5565b6040516101319190611276565b60405180910390f35b610154600480360381019061014f9190611291565b6109bd565b005b61015e610b6f565b60405161016b9190611389565b60405180910390f35b60603373ffffffffffffffffffffffffffffffffffffffff166000803373ffffffffffffffffffffffffffffffffffffffff1673ffffffffffffffffffffffffffffffffffffffff16815260200190815260200160002060000160009054906101000a900473ffffffffffffffffffffffffffffffffffffffff1673ffffffffffffffffffffffffffffffffffffffff1614610245576040517f08c379a000000000000000000000000000000000000000000000000000000000815260040161023c90611408565b60405180910390fd5b6002805480602002602001604051908101604052809291908181526020016000905b8282101561041357838290600052602060002090600302016040518060600160405290816000820160009054906101000a900473ffffffffffffffffffffffffffffffffffffffff1673ffffffffffffffffffffffffffffffffffffffff1673ffffffffffffffffffffffffffffffffffffffff1681526020016001820180546102f090611457565b80601f016020809104026020016040519081016040528092919081815260200182805461031c90611457565b80156103695780601f1061033e57610100808354040283529160200191610369565b820191906000526020600020905b81548152906001019060200180831161034c57829003601f168201915b5050505050815260200160028201805461038290611457565b80601f01602080910402602001604051908101604052809291908181526020018280546103ae90611457565b80156103fb5780601f106103d0576101008083540402835291602001916103fb565b820191906000526020600020905b8154815290600101906020018083116103de57829003601f168201915b50505050508152505081526020019060010190610267565b50505050905090565b6001818154811061042c57600080fd5b906000526020600020016000915054906101000a900473ffffffffffffffffffffffffffffffffffffffff1681565b3373ffffffffffffffffffffffffffffffffffffffff166000808973ffffffffffffffffffffffffffffffffffffffff1673ffffffffffffffffffffffffffffffffffffffff16815260200190815260200160002060000160009054906101000a900473ffffffffffffffffffffffffffffffffffffffff1673ffffffffffffffffffffffffffffffffffffffff160361052a576040517f08c379a0000000000000000000000000000000000000000000000000000000008152600401610521906114d4565b60405180910390fd5b6001879080600181540180825580915050600190039060005260206000200160009091909190916101000a81548173ffffffffffffffffffffffffffffffffffffffff021916908373ffffffffffffffffffffffffffffffffffffffff1602179055506040518060e001604052803373ffffffffffffffffffffffffffffffffffffffff168152602001878152602001868152602001858152602001848152602001838152602001828152506000803373ffffffffffffffffffffffffffffffffffffffff1673ffffffffffffffffffffffffffffffffffffffff16815260200190815260200160002060008201518160000160006101000a81548173ffffffffffffffffffffffffffffffffffffffff021916908373ffffffffffffffffffffffffffffffffffffffff160217905550602082015181600101908161067091906116a0565b5060408201518160020155606082015181600301556080820151816004015560a0820151816005015560c0820151816006015590505050505050505050565b6106b7610bfd565b60008060003373ffffffffffffffffffffffffffffffffffffffff1673ffffffffffffffffffffffffffffffffffffffff16815260200190815260200160002060000160009054906101000a900473ffffffffffffffffffffffffffffffffffffffff1660405160200161072b91906117ba565b604051602081830303815290604052511161077b576040517f08c379a000000000000000000000000000000000000000000000000000000000815260040161077290611821565b60405180910390fd5b6000808373ffffffffffffffffffffffffffffffffffffffff1673ffffffffffffffffffffffffffffffffffffffff1681526020019081526020016000206040518060e00160405290816000820160009054906101000a900473ffffffffffffffffffffffffffffffffffffffff1673ffffffffffffffffffffffffffffffffffffffff1673ffffffffffffffffffffffffffffffffffffffff16815260200160018201805461082a90611457565b80601f016020809104026020016040519081016040528092919081815260200182805461085690611457565b80156108a35780601f10610878576101008083540402835291602001916108a3565b820191906000526020600020905b81548152906001019060200180831161088657829003601f168201915b50505050508152602001600282015481526020016003820154815260200160048201548152602001600582015481526020016006820154815250509050919050565b60008073ffffffffffffffffffffffffffffffffffffffff166000803373ffffffffffffffffffffffffffffffffffffffff1673ffffffffffffffffffffffffffffffffffffffff16815260200190815260200160002060000160009054906101000a900473ffffffffffffffffffffffffffffffffffffffff1673ffffffffffffffffffffffffffffffffffffffff16036109b6576040517f08c379a00000000000000000000000000000000000000000000000000000000081526004016109ad90611821565b60405180910390fd5b6001905090565b3373ffffffffffffffffffffffffffffffffffffffff166000803373ffffffffffffffffffffffffffffffffffffffff1673ffffffffffffffffffffffffffffffffffffffff16815260200190815260200160002060000160009054906101000a900473ffffffffffffffffffffffffffffffffffffffff1673ffffffffffffffffffffffffffffffffffffffff1614610a8c576040517f08c379a0000000000000000000000000000000000000000000000000000000008152600401610a8390611408565b60405180910390fd5b600260405180606001604052803373ffffffffffffffffffffffffffffffffffffffff16815260200183815260200160405180602001604052806000815250815250908060018154018082558091505060019003906000526020600020906003020160009091909190915060008201518160000160006101000a81548173ffffffffffffffffffffffffffffffffffffffff021916908373ffffffffffffffffffffffffffffffffffffffff1602179055506020820151816001019081610b5391906116a0565b506040820151816002019081610b6991906116a0565b50505050565b60606001805480602002602001604051908101604052809291908181526020018280548015610bf357602002820191906000526020600020905b8160009054906101000a900473ffffffffffffffffffffffffffffffffffffffff1673ffffffffffffffffffffffffffffffffffffffff1681526020019060010190808311610ba9575b5050505050905090565b6040518060e00160405280600073ffffffffffffffffffffffffffffffffffffffff1681526020016060815260200160008019168152602001600080191681526020016000801916815260200160008019168152602001600080191681525090565b600081519050919050565b600082825260208201905092915050565b6000819050602082019050919050565b600073ffffffffffffffffffffffffffffffffffffffff82169050919050565b6000610cb682610c8b565b9050919050565b610cc681610cab565b82525050565b600081519050919050565b600082825260208201905092915050565b60005b83811015610d06578082015181840152602081019050610ceb565b60008484015250505050565b6000601f19601f8301169050919050565b6000610d2e82610ccc565b610d388185610cd7565b9350610d48818560208601610ce8565b610d5181610d12565b840191505092915050565b6000606083016000830151610d746000860182610cbd565b5060208301518482036020860152610d8c8282610d23565b91505060408301518482036040860152610da68282610d23565b9150508091505092915050565b6000610dbf8383610d5c565b905092915050565b6000602082019050919050565b6000610ddf82610c5f565b610de98185610c6a565b935083602082028501610dfb85610c7b565b8060005b85811015610e375784840389528151610e188582610db3565b9450610e2383610dc7565b925060208a01995050600181019050610dff565b50829750879550505050505092915050565b60006020820190508181036000830152610e638184610dd4565b905092915050565b6000604051905090565b600080fd5b600080fd5b6000819050919050565b610e9281610e7f565b8114610e9d57600080fd5b50565b600081359050610eaf81610e89565b92915050565b600060208284031215610ecb57610eca610e75565b5b6000610ed984828501610ea0565b91505092915050565b610eeb81610cab565b82525050565b6000602082019050610f066000830184610ee2565b92915050565b610f1581610cab565b8114610f2057600080fd5b50565b600081359050610f3281610f0c565b92915050565b600080fd5b600080fd5b7f4e487b7100000000000000000000000000000000000000000000000000000000600052604160045260246000fd5b610f7a82610d12565b810181811067ffffffffffffffff82111715610f9957610f98610f42565b5b80604052505050565b6000610fac610e6b565b9050610fb88282610f71565b919050565b600067ffffffffffffffff821115610fd857610fd7610f42565b5b610fe182610d12565b9050602081019050919050565b82818337600083830152505050565b600061101061100b84610fbd565b610fa2565b90508281526020810184848401111561102c5761102b610f3d565b5b611037848285610fee565b509392505050565b600082601f83011261105457611053610f38565b5b8135611064848260208601610ffd565b91505092915050565b6000819050919050565b6110808161106d565b811461108b57600080fd5b50565b60008135905061109d81611077565b92915050565b600080600080600080600060e0888a0312156110c2576110c1610e75565b5b60006110d08a828b01610f23565b975050602088013567ffffffffffffffff8111156110f1576110f0610e7a565b5b6110fd8a828b0161103f565b965050604061110e8a828b0161108e565b955050606061111f8a828b0161108e565b94505060806111308a828b0161108e565b93505060a06111418a828b0161108e565b92505060c06111528a828b0161108e565b91505092959891949750929550565b60006020828403121561117757611176610e75565b5b600061118584828501610f23565b91505092915050565b6111978161106d565b82525050565b600060e0830160008301516111b56000860182610cbd565b50602083015184820360208601526111cd8282610d23565b91505060408301516111e2604086018261118e565b5060608301516111f5606086018261118e565b506080830151611208608086018261118e565b5060a083015161121b60a086018261118e565b5060c083015161122e60c086018261118e565b508091505092915050565b60006020820190508181036000830152611253818461119d565b905092915050565b60008115159050919050565b6112708161125b565b82525050565b600060208201905061128b6000830184611267565b92915050565b6000602082840312156112a7576112a6610e75565b5b600082013567ffffffffffffffff8111156112c5576112c4610e7a565b5b6112d18482850161103f565b91505092915050565b600081519050919050565b600082825260208201905092915050565b6000819050602082019050919050565b60006113128383610cbd565b60208301905092915050565b6000602082019050919050565b6000611336826112da565b61134081856112e5565b935061134b836112f6565b8060005b8381101561137c5781516113638882611306565b975061136e8361131e565b92505060018101905061134f565b5085935050505092915050565b600060208201905081810360008301526113a3818461132b565b905092915050565b600082825260208201905092915050565b7f5573657220646f65736e27742065786973740000000000000000000000000000600082015250565b60006113f26012836113ab565b91506113fd826113bc565b602082019050919050565b60006020820190508181036000830152611421816113e5565b9050919050565b7f4e487b7100000000000000000000000000000000000000000000000000000000600052602260045260246000fd5b6000600282049050600182168061146f57607f821691505b60208210810361148257611481611428565b5b50919050565b7f5573657220616c72656164792072656769737465726564000000000000000000600082015250565b60006114be6017836113ab565b91506114c982611488565b602082019050919050565b600060208201905081810360008301526114ed816114b1565b9050919050565b60008190508160005260206000209050919050565b60006020601f8301049050919050565b600082821b905092915050565b6000600883026115567fffffffffffffffffffffffffffffffffffffffffffffffffffffffffffffffff82611519565b6115608683611519565b95508019841693508086168417925050509392505050565b6000819050919050565b600061159d61159861159384610e7f565b611578565b610e7f565b9050919050565b6000819050919050565b6115b783611582565b6115cb6115c3826115a4565b848454611526565b825550505050565b600090565b6115e06115d3565b6115eb8184846115ae565b505050565b5b8181101561160f576116046000826115d8565b6001810190506115f1565b5050565b601f82111561165457611625816114f4565b61162e84611509565b8101602085101561163d578190505b61165161164985611509565b8301826115f0565b50505b505050565b600082821c905092915050565b600061167760001984600802611659565b1980831691505092915050565b60006116908383611666565b9150826002028217905092915050565b6116a982610ccc565b67ffffffffffffffff8111156116c2576116c1610f42565b5b6116cc8254611457565b6116d7828285611613565b600060209050601f83116001811461170a57600084156116f8578287015190505b6117028582611684565b86555061176a565b601f198416611718866114f4565b60005b828110156117405784890151825560018201915060208501945060208101905061171b565b8683101561175d5784890151611759601f891682611666565b8355505b6001600288020188555050505b505050505050565b60008160601b9050919050565b600061178a82611772565b9050919050565b600061179c8261177f565b9050919050565b6117b46117af82610cab565b611791565b82525050565b60006117c682846117a3565b60148201915081905092915050565b7f7573657220646f65736e27742065786973740000000000000000000000000000600082015250565b600061180b6012836113ab565b9150611816826117d5565b602082019050919050565b6000602082019050818103600083015261183a816117fe565b905091905056fea2646970667358221220fb3cfdd32732c79246748a382a00e10bbc3d2104c54aaf28f645fbc948db28c464736f6c63430008120033",
  "immutableReferences": {},
  "source": "// SPDX-License-Identifier: MIT\r\npragma solidity ^0.8.13;\r\n\r\ncontract SocialNetwork {\r\n    //////////////////////////////////////////////////////////////////////////////////////////////////////////////////////\r\n    //  User Authentication Section                                                                                     //\r\n    //////////////////////////////////////////////////////////////////////////////////////////////////////////////////////\r\n\r\n    struct userData {\r\n        address userAddress;\r\n        string imageCID;\r\n        bytes32 userName;\r\n        bytes32 firstName;\r\n        bytes32 lastName;\r\n        bytes32 dateOfBirth;\r\n        bytes32 status;\r\n    }\r\n\r\n    mapping(address => userData) accounts;\r\n\r\n    address[] public userAddresses;\r\n\r\n    function registerUser(\r\n        address _userAddress,\r\n        string memory _imageCID,\r\n        bytes32 _userName,\r\n        bytes32 _firstName,\r\n        bytes32 _lastName,\r\n        bytes32 _dateOfBirth,\r\n        bytes32 _status\r\n    ) public {\r\n        require(\r\n            accounts[_userAddress].userAddress != msg.sender,\r\n            \"User already registered\"\r\n        );\r\n        userAddresses.push(_userAddress);\r\n        accounts[msg.sender] = userData({\r\n            userAddress: msg.sender,\r\n            imageCID: _imageCID,\r\n            userName: _userName,\r\n            firstName: _firstName,\r\n            lastName: _lastName,\r\n            dateOfBirth: _dateOfBirth,\r\n            status: _status\r\n        });\r\n    }\r\n\r\n    function getAllUsers() public view returns (address[] memory) {\r\n        return userAddresses;\r\n    }\r\n\r\n    function getUser(\r\n        address userAddress\r\n    ) public view returns (userData memory) {\r\n        require(\r\n            abi.encodePacked(accounts[msg.sender].userAddress).length > 0,\r\n            \"user doesn't exist\"\r\n        );\r\n        return accounts[userAddress];\r\n    }\r\n\r\n    function loginUser() public view returns (bool) {\r\n        require(\r\n            accounts[msg.sender].userAddress != address(0),\r\n            \"user doesn't exist\"\r\n        );\r\n        return true;\r\n    }\r\n\r\n    //////////////////////////////////////////////////////////////////////////////////////////////////////////////////////\r\n    //  Post and Comment Section                                                                                        //\r\n    //////////////////////////////////////////////////////////////////////////////////////////////////////////////////////\r\n\r\n    struct post {\r\n        address userAddress;\r\n        string postCID;\r\n        string commentCID;\r\n    }\r\n\r\n    // string[] postList;\r\n    // mapping(string => post) postData;\r\n\r\n    // function addPost(string memory _PostCID) public {\r\n    //     require(\r\n    //         accounts[msg.sender].userAddress == msg.sender,\r\n    //         \"User doesn't exist\"\r\n    //     );\r\n    //     postList.push(_PostCID);\r\n    //     postData[_PostCID] = post({\r\n    //         userAddress: msg.sender,\r\n    //         postCID: _PostCID,\r\n    //         commentCID: \"\"\r\n    //     });\r\n    // }\r\n\r\n    post[] allPostData;\r\n\r\n    function addPost(string memory _PostCID) public {\r\n        require(\r\n            accounts[msg.sender].userAddress == msg.sender,\r\n            \"User doesn't exist\"\r\n        );\r\n        allPostData.push(\r\n            post({userAddress: msg.sender, postCID: _PostCID, commentCID: \"\"})\r\n        );\r\n    }\r\n\r\n    function getPosts() public view returns (post[] memory) {\r\n        require(\r\n            accounts[msg.sender].userAddress == msg.sender,\r\n            \"User doesn't exist\"\r\n        );\r\n        return allPostData;\r\n    }\r\n}\r\n",
  "sourcePath": "C:\\Users\\abhis\\OneDrive\\Documents\\Main Project\\MP\\DPOSN\\truffle\\contracts\\SocialNetwork.sol",
  "compiler": {
    "name": "solc",
    "version": "0.8.18+commit.87f61d96.Emscripten.clang"
  },
  "schemaVersion": "3.4.16",
  "updatedAt": "2024-02-18T18:25:34.952Z",
  "networkType": "ethereum",
  "devdoc": {
    "kind": "dev",
    "methods": {},
    "version": 1
  },
  "userdoc": {
    "kind": "user",
    "methods": {},
    "version": 1
  }
}