{
  "contractName": "SocialNetwork",
  "abi": [
    {
      "inputs": [
        {
          "internalType": "uint256",
          "name": "",
          "type": "uint256"
        }
      ],
      "name": "userAddresses",
      "outputs": [
        {
          "internalType": "address",
          "name": "",
          "type": "address"
        }
      ],
      "stateMutability": "view",
      "type": "function",
      "constant": true
    },
    {
      "inputs": [
        {
          "internalType": "address",
          "name": "_userAddress",
          "type": "address"
        },
        {
          "internalType": "string",
          "name": "_imageCID",
          "type": "string"
        },
        {
          "internalType": "bytes32",
          "name": "_userName",
          "type": "bytes32"
        },
        {
          "internalType": "bytes32",
          "name": "_firstName",
          "type": "bytes32"
        },
        {
          "internalType": "bytes32",
          "name": "_lastName",
          "type": "bytes32"
        },
        {
          "internalType": "bytes32",
          "name": "_dateOfBirth",
          "type": "bytes32"
        },
        {
          "internalType": "bytes32",
          "name": "_status",
          "type": "bytes32"
        }
      ],
      "name": "registerUser",
      "outputs": [],
      "stateMutability": "nonpayable",
      "type": "function"
    },
    {
      "inputs": [],
      "name": "getAllUsers",
      "outputs": [
        {
          "internalType": "address[]",
          "name": "",
          "type": "address[]"
        }
      ],
      "stateMutability": "view",
      "type": "function",
      "constant": true
    },
    {
      "inputs": [
        {
          "internalType": "address",
          "name": "userAddress",
          "type": "address"
        }
      ],
      "name": "getUser",
      "outputs": [
        {
          "components": [
            {
              "internalType": "address",
              "name": "userAddress",
              "type": "address"
            },
            {
              "internalType": "string",
              "name": "imageCID",
              "type": "string"
            },
            {
              "internalType": "bytes32",
              "name": "userName",
              "type": "bytes32"
            },
            {
              "internalType": "bytes32",
              "name": "firstName",
              "type": "bytes32"
            },
            {
              "internalType": "bytes32",
              "name": "lastName",
              "type": "bytes32"
            },
            {
              "internalType": "bytes32",
              "name": "dateOfBirth",
              "type": "bytes32"
            },
            {
              "internalType": "bytes32",
              "name": "status",
              "type": "bytes32"
            },
            {
              "internalType": "address[]",
              "name": "followers",
              "type": "address[]"
            },
            {
              "internalType": "address[]",
              "name": "following",
              "type": "address[]"
            },
            {
              "internalType": "uint256",
              "name": "followersCount",
              "type": "uint256"
            },
            {
              "internalType": "uint256",
              "name": "followingCount",
              "type": "uint256"
            }
          ],
          "internalType": "struct SocialNetwork.userData",
          "name": "",
          "type": "tuple"
        }
      ],
      "stateMutability": "view",
      "type": "function",
      "constant": true
    },
    {
      "inputs": [],
      "name": "loginUser",
      "outputs": [
        {
          "internalType": "bool",
          "name": "",
          "type": "bool"
        }
      ],
      "stateMutability": "view",
      "type": "function",
      "constant": true
    },
    {
      "inputs": [
        {
          "internalType": "string",
          "name": "_PostCID",
          "type": "string"
        }
      ],
      "name": "addPost",
      "outputs": [],
      "stateMutability": "nonpayable",
      "type": "function"
    },
    {
      "inputs": [
        {
          "internalType": "string",
          "name": "_postCID",
          "type": "string"
        },
        {
          "internalType": "string",
          "name": "_CommentCID",
          "type": "string"
        }
      ],
      "name": "addComment",
      "outputs": [],
      "stateMutability": "nonpayable",
      "type": "function"
    },
    {
      "inputs": [],
      "name": "getPosts",
      "outputs": [
        {
          "components": [
            {
              "internalType": "address",
              "name": "userAddress",
              "type": "address"
            },
            {
              "internalType": "string",
              "name": "postCID",
              "type": "string"
            }
          ],
          "internalType": "struct SocialNetwork.post[]",
          "name": "",
          "type": "tuple[]"
        }
      ],
      "stateMutability": "view",
      "type": "function",
      "constant": true
    },
    {
      "inputs": [
        {
          "internalType": "address",
          "name": "_currentUser",
          "type": "address"
        },
        {
          "internalType": "address",
          "name": "_userToFollow",
          "type": "address"
        }
      ],
      "name": "followUser",
      "outputs": [],
      "stateMutability": "nonpayable",
      "type": "function"
    },
    {
      "inputs": [],
      "name": "getFollowedUsers",
      "outputs": [
        {
          "internalType": "address[]",
          "name": "",
          "type": "address[]"
        }
      ],
      "stateMutability": "view",
      "type": "function",
      "constant": true
    },
    {
      "inputs": [
        {
          "internalType": "address",
          "name": "userAddress",
          "type": "address"
        }
      ],
      "name": "getFollowersCount",
      "outputs": [
        {
          "internalType": "uint256",
          "name": "",
          "type": "uint256"
        }
      ],
      "stateMutability": "view",
      "type": "function",
      "constant": true
    }
  ],
  "bytecode": "0x608060405234801561001057600080fd5b50612704806100206000396000f3fe608060405234801561001057600080fd5b50600436106100a95760003560e01c80636923a07e116100715780636923a07e146101665780636f77926b14610182578063a19ed686146101b2578063a6322819146101d0578063ae5ff905146101ec578063e2842d7914610208576100a9565b80630c8273e6146100ae57806325e9ccf9146100ca57806341f3004a146100fa578063502c9bd51461011857806364160a6b14610148575b600080fd5b6100c860048036038101906100c3919061170e565b610226565b005b6100e460048036038101906100df919061174e565b610674565b6040516100f19190611794565b60405180910390f35b6101026106bf565b60405161010f919061194d565b60405180910390f35b610132600480360381019061012d919061199b565b6108d5565b60405161013f91906119d7565b60405180910390f35b610150610914565b60405161015d9190611aa1565b60405180910390f35b610180600480360381019061017b9190611c2e565b6109e1565b005b61019c6004803603810190610197919061174e565b610d33565b6040516101a99190611e76565b60405180910390f35b6101ba61109a565b6040516101c79190611eb3565b60405180910390f35b6101ea60048036038101906101e59190611ece565b611172565b005b61020660048036038101906102019190611f17565b6112f9565b005b6102106113f8565b60405161021d9190611aa1565b60405180910390f35b8073ffffffffffffffffffffffffffffffffffffffff168273ffffffffffffffffffffffffffffffffffffffff1603610294576040517f08c379a000000000000000000000000000000000000000000000000000000000815260040161028b90611fec565b60405180910390fd5b600073ffffffffffffffffffffffffffffffffffffffff166000808473ffffffffffffffffffffffffffffffffffffffff1673ffffffffffffffffffffffffffffffffffffffff16815260200190815260200160002060000160009054906101000a900473ffffffffffffffffffffffffffffffffffffffff1673ffffffffffffffffffffffffffffffffffffffff1603610364576040517f08c379a000000000000000000000000000000000000000000000000000000000815260040161035b90612058565b60405180910390fd5b600073ffffffffffffffffffffffffffffffffffffffff166000808373ffffffffffffffffffffffffffffffffffffffff1673ffffffffffffffffffffffffffffffffffffffff16815260200190815260200160002060000160009054906101000a900473ffffffffffffffffffffffffffffffffffffffff1673ffffffffffffffffffffffffffffffffffffffff1603610434576040517f08c379a000000000000000000000000000000000000000000000000000000000815260040161042b906120c4565b60405180910390fd5b61043e8282611486565b1561047e576040517f08c379a000000000000000000000000000000000000000000000000000000000815260040161047590612130565b60405180910390fd5b6000808373ffffffffffffffffffffffffffffffffffffffff1673ffffffffffffffffffffffffffffffffffffffff168152602001908152602001600020600801819080600181540180825580915050600190039060005260206000200160009091909190916101000a81548173ffffffffffffffffffffffffffffffffffffffff021916908373ffffffffffffffffffffffffffffffffffffffff1602179055506000808373ffffffffffffffffffffffffffffffffffffffff1673ffffffffffffffffffffffffffffffffffffffff168152602001908152602001600020600a0160008154809291906105729061217f565b91905055506000808273ffffffffffffffffffffffffffffffffffffffff1673ffffffffffffffffffffffffffffffffffffffff168152602001908152602001600020600701829080600181540180825580915050600190039060005260206000200160009091909190916101000a81548173ffffffffffffffffffffffffffffffffffffffff021916908373ffffffffffffffffffffffffffffffffffffffff1602179055506000808273ffffffffffffffffffffffffffffffffffffffff1673ffffffffffffffffffffffffffffffffffffffff168152602001908152602001600020600901600081548092919061066b9061217f565b91905055505050565b60008060008373ffffffffffffffffffffffffffffffffffffffff1673ffffffffffffffffffffffffffffffffffffffff168152602001908152602001600020600901549050919050565b60603373ffffffffffffffffffffffffffffffffffffffff166000803373ffffffffffffffffffffffffffffffffffffffff1673ffffffffffffffffffffffffffffffffffffffff16815260200190815260200160002060000160009054906101000a900473ffffffffffffffffffffffffffffffffffffffff1673ffffffffffffffffffffffffffffffffffffffff1614610790576040517f08c379a000000000000000000000000000000000000000000000000000000000815260040161078790612213565b60405180910390fd5b6002805480602002602001604051908101604052809291908181526020016000905b828210156108cc57838290600052602060002090600202016040518060400160405290816000820160009054906101000a900473ffffffffffffffffffffffffffffffffffffffff1673ffffffffffffffffffffffffffffffffffffffff1673ffffffffffffffffffffffffffffffffffffffff16815260200160018201805461083b90612262565b80601f016020809104026020016040519081016040528092919081815260200182805461086790612262565b80156108b45780601f10610889576101008083540402835291602001916108b4565b820191906000526020600020905b81548152906001019060200180831161089757829003601f168201915b505050505081525050815260200190600101906107b2565b50505050905090565b600181815481106108e557600080fd5b906000526020600020016000915054906101000a900473ffffffffffffffffffffffffffffffffffffffff1681565b60606000803373ffffffffffffffffffffffffffffffffffffffff1673ffffffffffffffffffffffffffffffffffffffff1681526020019081526020016000206008018054806020026020016040519081016040528092919081815260200182805480156109d757602002820191906000526020600020905b8160009054906101000a900473ffffffffffffffffffffffffffffffffffffffff1673ffffffffffffffffffffffffffffffffffffffff168152602001906001019080831161098d575b5050505050905090565b3373ffffffffffffffffffffffffffffffffffffffff166000808973ffffffffffffffffffffffffffffffffffffffff1673ffffffffffffffffffffffffffffffffffffffff16815260200190815260200160002060000160009054906101000a900473ffffffffffffffffffffffffffffffffffffffff1673ffffffffffffffffffffffffffffffffffffffff1603610ab0576040517f08c379a0000000000000000000000000000000000000000000000000000000008152600401610aa7906122df565b60405180910390fd5b6001879080600181540180825580915050600190039060005260206000200160009091909190916101000a81548173ffffffffffffffffffffffffffffffffffffffff021916908373ffffffffffffffffffffffffffffffffffffffff1602179055506040518061016001604052803373ffffffffffffffffffffffffffffffffffffffff168152602001878152602001868152602001858152602001848152602001838152602001828152602001600067ffffffffffffffff811115610b7a57610b79611acd565b5b604051908082528060200260200182016040528015610ba85781602001602082028036833780820191505090505b508152602001600067ffffffffffffffff811115610bc957610bc8611acd565b5b604051908082528060200260200182016040528015610bf75781602001602082028036833780820191505090505b5081526020016000815260200160008152506000803373ffffffffffffffffffffffffffffffffffffffff1673ffffffffffffffffffffffffffffffffffffffff16815260200190815260200160002060008201518160000160006101000a81548173ffffffffffffffffffffffffffffffffffffffff021916908373ffffffffffffffffffffffffffffffffffffffff1602179055506020820151816001019081610ca391906124ab565b5060408201518160020155606082015181600301556080820151816004015560a0820151816005015560c0820151816006015560e0820151816007019080519060200190610cf2929190611576565b50610100820151816008019080519060200190610d10929190611576565b50610120820151816009015561014082015181600a015590505050505050505050565b610d3b611600565b60008060003373ffffffffffffffffffffffffffffffffffffffff1673ffffffffffffffffffffffffffffffffffffffff16815260200190815260200160002060000160009054906101000a900473ffffffffffffffffffffffffffffffffffffffff16604051602001610daf91906125c5565b6040516020818303038152906040525111610dff576040517f08c379a0000000000000000000000000000000000000000000000000000000008152600401610df69061262c565b60405180910390fd5b6000808373ffffffffffffffffffffffffffffffffffffffff1673ffffffffffffffffffffffffffffffffffffffff168152602001908152602001600020604051806101600160405290816000820160009054906101000a900473ffffffffffffffffffffffffffffffffffffffff1673ffffffffffffffffffffffffffffffffffffffff1673ffffffffffffffffffffffffffffffffffffffff168152602001600182018054610eaf90612262565b80601f0160208091040260200160405190810160405280929190818152602001828054610edb90612262565b8015610f285780601f10610efd57610100808354040283529160200191610f28565b820191906000526020600020905b815481529060010190602001808311610f0b57829003601f168201915b50505050508152602001600282015481526020016003820154815260200160048201548152602001600582015481526020016006820154815260200160078201805480602002602001604051908101604052809291908181526020018280548015610fe857602002820191906000526020600020905b8160009054906101000a900473ffffffffffffffffffffffffffffffffffffffff1673ffffffffffffffffffffffffffffffffffffffff1681526020019060010190808311610f9e575b505050505081526020016008820180548060200260200160405190810160405280929190818152602001828054801561107657602002820191906000526020600020905b8160009054906101000a900473ffffffffffffffffffffffffffffffffffffffff1673ffffffffffffffffffffffffffffffffffffffff168152602001906001019080831161102c575b5050505050815260200160098201548152602001600a820154815250509050919050565b60008073ffffffffffffffffffffffffffffffffffffffff166000803373ffffffffffffffffffffffffffffffffffffffff1673ffffffffffffffffffffffffffffffffffffffff16815260200190815260200160002060000160009054906101000a900473ffffffffffffffffffffffffffffffffffffffff1673ffffffffffffffffffffffffffffffffffffffff160361116b576040517f08c379a00000000000000000000000000000000000000000000000000000000081526004016111629061262c565b60405180910390fd5b6001905090565b3373ffffffffffffffffffffffffffffffffffffffff166000803373ffffffffffffffffffffffffffffffffffffffff1673ffffffffffffffffffffffffffffffffffffffff16815260200190815260200160002060000160009054906101000a900473ffffffffffffffffffffffffffffffffffffffff1673ffffffffffffffffffffffffffffffffffffffff1614611241576040517f08c379a000000000000000000000000000000000000000000000000000000000815260040161123890612213565b60405180910390fd5b600260405180604001604052803373ffffffffffffffffffffffffffffffffffffffff16815260200183815250908060018154018082558091505060019003906000526020600020906002020160009091909190915060008201518160000160006101000a81548173ffffffffffffffffffffffffffffffffffffffff021916908373ffffffffffffffffffffffffffffffffffffffff16021790555060208201518160010190816112f391906124ab565b50505050565b3373ffffffffffffffffffffffffffffffffffffffff166000803373ffffffffffffffffffffffffffffffffffffffff1673ffffffffffffffffffffffffffffffffffffffff16815260200190815260200160002060000160009054906101000a900473ffffffffffffffffffffffffffffffffffffffff1673ffffffffffffffffffffffffffffffffffffffff16146113c8576040517f08c379a00000000000000000000000000000000000000000000000000000000081526004016113bf90612213565b60405180910390fd5b806003836040516113d99190612688565b908152602001604051809103902090816113f391906124ab565b505050565b6060600180548060200260200160405190810160405280929190818152602001828054801561147c57602002820191906000526020600020905b8160009054906101000a900473ffffffffffffffffffffffffffffffffffffffff1673ffffffffffffffffffffffffffffffffffffffff1681526020019060010190808311611432575b5050505050905090565b6000806000808573ffffffffffffffffffffffffffffffffffffffff1673ffffffffffffffffffffffffffffffffffffffff168152602001908152602001600020600801905060005b8180549050811015611569578373ffffffffffffffffffffffffffffffffffffffff168282815481106115055761150461269f565b5b9060005260206000200160009054906101000a900473ffffffffffffffffffffffffffffffffffffffff1673ffffffffffffffffffffffffffffffffffffffff160361155657600192505050611570565b80806115619061217f565b9150506114cf565b5060009150505b92915050565b8280548282559060005260206000209081019282156115ef579160200282015b828111156115ee5782518260006101000a81548173ffffffffffffffffffffffffffffffffffffffff021916908373ffffffffffffffffffffffffffffffffffffffff16021790555091602001919060010190611596565b5b5090506115fc919061167f565b5090565b604051806101600160405280600073ffffffffffffffffffffffffffffffffffffffff168152602001606081526020016000801916815260200160008019168152602001600080191681526020016000801916815260200160008019168152602001606081526020016060815260200160008152602001600081525090565b5b80821115611698576000816000905550600101611680565b5090565b6000604051905090565b600080fd5b600080fd5b600073ffffffffffffffffffffffffffffffffffffffff82169050919050565b60006116db826116b0565b9050919050565b6116eb816116d0565b81146116f657600080fd5b50565b600081359050611708816116e2565b92915050565b60008060408385031215611725576117246116a6565b5b6000611733858286016116f9565b9250506020611744858286016116f9565b9150509250929050565b600060208284031215611764576117636116a6565b5b6000611772848285016116f9565b91505092915050565b6000819050919050565b61178e8161177b565b82525050565b60006020820190506117a96000830184611785565b92915050565b600081519050919050565b600082825260208201905092915050565b6000819050602082019050919050565b6117e4816116d0565b82525050565b600081519050919050565b600082825260208201905092915050565b60005b83811015611824578082015181840152602081019050611809565b60008484015250505050565b6000601f19601f8301169050919050565b600061184c826117ea565b61185681856117f5565b9350611866818560208601611806565b61186f81611830565b840191505092915050565b600060408301600083015161189260008601826117db565b50602083015184820360208601526118aa8282611841565b9150508091505092915050565b60006118c3838361187a565b905092915050565b6000602082019050919050565b60006118e3826117af565b6118ed81856117ba565b9350836020820285016118ff856117cb565b8060005b8581101561193b578484038952815161191c85826118b7565b9450611927836118cb565b925060208a01995050600181019050611903565b50829750879550505050505092915050565b6000602082019050818103600083015261196781846118d8565b905092915050565b6119788161177b565b811461198357600080fd5b50565b6000813590506119958161196f565b92915050565b6000602082840312156119b1576119b06116a6565b5b60006119bf84828501611986565b91505092915050565b6119d1816116d0565b82525050565b60006020820190506119ec60008301846119c8565b92915050565b600081519050919050565b600082825260208201905092915050565b6000819050602082019050919050565b6000611a2a83836117db565b60208301905092915050565b6000602082019050919050565b6000611a4e826119f2565b611a5881856119fd565b9350611a6383611a0e565b8060005b83811015611a94578151611a7b8882611a1e565b9750611a8683611a36565b925050600181019050611a67565b5085935050505092915050565b60006020820190508181036000830152611abb8184611a43565b905092915050565b600080fd5b600080fd5b7f4e487b7100000000000000000000000000000000000000000000000000000000600052604160045260246000fd5b611b0582611830565b810181811067ffffffffffffffff82111715611b2457611b23611acd565b5b80604052505050565b6000611b3761169c565b9050611b438282611afc565b919050565b600067ffffffffffffffff821115611b6357611b62611acd565b5b611b6c82611830565b9050602081019050919050565b82818337600083830152505050565b6000611b9b611b9684611b48565b611b2d565b905082815260208101848484011115611bb757611bb6611ac8565b5b611bc2848285611b79565b509392505050565b600082601f830112611bdf57611bde611ac3565b5b8135611bef848260208601611b88565b91505092915050565b6000819050919050565b611c0b81611bf8565b8114611c1657600080fd5b50565b600081359050611c2881611c02565b92915050565b600080600080600080600060e0888a031215611c4d57611c4c6116a6565b5b6000611c5b8a828b016116f9565b975050602088013567ffffffffffffffff811115611c7c57611c7b6116ab565b5b611c888a828b01611bca565b9650506040611c998a828b01611c19565b9550506060611caa8a828b01611c19565b9450506080611cbb8a828b01611c19565b93505060a0611ccc8a828b01611c19565b92505060c0611cdd8a828b01611c19565b91505092959891949750929550565b611cf581611bf8565b82525050565b600082825260208201905092915050565b6000611d17826119f2565b611d218185611cfb565b9350611d2c83611a0e565b8060005b83811015611d5d578151611d448882611a1e565b9750611d4f83611a36565b925050600181019050611d30565b5085935050505092915050565b611d738161177b565b82525050565b600061016083016000830151611d9260008601826117db565b5060208301518482036020860152611daa8282611841565b9150506040830151611dbf6040860182611cec565b506060830151611dd26060860182611cec565b506080830151611de56080860182611cec565b5060a0830151611df860a0860182611cec565b5060c0830151611e0b60c0860182611cec565b5060e083015184820360e0860152611e238282611d0c565b915050610100830151848203610100860152611e3f8282611d0c565b915050610120830151611e56610120860182611d6a565b50610140830151611e6b610140860182611d6a565b508091505092915050565b60006020820190508181036000830152611e908184611d79565b905092915050565b60008115159050919050565b611ead81611e98565b82525050565b6000602082019050611ec86000830184611ea4565b92915050565b600060208284031215611ee457611ee36116a6565b5b600082013567ffffffffffffffff811115611f0257611f016116ab565b5b611f0e84828501611bca565b91505092915050565b60008060408385031215611f2e57611f2d6116a6565b5b600083013567ffffffffffffffff811115611f4c57611f4b6116ab565b5b611f5885828601611bca565b925050602083013567ffffffffffffffff811115611f7957611f786116ab565b5b611f8585828601611bca565b9150509250929050565b600082825260208201905092915050565b7f43616e6e6f7420666f6c6c6f7720796f757273656c6600000000000000000000600082015250565b6000611fd6601683611f8f565b9150611fe182611fa0565b602082019050919050565b6000602082019050818103600083015261200581611fc9565b9050919050565b7f43757272656e74207573657220646f6573206e6f742065786973740000000000600082015250565b6000612042601b83611f8f565b915061204d8261200c565b602082019050919050565b6000602082019050818103600083015261207181612035565b9050919050565b7f5573657220746f20666f6c6c6f7720646f6573206e6f74206578697374000000600082015250565b60006120ae601d83611f8f565b91506120b982612078565b602082019050919050565b600060208201905081810360008301526120dd816120a1565b9050919050565b7f416c726561647920666f6c6c6f77696e67207468697320757365720000000000600082015250565b600061211a601b83611f8f565b9150612125826120e4565b602082019050919050565b600060208201905081810360008301526121498161210d565b9050919050565b7f4e487b7100000000000000000000000000000000000000000000000000000000600052601160045260246000fd5b600061218a8261177b565b91507fffffffffffffffffffffffffffffffffffffffffffffffffffffffffffffffff82036121bc576121bb612150565b5b600182019050919050565b7f5573657220646f65736e27742065786973740000000000000000000000000000600082015250565b60006121fd601283611f8f565b9150612208826121c7565b602082019050919050565b6000602082019050818103600083015261222c816121f0565b9050919050565b7f4e487b7100000000000000000000000000000000000000000000000000000000600052602260045260246000fd5b6000600282049050600182168061227a57607f821691505b60208210810361228d5761228c612233565b5b50919050565b7f5573657220616c72656164792072656769737465726564000000000000000000600082015250565b60006122c9601783611f8f565b91506122d482612293565b602082019050919050565b600060208201905081810360008301526122f8816122bc565b9050919050565b60008190508160005260206000209050919050565b60006020601f8301049050919050565b600082821b905092915050565b6000600883026123617fffffffffffffffffffffffffffffffffffffffffffffffffffffffffffffffff82612324565b61236b8683612324565b95508019841693508086168417925050509392505050565b6000819050919050565b60006123a86123a361239e8461177b565b612383565b61177b565b9050919050565b6000819050919050565b6123c28361238d565b6123d66123ce826123af565b848454612331565b825550505050565b600090565b6123eb6123de565b6123f68184846123b9565b505050565b5b8181101561241a5761240f6000826123e3565b6001810190506123fc565b5050565b601f82111561245f57612430816122ff565b61243984612314565b81016020851015612448578190505b61245c61245485612314565b8301826123fb565b50505b505050565b600082821c905092915050565b600061248260001984600802612464565b1980831691505092915050565b600061249b8383612471565b9150826002028217905092915050565b6124b4826117ea565b67ffffffffffffffff8111156124cd576124cc611acd565b5b6124d78254612262565b6124e282828561241e565b600060209050601f8311600181146125155760008415612503578287015190505b61250d858261248f565b865550612575565b601f198416612523866122ff565b60005b8281101561254b57848901518255600182019150602085019450602081019050612526565b868310156125685784890151612564601f891682612471565b8355505b6001600288020188555050505b505050505050565b60008160601b9050919050565b60006125958261257d565b9050919050565b60006125a78261258a565b9050919050565b6125bf6125ba826116d0565b61259c565b82525050565b60006125d182846125ae565b60148201915081905092915050565b7f7573657220646f65736e27742065786973740000000000000000000000000000600082015250565b6000612616601283611f8f565b9150612621826125e0565b602082019050919050565b6000602082019050818103600083015261264581612609565b9050919050565b600081905092915050565b6000612662826117ea565b61266c818561264c565b935061267c818560208601611806565b80840191505092915050565b60006126948284612657565b915081905092915050565b7f4e487b7100000000000000000000000000000000000000000000000000000000600052603260045260246000fdfea2646970667358221220d29f01b4b7960c3764c71e5f1407e1a31572d8100f2c3008ccfb4f390167fb1c64736f6c63430008120033",
  "immutableReferences": {},
  "source": "// SPDX-License-Identifier: MIT\r\npragma solidity ^0.8.13;\r\n\r\ncontract SocialNetwork {\r\n    //////////////////////////////////////////////////////////////////////////////////////////////////////////////////////\r\n    //  User Authentication Section                                                                                     //\r\n    //////////////////////////////////////////////////////////////////////////////////////////////////////////////////////\r\n\r\n    struct userData {\r\n        address userAddress;\r\n        string imageCID;\r\n        bytes32 userName;\r\n        bytes32 firstName;\r\n        bytes32 lastName;\r\n        bytes32 dateOfBirth;\r\n        bytes32 status;\r\n        address[] followers;\r\n        address[] following;\r\n        uint followersCount;\r\n        uint followingCount;\r\n    }\r\n\r\n    mapping(address => userData) accounts;\r\n\r\n    address[] public userAddresses;\r\n\r\n    function registerUser(\r\n        address _userAddress,\r\n        string memory _imageCID,\r\n        bytes32 _userName,\r\n        bytes32 _firstName,\r\n        bytes32 _lastName,\r\n        bytes32 _dateOfBirth,\r\n        bytes32 _status\r\n    ) public {\r\n        require(\r\n            accounts[_userAddress].userAddress != msg.sender,\r\n            \"User already registered\"\r\n        );\r\n        userAddresses.push(_userAddress);\r\n        accounts[msg.sender] = userData({\r\n            userAddress: msg.sender,\r\n            imageCID: _imageCID,\r\n            userName: _userName,\r\n            firstName: _firstName,\r\n            lastName: _lastName,\r\n            dateOfBirth: _dateOfBirth,\r\n            status: _status,\r\n            followers: new address[](0),\r\n            following: new address[](0),\r\n            followersCount: 0,\r\n            followingCount: 0\r\n        });\r\n    }\r\n\r\n    function getAllUsers() public view returns (address[] memory) {\r\n        return userAddresses;\r\n    }\r\n\r\n    function getUser(\r\n        address userAddress\r\n    ) public view returns (userData memory) {\r\n        require(\r\n            abi.encodePacked(accounts[msg.sender].userAddress).length > 0,\r\n            \"user doesn't exist\"\r\n        );\r\n        return accounts[userAddress];\r\n    }\r\n\r\n    function loginUser() public view returns (bool) {\r\n        require(\r\n            accounts[msg.sender].userAddress != address(0),\r\n            \"user doesn't exist\"\r\n        );\r\n        return true;\r\n    }\r\n\r\n    //////////////////////////////////////////////////////////////////////////////////////////////////////////////////////\r\n    //  Post and Comment Section                                                                                        //\r\n    //////////////////////////////////////////////////////////////////////////////////////////////////////////////////////\r\n\r\n    struct post {\r\n        address userAddress;\r\n        string postCID;\r\n    }\r\n\r\n    // string[] postList;\r\n    // mapping(string => post) postData;\r\n\r\n    // function addPost(string memory _PostCID) public {\r\n    //     require(\r\n    //         accounts[msg.sender].userAddress == msg.sender,\r\n    //         \"User doesn't exist\"\r\n    //     );\r\n    //     postList.push(_PostCID);\r\n    //     postData[_PostCID] = post({\r\n    //         userAddress: msg.sender,\r\n    //         postCID: _PostCID,\r\n    //         commentCID: \"\"\r\n    //     });\r\n    // }\r\n\r\n    post[] allPostData;\r\n    mapping(string => string) allComments;\r\n\r\n    function addPost(string memory _PostCID) public {\r\n        require(\r\n            accounts[msg.sender].userAddress == msg.sender,\r\n            \"User doesn't exist\"\r\n        );\r\n        allPostData.push(post({userAddress: msg.sender, postCID: _PostCID}));\r\n    }\r\n\r\n    function addComment(\r\n        string memory _postCID,\r\n        string memory _CommentCID\r\n    ) public {\r\n        require(\r\n            accounts[msg.sender].userAddress == msg.sender,\r\n            \"User doesn't exist\"\r\n        );\r\n        allComments[_postCID] = _CommentCID;\r\n    }\r\n\r\n    function getPosts() public view returns (post[] memory) {\r\n        require(\r\n            accounts[msg.sender].userAddress == msg.sender,\r\n            \"User doesn't exist\"\r\n        );\r\n        return allPostData;\r\n    }\r\n\r\n    function followUser(address _currentUser, address _userToFollow) public {\r\n        require(_currentUser != _userToFollow, \"Cannot follow yourself\");\r\n\r\n        // Ensure both users exist\r\n        require(\r\n            accounts[_currentUser].userAddress != address(0),\r\n            \"Current user does not exist\"\r\n        );\r\n        require(\r\n            accounts[_userToFollow].userAddress != address(0),\r\n            \"User to follow does not exist\"\r\n        );\r\n\r\n        // Check if the current user is already following the user to follow\r\n        require(\r\n            !isFollowing(_currentUser, _userToFollow),\r\n            \"Already following this user\"\r\n        );\r\n\r\n        // Add the user to follow to the following list of the current user\r\n        accounts[_currentUser].following.push(_userToFollow);\r\n        accounts[_currentUser].followingCount++;\r\n\r\n        // Add the current user to the followers list of the user to follow\r\n        accounts[_userToFollow].followers.push(_currentUser);\r\n        accounts[_userToFollow].followersCount++;\r\n    }\r\n\r\n    // Function to check if a user is already following another user\r\n    function isFollowing(\r\n        address _currentUser,\r\n        address _userToFollow\r\n    ) internal view returns (bool) {\r\n        address[] storage following = accounts[_currentUser].following;\r\n        for (uint i = 0; i < following.length; i++) {\r\n            if (following[i] == _userToFollow) {\r\n                return true;\r\n            }\r\n        }\r\n        return false;\r\n    }\r\n\r\n    function getFollowedUsers() public view returns (address[] memory) {\r\n        return accounts[msg.sender].following;\r\n    }\r\n\r\n    function getFollowersCount(address userAddress) public view returns (uint) {\r\n        return accounts[userAddress].followersCount;\r\n    }\r\n}\r\n",
  "sourcePath": "C:\\Users\\abhis\\OneDrive\\Documents\\Main Project\\MP\\DPOSN\\truffle\\contracts\\SocialNetwork.sol",
  "compiler": {
    "name": "solc",
    "version": "0.8.18+commit.87f61d96.Emscripten.clang"
  },
  "schemaVersion": "3.4.16",
  "updatedAt": "2024-03-29T13:47:03.096Z",
  "networkType": "ethereum",
  "devdoc": {
    "kind": "dev",
    "methods": {},
    "version": 1
  },
  "userdoc": {
    "kind": "user",
    "methods": {},
    "version": 1
  }
}