{
  "contractName": "SocialNetwork",
  "abi": [
    {
      "inputs": [
        {
          "internalType": "uint256",
          "name": "",
          "type": "uint256"
        }
      ],
      "name": "userAddresses",
      "outputs": [
        {
          "internalType": "address",
          "name": "",
          "type": "address"
        }
      ],
      "stateMutability": "view",
      "type": "function",
      "constant": true
    },
    {
      "inputs": [
        {
          "internalType": "address",
          "name": "_userAddress",
          "type": "address"
        },
        {
          "internalType": "string",
          "name": "_imageCID",
          "type": "string"
        },
        {
          "internalType": "bytes32",
          "name": "_userName",
          "type": "bytes32"
        },
        {
          "internalType": "bytes32",
          "name": "_firstName",
          "type": "bytes32"
        },
        {
          "internalType": "bytes32",
          "name": "_lastName",
          "type": "bytes32"
        },
        {
          "internalType": "bytes32",
          "name": "_dateOfBirth",
          "type": "bytes32"
        },
        {
          "internalType": "bytes32",
          "name": "_status",
          "type": "bytes32"
        },
        {
          "internalType": "string",
          "name": "_createdAt",
          "type": "string"
        }
      ],
      "name": "registerUser",
      "outputs": [],
      "stateMutability": "nonpayable",
      "type": "function"
    },
    {
      "inputs": [
        {
          "internalType": "address",
          "name": "_userAddress",
          "type": "address"
        },
        {
          "internalType": "string",
          "name": "_imageCID",
          "type": "string"
        },
        {
          "internalType": "bytes32",
          "name": "_userName",
          "type": "bytes32"
        },
        {
          "internalType": "bytes32",
          "name": "_firstName",
          "type": "bytes32"
        },
        {
          "internalType": "bytes32",
          "name": "_lastName",
          "type": "bytes32"
        },
        {
          "internalType": "bytes32",
          "name": "_dateOfBirth",
          "type": "bytes32"
        },
        {
          "internalType": "bytes32",
          "name": "_status",
          "type": "bytes32"
        }
      ],
      "name": "updateUser",
      "outputs": [],
      "stateMutability": "nonpayable",
      "type": "function"
    },
    {
      "inputs": [],
      "name": "getAllUsers",
      "outputs": [
        {
          "internalType": "address[]",
          "name": "",
          "type": "address[]"
        }
      ],
      "stateMutability": "view",
      "type": "function",
      "constant": true
    },
    {
      "inputs": [
        {
          "internalType": "address",
          "name": "userAddress",
          "type": "address"
        }
      ],
      "name": "getUser",
      "outputs": [
        {
          "components": [
            {
              "internalType": "address",
              "name": "userAddress",
              "type": "address"
            },
            {
              "internalType": "string",
              "name": "imageCID",
              "type": "string"
            },
            {
              "internalType": "bytes32",
              "name": "userName",
              "type": "bytes32"
            },
            {
              "internalType": "bytes32",
              "name": "firstName",
              "type": "bytes32"
            },
            {
              "internalType": "bytes32",
              "name": "lastName",
              "type": "bytes32"
            },
            {
              "internalType": "bytes32",
              "name": "dateOfBirth",
              "type": "bytes32"
            },
            {
              "internalType": "bytes32",
              "name": "status",
              "type": "bytes32"
            },
            {
              "internalType": "string",
              "name": "createdAt",
              "type": "string"
            },
            {
              "internalType": "address[]",
              "name": "followers",
              "type": "address[]"
            },
            {
              "internalType": "address[]",
              "name": "following",
              "type": "address[]"
            },
            {
              "internalType": "uint256",
              "name": "followersCount",
              "type": "uint256"
            },
            {
              "internalType": "uint256",
              "name": "followingCount",
              "type": "uint256"
            }
          ],
          "internalType": "struct SocialNetwork.userData",
          "name": "",
          "type": "tuple"
        }
      ],
      "stateMutability": "view",
      "type": "function",
      "constant": true
    },
    {
      "inputs": [],
      "name": "loginUser",
      "outputs": [
        {
          "internalType": "bool",
          "name": "",
          "type": "bool"
        }
      ],
      "stateMutability": "view",
      "type": "function",
      "constant": true
    },
    {
      "inputs": [
        {
          "internalType": "string",
          "name": "_PostCID",
          "type": "string"
        }
      ],
      "name": "addPost",
      "outputs": [],
      "stateMutability": "nonpayable",
      "type": "function"
    },
    {
      "inputs": [],
      "name": "getPosts",
      "outputs": [
        {
          "components": [
            {
              "internalType": "address",
              "name": "userAddress",
              "type": "address"
            },
            {
              "internalType": "string",
              "name": "postCID",
              "type": "string"
            }
          ],
          "internalType": "struct SocialNetwork.post[]",
          "name": "",
          "type": "tuple[]"
        }
      ],
      "stateMutability": "view",
      "type": "function",
      "constant": true
    },
    {
      "inputs": [
        {
          "internalType": "string",
          "name": "_postCID",
          "type": "string"
        },
        {
          "internalType": "string",
          "name": "_CommentCID",
          "type": "string"
        }
      ],
      "name": "addComment",
      "outputs": [],
      "stateMutability": "nonpayable",
      "type": "function"
    },
    {
      "inputs": [
        {
          "internalType": "string",
          "name": "_postCID",
          "type": "string"
        }
      ],
      "name": "getComment",
      "outputs": [
        {
          "internalType": "string",
          "name": "",
          "type": "string"
        }
      ],
      "stateMutability": "view",
      "type": "function",
      "constant": true
    },
    {
      "inputs": [
        {
          "internalType": "string",
          "name": "_postCID",
          "type": "string"
        },
        {
          "internalType": "string",
          "name": "_likesCID",
          "type": "string"
        }
      ],
      "name": "addLikes",
      "outputs": [],
      "stateMutability": "nonpayable",
      "type": "function"
    },
    {
      "inputs": [
        {
          "internalType": "string",
          "name": "_postCID",
          "type": "string"
        }
      ],
      "name": "getLikes",
      "outputs": [
        {
          "internalType": "string",
          "name": "",
          "type": "string"
        }
      ],
      "stateMutability": "view",
      "type": "function",
      "constant": true
    },
    {
      "inputs": [
        {
          "internalType": "string",
          "name": "_postCID",
          "type": "string"
        },
        {
          "internalType": "string",
          "name": "_reportCID",
          "type": "string"
        }
      ],
      "name": "addReports",
      "outputs": [],
      "stateMutability": "nonpayable",
      "type": "function"
    },
    {
      "inputs": [
        {
          "internalType": "string",
          "name": "_postCID",
          "type": "string"
        }
      ],
      "name": "getReports",
      "outputs": [
        {
          "internalType": "string",
          "name": "",
          "type": "string"
        }
      ],
      "stateMutability": "view",
      "type": "function",
      "constant": true
    },
    {
      "inputs": [
        {
          "internalType": "address",
          "name": "_currentUser",
          "type": "address"
        },
        {
          "internalType": "address",
          "name": "_userToFollow",
          "type": "address"
        }
      ],
      "name": "followUser",
      "outputs": [],
      "stateMutability": "nonpayable",
      "type": "function"
    },
    {
      "inputs": [],
      "name": "getFollowedUsers",
      "outputs": [
        {
          "internalType": "address[]",
          "name": "",
          "type": "address[]"
        }
      ],
      "stateMutability": "view",
      "type": "function",
      "constant": true
    },
    {
      "inputs": [
        {
          "internalType": "address",
          "name": "userAddress",
          "type": "address"
        }
      ],
      "name": "getFollowersCount",
      "outputs": [
        {
          "internalType": "uint256",
          "name": "",
          "type": "uint256"
        }
      ],
      "stateMutability": "view",
      "type": "function",
      "constant": true
    },
    {
      "inputs": [
        {
          "internalType": "address",
          "name": "sender",
          "type": "address"
        },
        {
          "internalType": "address",
          "name": "receiver",
          "type": "address"
        },
        {
          "internalType": "string",
          "name": "chatCID",
          "type": "string"
        }
      ],
      "name": "sendMessage",
      "outputs": [],
      "stateMutability": "nonpayable",
      "type": "function"
    },
    {
      "inputs": [
        {
          "internalType": "address",
          "name": "sender",
          "type": "address"
        },
        {
          "internalType": "address",
          "name": "receiver",
          "type": "address"
        }
      ],
      "name": "getMessage",
      "outputs": [
        {
          "internalType": "string",
          "name": "",
          "type": "string"
        }
      ],
      "stateMutability": "view",
      "type": "function",
      "constant": true
    }
  ],
  "bytecode": "0x608060405234801561001057600080fd5b50613d37806100206000396000f3fe608060405234801561001057600080fd5b50600436106101215760003560e01c80639a7eca69116100ad578063ae5ff90511610071578063ae5ff9051461032c578063b88e318d14610348578063b958adeb14610364578063cbbaa58914610380578063e2842d79146103b057610121565b80639a7eca691461028a5780639e5019ef146102a6578063a19ed686146102c2578063a39b06e3146102e0578063a63228191461031057610121565b806341f3004a116100f457806341f3004a146101be578063502c9bd5146101dc57806364160a6b1461020c5780636f77926b1461022a57806374bfb0031461025a57610121565b80630c8273e6146101265780631a68638a14610142578063208d40a21461017257806325e9ccf91461018e575b600080fd5b610140600480360381019061013b91906129fb565b6103ce565b005b61015c60048036038101906101579190612b81565b61081c565b6040516101699190612c49565b60405180910390f35b61018c60048036038101906101879190612c6b565b61099b565b005b6101a860048036038101906101a39190612ce3565b610a9a565b6040516101b59190612d29565b60405180910390f35b6101c6610ae5565b6040516101d39190612e9c565b60405180910390f35b6101f660048036038101906101f19190612eea565b610cfb565b6040516102039190612f26565b60405180910390f35b610214610d3a565b6040516102219190612ff0565b60405180910390f35b610244600480360381019061023f9190612ce3565b610e07565b60405161025191906131c2565b60405180910390f35b610274600480360381019061026f9190612b81565b611200565b6040516102819190612c49565b60405180910390f35b6102a4600480360381019061029f9190613210565b6113ff565b005b6102c060048036038101906102bb9190612c6b565b61176f565b005b6102ca61186e565b6040516102d79190613319565b60405180910390f35b6102fa60048036038101906102f591906129fb565b611946565b6040516103079190612c49565b60405180910390f35b61032a60048036038101906103259190612b81565b611b24565b005b61034660048036038101906103419190612c6b565b611cab565b005b610362600480360381019061035d9190613334565b611daa565b005b61037e600480360381019061037991906133a3565b611f92565b005b61039a60048036038101906103959190612b81565b6124df565b6040516103a79190612c49565b60405180910390f35b6103b86126de565b6040516103c59190612ff0565b60405180910390f35b8073ffffffffffffffffffffffffffffffffffffffff168273ffffffffffffffffffffffffffffffffffffffff160361043c576040517f08c379a0000000000000000000000000000000000000000000000000000000008152600401610433906134ad565b60405180910390fd5b600073ffffffffffffffffffffffffffffffffffffffff166000808473ffffffffffffffffffffffffffffffffffffffff1673ffffffffffffffffffffffffffffffffffffffff16815260200190815260200160002060000160009054906101000a900473ffffffffffffffffffffffffffffffffffffffff1673ffffffffffffffffffffffffffffffffffffffff160361050c576040517f08c379a000000000000000000000000000000000000000000000000000000000815260040161050390613519565b60405180910390fd5b600073ffffffffffffffffffffffffffffffffffffffff166000808373ffffffffffffffffffffffffffffffffffffffff1673ffffffffffffffffffffffffffffffffffffffff16815260200190815260200160002060000160009054906101000a900473ffffffffffffffffffffffffffffffffffffffff1673ffffffffffffffffffffffffffffffffffffffff16036105dc576040517f08c379a00000000000000000000000000000000000000000000000000000000081526004016105d390613585565b60405180910390fd5b6105e6828261276c565b15610626576040517f08c379a000000000000000000000000000000000000000000000000000000000815260040161061d906135f1565b60405180910390fd5b6000808373ffffffffffffffffffffffffffffffffffffffff1673ffffffffffffffffffffffffffffffffffffffff168152602001908152602001600020600901819080600181540180825580915050600190039060005260206000200160009091909190916101000a81548173ffffffffffffffffffffffffffffffffffffffff021916908373ffffffffffffffffffffffffffffffffffffffff1602179055506000808373ffffffffffffffffffffffffffffffffffffffff1673ffffffffffffffffffffffffffffffffffffffff168152602001908152602001600020600b01600081548092919061071a90613640565b91905055506000808273ffffffffffffffffffffffffffffffffffffffff1673ffffffffffffffffffffffffffffffffffffffff168152602001908152602001600020600801829080600181540180825580915050600190039060005260206000200160009091909190916101000a81548173ffffffffffffffffffffffffffffffffffffffff021916908373ffffffffffffffffffffffffffffffffffffffff1602179055506000808273ffffffffffffffffffffffffffffffffffffffff1673ffffffffffffffffffffffffffffffffffffffff168152602001908152602001600020600a01600081548092919061081390613640565b91905055505050565b60603373ffffffffffffffffffffffffffffffffffffffff166000803373ffffffffffffffffffffffffffffffffffffffff1673ffffffffffffffffffffffffffffffffffffffff16815260200190815260200160002060000160009054906101000a900473ffffffffffffffffffffffffffffffffffffffff1673ffffffffffffffffffffffffffffffffffffffff16146108ed576040517f08c379a00000000000000000000000000000000000000000000000000000000081526004016108e4906136d4565b60405180910390fd5b6005826040516108fd9190613730565b9081526020016040518091039020805461091690613776565b80601f016020809104026020016040519081016040528092919081815260200182805461094290613776565b801561098f5780601f106109645761010080835404028352916020019161098f565b820191906000526020600020905b81548152906001019060200180831161097257829003601f168201915b50505050509050919050565b3373ffffffffffffffffffffffffffffffffffffffff166000803373ffffffffffffffffffffffffffffffffffffffff1673ffffffffffffffffffffffffffffffffffffffff16815260200190815260200160002060000160009054906101000a900473ffffffffffffffffffffffffffffffffffffffff1673ffffffffffffffffffffffffffffffffffffffff1614610a6a576040517f08c379a0000000000000000000000000000000000000000000000000000000008152600401610a61906136d4565b60405180910390fd5b80600583604051610a7b9190613730565b90815260200160405180910390209081610a959190613953565b505050565b60008060008373ffffffffffffffffffffffffffffffffffffffff1673ffffffffffffffffffffffffffffffffffffffff168152602001908152602001600020600a01549050919050565b60603373ffffffffffffffffffffffffffffffffffffffff166000803373ffffffffffffffffffffffffffffffffffffffff1673ffffffffffffffffffffffffffffffffffffffff16815260200190815260200160002060000160009054906101000a900473ffffffffffffffffffffffffffffffffffffffff1673ffffffffffffffffffffffffffffffffffffffff1614610bb6576040517f08c379a0000000000000000000000000000000000000000000000000000000008152600401610bad906136d4565b60405180910390fd5b6002805480602002602001604051908101604052809291908181526020016000905b82821015610cf257838290600052602060002090600202016040518060400160405290816000820160009054906101000a900473ffffffffffffffffffffffffffffffffffffffff1673ffffffffffffffffffffffffffffffffffffffff1673ffffffffffffffffffffffffffffffffffffffff168152602001600182018054610c6190613776565b80601f0160208091040260200160405190810160405280929190818152602001828054610c8d90613776565b8015610cda5780601f10610caf57610100808354040283529160200191610cda565b820191906000526020600020905b815481529060010190602001808311610cbd57829003601f168201915b50505050508152505081526020019060010190610bd8565b50505050905090565b60018181548110610d0b57600080fd5b906000526020600020016000915054906101000a900473ffffffffffffffffffffffffffffffffffffffff1681565b60606000803373ffffffffffffffffffffffffffffffffffffffff1673ffffffffffffffffffffffffffffffffffffffff168152602001908152602001600020600901805480602002602001604051908101604052809291908181526020018280548015610dfd57602002820191906000526020600020905b8160009054906101000a900473ffffffffffffffffffffffffffffffffffffffff1673ffffffffffffffffffffffffffffffffffffffff1681526020019060010190808311610db3575b5050505050905090565b610e0f61285c565b60008060003373ffffffffffffffffffffffffffffffffffffffff1673ffffffffffffffffffffffffffffffffffffffff16815260200190815260200160002060000160009054906101000a900473ffffffffffffffffffffffffffffffffffffffff16604051602001610e839190613a6d565b6040516020818303038152906040525111610ed3576040517f08c379a0000000000000000000000000000000000000000000000000000000008152600401610eca90613ad4565b60405180910390fd5b6000808373ffffffffffffffffffffffffffffffffffffffff1673ffffffffffffffffffffffffffffffffffffffff168152602001908152602001600020604051806101800160405290816000820160009054906101000a900473ffffffffffffffffffffffffffffffffffffffff1673ffffffffffffffffffffffffffffffffffffffff1673ffffffffffffffffffffffffffffffffffffffff168152602001600182018054610f8390613776565b80601f0160208091040260200160405190810160405280929190818152602001828054610faf90613776565b8015610ffc5780601f10610fd157610100808354040283529160200191610ffc565b820191906000526020600020905b815481529060010190602001808311610fdf57829003601f168201915b50505050508152602001600282015481526020016003820154815260200160048201548152602001600582015481526020016006820154815260200160078201805461104790613776565b80601f016020809104026020016040519081016040528092919081815260200182805461107390613776565b80156110c05780601f10611095576101008083540402835291602001916110c0565b820191906000526020600020905b8154815290600101906020018083116110a357829003601f168201915b505050505081526020016008820180548060200260200160405190810160405280929190818152602001828054801561114e57602002820191906000526020600020905b8160009054906101000a900473ffffffffffffffffffffffffffffffffffffffff1673ffffffffffffffffffffffffffffffffffffffff1681526020019060010190808311611104575b50505050508152602001600982018054806020026020016040519081016040528092919081815260200182805480156111dc57602002820191906000526020600020905b8160009054906101000a900473ffffffffffffffffffffffffffffffffffffffff1673ffffffffffffffffffffffffffffffffffffffff1681526020019060010190808311611192575b50505050508152602001600a8201548152602001600b820154815250509050919050565b60603373ffffffffffffffffffffffffffffffffffffffff166000803373ffffffffffffffffffffffffffffffffffffffff1673ffffffffffffffffffffffffffffffffffffffff16815260200190815260200160002060000160009054906101000a900473ffffffffffffffffffffffffffffffffffffffff1673ffffffffffffffffffffffffffffffffffffffff16146112d1576040517f08c379a00000000000000000000000000000000000000000000000000000000081526004016112c8906136d4565b60405180910390fd5b60006004836040516112e39190613730565b90815260200160405180910390206040516020016113019190613b77565b6040516020818303038152906040525111611351576040517f08c379a000000000000000000000000000000000000000000000000000000000815260040161134890613bda565b60405180910390fd5b6004826040516113619190613730565b9081526020016040518091039020805461137a90613776565b80601f01602080910402602001604051908101604052809291908181526020018280546113a690613776565b80156113f35780601f106113c8576101008083540402835291602001916113f3565b820191906000526020600020905b8154815290600101906020018083116113d657829003601f168201915b50505050509050919050565b3373ffffffffffffffffffffffffffffffffffffffff166000808a73ffffffffffffffffffffffffffffffffffffffff1673ffffffffffffffffffffffffffffffffffffffff16815260200190815260200160002060000160009054906101000a900473ffffffffffffffffffffffffffffffffffffffff1673ffffffffffffffffffffffffffffffffffffffff16036114ce576040517f08c379a00000000000000000000000000000000000000000000000000000000081526004016114c590613c46565b60405180910390fd5b6001889080600181540180825580915050600190039060005260206000200160009091909190916101000a81548173ffffffffffffffffffffffffffffffffffffffff021916908373ffffffffffffffffffffffffffffffffffffffff1602179055506040518061018001604052803373ffffffffffffffffffffffffffffffffffffffff168152602001888152602001878152602001868152602001858152602001848152602001838152602001828152602001600067ffffffffffffffff81111561159e5761159d612a56565b5b6040519080825280602002602001820160405280156115cc5781602001602082028036833780820191505090505b508152602001600067ffffffffffffffff8111156115ed576115ec612a56565b5b60405190808252806020026020018201604052801561161b5781602001602082028036833780820191505090505b5081526020016000815260200160008152506000803373ffffffffffffffffffffffffffffffffffffffff1673ffffffffffffffffffffffffffffffffffffffff16815260200190815260200160002060008201518160000160006101000a81548173ffffffffffffffffffffffffffffffffffffffff021916908373ffffffffffffffffffffffffffffffffffffffff16021790555060208201518160010190816116c79190613953565b5060408201518160020155606082015181600301556080820151816004015560a0820151816005015560c0820151816006015560e082015181600701908161170f9190613953565b5061010082015181600801908051906020019061172d9291906128e2565b5061012082015181600901908051906020019061174b9291906128e2565b5061014082015181600a015561016082015181600b01559050505050505050505050565b3373ffffffffffffffffffffffffffffffffffffffff166000803373ffffffffffffffffffffffffffffffffffffffff1673ffffffffffffffffffffffffffffffffffffffff16815260200190815260200160002060000160009054906101000a900473ffffffffffffffffffffffffffffffffffffffff1673ffffffffffffffffffffffffffffffffffffffff161461183e576040517f08c379a0000000000000000000000000000000000000000000000000000000008152600401611835906136d4565b60405180910390fd5b8060048360405161184f9190613730565b908152602001604051809103902090816118699190613953565b505050565b60008073ffffffffffffffffffffffffffffffffffffffff166000803373ffffffffffffffffffffffffffffffffffffffff1673ffffffffffffffffffffffffffffffffffffffff16815260200190815260200160002060000160009054906101000a900473ffffffffffffffffffffffffffffffffffffffff1673ffffffffffffffffffffffffffffffffffffffff160361193f576040517f08c379a000000000000000000000000000000000000000000000000000000000815260040161193690613ad4565b60405180910390fd5b6001905090565b60603373ffffffffffffffffffffffffffffffffffffffff166000803373ffffffffffffffffffffffffffffffffffffffff1673ffffffffffffffffffffffffffffffffffffffff16815260200190815260200160002060000160009054906101000a900473ffffffffffffffffffffffffffffffffffffffff1673ffffffffffffffffffffffffffffffffffffffff1614611a17576040517f08c379a0000000000000000000000000000000000000000000000000000000008152600401611a0e906136d4565b60405180910390fd5b600660008473ffffffffffffffffffffffffffffffffffffffff1673ffffffffffffffffffffffffffffffffffffffff16815260200190815260200160002060008373ffffffffffffffffffffffffffffffffffffffff1673ffffffffffffffffffffffffffffffffffffffff1681526020019081526020016000208054611a9e90613776565b80601f0160208091040260200160405190810160405280929190818152602001828054611aca90613776565b8015611b175780601f10611aec57610100808354040283529160200191611b17565b820191906000526020600020905b815481529060010190602001808311611afa57829003601f168201915b5050505050905092915050565b3373ffffffffffffffffffffffffffffffffffffffff166000803373ffffffffffffffffffffffffffffffffffffffff1673ffffffffffffffffffffffffffffffffffffffff16815260200190815260200160002060000160009054906101000a900473ffffffffffffffffffffffffffffffffffffffff1673ffffffffffffffffffffffffffffffffffffffff1614611bf3576040517f08c379a0000000000000000000000000000000000000000000000000000000008152600401611bea906136d4565b60405180910390fd5b600260405180604001604052803373ffffffffffffffffffffffffffffffffffffffff16815260200183815250908060018154018082558091505060019003906000526020600020906002020160009091909190915060008201518160000160006101000a81548173ffffffffffffffffffffffffffffffffffffffff021916908373ffffffffffffffffffffffffffffffffffffffff1602179055506020820151816001019081611ca59190613953565b50505050565b3373ffffffffffffffffffffffffffffffffffffffff166000803373ffffffffffffffffffffffffffffffffffffffff1673ffffffffffffffffffffffffffffffffffffffff16815260200190815260200160002060000160009054906101000a900473ffffffffffffffffffffffffffffffffffffffff1673ffffffffffffffffffffffffffffffffffffffff1614611d7a576040517f08c379a0000000000000000000000000000000000000000000000000000000008152600401611d71906136d4565b60405180910390fd5b80600383604051611d8b9190613730565b90815260200160405180910390209081611da59190613953565b505050565b8173ffffffffffffffffffffffffffffffffffffffff166000808473ffffffffffffffffffffffffffffffffffffffff1673ffffffffffffffffffffffffffffffffffffffff16815260200190815260200160002060000160009054906101000a900473ffffffffffffffffffffffffffffffffffffffff1673ffffffffffffffffffffffffffffffffffffffff1614611e79576040517f08c379a0000000000000000000000000000000000000000000000000000000008152600401611e70906136d4565b60405180910390fd5b80600660008573ffffffffffffffffffffffffffffffffffffffff1673ffffffffffffffffffffffffffffffffffffffff16815260200190815260200160002060008473ffffffffffffffffffffffffffffffffffffffff1673ffffffffffffffffffffffffffffffffffffffff1681526020019081526020016000209081611f029190613953565b5080600660008473ffffffffffffffffffffffffffffffffffffffff1673ffffffffffffffffffffffffffffffffffffffff16815260200190815260200160002060008573ffffffffffffffffffffffffffffffffffffffff1673ffffffffffffffffffffffffffffffffffffffff1681526020019081526020016000209081611f8c9190613953565b50505050565b3373ffffffffffffffffffffffffffffffffffffffff166000808973ffffffffffffffffffffffffffffffffffffffff1673ffffffffffffffffffffffffffffffffffffffff16815260200190815260200160002060000160009054906101000a900473ffffffffffffffffffffffffffffffffffffffff1673ffffffffffffffffffffffffffffffffffffffff1614612061576040517f08c379a0000000000000000000000000000000000000000000000000000000008152600401612058906136d4565b60405180910390fd5b6040518061018001604052803373ffffffffffffffffffffffffffffffffffffffff1681526020018781526020018681526020018581526020018481526020018381526020018281526020016000803373ffffffffffffffffffffffffffffffffffffffff1673ffffffffffffffffffffffffffffffffffffffff16815260200190815260200160002060070180546120f990613776565b80601f016020809104026020016040519081016040528092919081815260200182805461212590613776565b80156121725780601f1061214757610100808354040283529160200191612172565b820191906000526020600020905b81548152906001019060200180831161215557829003601f168201915b505050505081526020016000803373ffffffffffffffffffffffffffffffffffffffff1673ffffffffffffffffffffffffffffffffffffffff16815260200190815260200160002060080180548060200260200160405190810160405280929190818152602001828054801561223d57602002820191906000526020600020905b8160009054906101000a900473ffffffffffffffffffffffffffffffffffffffff1673ffffffffffffffffffffffffffffffffffffffff16815260200190600101908083116121f3575b505050505081526020016000803373ffffffffffffffffffffffffffffffffffffffff1673ffffffffffffffffffffffffffffffffffffffff16815260200190815260200160002060090180548060200260200160405190810160405280929190818152602001828054801561230857602002820191906000526020600020905b8160009054906101000a900473ffffffffffffffffffffffffffffffffffffffff1673ffffffffffffffffffffffffffffffffffffffff16815260200190600101908083116122be575b505050505081526020016000803373ffffffffffffffffffffffffffffffffffffffff1673ffffffffffffffffffffffffffffffffffffffff168152602001908152602001600020600a015481526020016000803373ffffffffffffffffffffffffffffffffffffffff1673ffffffffffffffffffffffffffffffffffffffff168152602001908152602001600020600b01548152506000803373ffffffffffffffffffffffffffffffffffffffff1673ffffffffffffffffffffffffffffffffffffffff16815260200190815260200160002060008201518160000160006101000a81548173ffffffffffffffffffffffffffffffffffffffff021916908373ffffffffffffffffffffffffffffffffffffffff16021790555060208201518160010190816124389190613953565b5060408201518160020155606082015181600301556080820151816004015560a0820151816005015560c0820151816006015560e08201518160070190816124809190613953565b5061010082015181600801908051906020019061249e9291906128e2565b506101208201518160090190805190602001906124bc9291906128e2565b5061014082015181600a015561016082015181600b015590505050505050505050565b60603373ffffffffffffffffffffffffffffffffffffffff166000803373ffffffffffffffffffffffffffffffffffffffff1673ffffffffffffffffffffffffffffffffffffffff16815260200190815260200160002060000160009054906101000a900473ffffffffffffffffffffffffffffffffffffffff1673ffffffffffffffffffffffffffffffffffffffff16146125b0576040517f08c379a00000000000000000000000000000000000000000000000000000000081526004016125a7906136d4565b60405180910390fd5b60006003836040516125c29190613730565b90815260200160405180910390206040516020016125e09190613b77565b6040516020818303038152906040525111612630576040517f08c379a000000000000000000000000000000000000000000000000000000000815260040161262790613cb2565b60405180910390fd5b6003826040516126409190613730565b9081526020016040518091039020805461265990613776565b80601f016020809104026020016040519081016040528092919081815260200182805461268590613776565b80156126d25780601f106126a7576101008083540402835291602001916126d2565b820191906000526020600020905b8154815290600101906020018083116126b557829003601f168201915b50505050509050919050565b6060600180548060200260200160405190810160405280929190818152602001828054801561276257602002820191906000526020600020905b8160009054906101000a900473ffffffffffffffffffffffffffffffffffffffff1673ffffffffffffffffffffffffffffffffffffffff1681526020019060010190808311612718575b5050505050905090565b6000806000808573ffffffffffffffffffffffffffffffffffffffff1673ffffffffffffffffffffffffffffffffffffffff168152602001908152602001600020600901905060005b818054905081101561284f578373ffffffffffffffffffffffffffffffffffffffff168282815481106127eb576127ea613cd2565b5b9060005260206000200160009054906101000a900473ffffffffffffffffffffffffffffffffffffffff1673ffffffffffffffffffffffffffffffffffffffff160361283c57600192505050612856565b808061284790613640565b9150506127b5565b5060009150505b92915050565b604051806101800160405280600073ffffffffffffffffffffffffffffffffffffffff16815260200160608152602001600080191681526020016000801916815260200160008019168152602001600080191681526020016000801916815260200160608152602001606081526020016060815260200160008152602001600081525090565b82805482825590600052602060002090810192821561295b579160200282015b8281111561295a5782518260006101000a81548173ffffffffffffffffffffffffffffffffffffffff021916908373ffffffffffffffffffffffffffffffffffffffff16021790555091602001919060010190612902565b5b509050612968919061296c565b5090565b5b8082111561298557600081600090555060010161296d565b5090565b6000604051905090565b600080fd5b600080fd5b600073ffffffffffffffffffffffffffffffffffffffff82169050919050565b60006129c88261299d565b9050919050565b6129d8816129bd565b81146129e357600080fd5b50565b6000813590506129f5816129cf565b92915050565b60008060408385031215612a1257612a11612993565b5b6000612a20858286016129e6565b9250506020612a31858286016129e6565b9150509250929050565b600080fd5b600080fd5b6000601f19601f8301169050919050565b7f4e487b7100000000000000000000000000000000000000000000000000000000600052604160045260246000fd5b612a8e82612a45565b810181811067ffffffffffffffff82111715612aad57612aac612a56565b5b80604052505050565b6000612ac0612989565b9050612acc8282612a85565b919050565b600067ffffffffffffffff821115612aec57612aeb612a56565b5b612af582612a45565b9050602081019050919050565b82818337600083830152505050565b6000612b24612b1f84612ad1565b612ab6565b905082815260208101848484011115612b4057612b3f612a40565b5b612b4b848285612b02565b509392505050565b600082601f830112612b6857612b67612a3b565b5b8135612b78848260208601612b11565b91505092915050565b600060208284031215612b9757612b96612993565b5b600082013567ffffffffffffffff811115612bb557612bb4612998565b5b612bc184828501612b53565b91505092915050565b600081519050919050565b600082825260208201905092915050565b60005b83811015612c04578082015181840152602081019050612be9565b60008484015250505050565b6000612c1b82612bca565b612c258185612bd5565b9350612c35818560208601612be6565b612c3e81612a45565b840191505092915050565b60006020820190508181036000830152612c638184612c10565b905092915050565b60008060408385031215612c8257612c81612993565b5b600083013567ffffffffffffffff811115612ca057612c9f612998565b5b612cac85828601612b53565b925050602083013567ffffffffffffffff811115612ccd57612ccc612998565b5b612cd985828601612b53565b9150509250929050565b600060208284031215612cf957612cf8612993565b5b6000612d07848285016129e6565b91505092915050565b6000819050919050565b612d2381612d10565b82525050565b6000602082019050612d3e6000830184612d1a565b92915050565b600081519050919050565b600082825260208201905092915050565b6000819050602082019050919050565b612d79816129bd565b82525050565b600082825260208201905092915050565b6000612d9b82612bca565b612da58185612d7f565b9350612db5818560208601612be6565b612dbe81612a45565b840191505092915050565b6000604083016000830151612de16000860182612d70565b5060208301518482036020860152612df98282612d90565b9150508091505092915050565b6000612e128383612dc9565b905092915050565b6000602082019050919050565b6000612e3282612d44565b612e3c8185612d4f565b935083602082028501612e4e85612d60565b8060005b85811015612e8a5784840389528151612e6b8582612e06565b9450612e7683612e1a565b925060208a01995050600181019050612e52565b50829750879550505050505092915050565b60006020820190508181036000830152612eb68184612e27565b905092915050565b612ec781612d10565b8114612ed257600080fd5b50565b600081359050612ee481612ebe565b92915050565b600060208284031215612f0057612eff612993565b5b6000612f0e84828501612ed5565b91505092915050565b612f20816129bd565b82525050565b6000602082019050612f3b6000830184612f17565b92915050565b600081519050919050565b600082825260208201905092915050565b6000819050602082019050919050565b6000612f798383612d70565b60208301905092915050565b6000602082019050919050565b6000612f9d82612f41565b612fa78185612f4c565b9350612fb283612f5d565b8060005b83811015612fe3578151612fca8882612f6d565b9750612fd583612f85565b925050600181019050612fb6565b5085935050505092915050565b6000602082019050818103600083015261300a8184612f92565b905092915050565b6000819050919050565b61302581613012565b82525050565b600082825260208201905092915050565b600061304782612f41565b613051818561302b565b935061305c83612f5d565b8060005b8381101561308d5781516130748882612f6d565b975061307f83612f85565b925050600181019050613060565b5085935050505092915050565b6130a381612d10565b82525050565b6000610180830160008301516130c26000860182612d70565b50602083015184820360208601526130da8282612d90565b91505060408301516130ef604086018261301c565b506060830151613102606086018261301c565b506080830151613115608086018261301c565b5060a083015161312860a086018261301c565b5060c083015161313b60c086018261301c565b5060e083015184820360e08601526131538282612d90565b91505061010083015184820361010086015261316f828261303c565b91505061012083015184820361012086015261318b828261303c565b9150506101408301516131a261014086018261309a565b506101608301516131b761016086018261309a565b508091505092915050565b600060208201905081810360008301526131dc81846130a9565b905092915050565b6131ed81613012565b81146131f857600080fd5b50565b60008135905061320a816131e4565b92915050565b600080600080600080600080610100898b03121561323157613230612993565b5b600061323f8b828c016129e6565b985050602089013567ffffffffffffffff8111156132605761325f612998565b5b61326c8b828c01612b53565b975050604061327d8b828c016131fb565b965050606061328e8b828c016131fb565b955050608061329f8b828c016131fb565b94505060a06132b08b828c016131fb565b93505060c06132c18b828c016131fb565b92505060e089013567ffffffffffffffff8111156132e2576132e1612998565b5b6132ee8b828c01612b53565b9150509295985092959890939650565b60008115159050919050565b613313816132fe565b82525050565b600060208201905061332e600083018461330a565b92915050565b60008060006060848603121561334d5761334c612993565b5b600061335b868287016129e6565b935050602061336c868287016129e6565b925050604084013567ffffffffffffffff81111561338d5761338c612998565b5b61339986828701612b53565b9150509250925092565b600080600080600080600060e0888a0312156133c2576133c1612993565b5b60006133d08a828b016129e6565b975050602088013567ffffffffffffffff8111156133f1576133f0612998565b5b6133fd8a828b01612b53565b965050604061340e8a828b016131fb565b955050606061341f8a828b016131fb565b94505060806134308a828b016131fb565b93505060a06134418a828b016131fb565b92505060c06134528a828b016131fb565b91505092959891949750929550565b7f43616e6e6f7420666f6c6c6f7720796f757273656c6600000000000000000000600082015250565b6000613497601683612bd5565b91506134a282613461565b602082019050919050565b600060208201905081810360008301526134c68161348a565b9050919050565b7f43757272656e74207573657220646f6573206e6f742065786973740000000000600082015250565b6000613503601b83612bd5565b915061350e826134cd565b602082019050919050565b60006020820190508181036000830152613532816134f6565b9050919050565b7f5573657220746f20666f6c6c6f7720646f6573206e6f74206578697374000000600082015250565b600061356f601d83612bd5565b915061357a82613539565b602082019050919050565b6000602082019050818103600083015261359e81613562565b9050919050565b7f416c726561647920666f6c6c6f77696e67207468697320757365720000000000600082015250565b60006135db601b83612bd5565b91506135e6826135a5565b602082019050919050565b6000602082019050818103600083015261360a816135ce565b9050919050565b7f4e487b7100000000000000000000000000000000000000000000000000000000600052601160045260246000fd5b600061364b82612d10565b91507fffffffffffffffffffffffffffffffffffffffffffffffffffffffffffffffff820361367d5761367c613611565b5b600182019050919050565b7f5573657220646f65736e27742065786973740000000000000000000000000000600082015250565b60006136be601283612bd5565b91506136c982613688565b602082019050919050565b600060208201905081810360008301526136ed816136b1565b9050919050565b600081905092915050565b600061370a82612bca565b61371481856136f4565b9350613724818560208601612be6565b80840191505092915050565b600061373c82846136ff565b915081905092915050565b7f4e487b7100000000000000000000000000000000000000000000000000000000600052602260045260246000fd5b6000600282049050600182168061378e57607f821691505b6020821081036137a1576137a0613747565b5b50919050565b60008190508160005260206000209050919050565b60006020601f8301049050919050565b600082821b905092915050565b6000600883026138097fffffffffffffffffffffffffffffffffffffffffffffffffffffffffffffffff826137cc565b61381386836137cc565b95508019841693508086168417925050509392505050565b6000819050919050565b600061385061384b61384684612d10565b61382b565b612d10565b9050919050565b6000819050919050565b61386a83613835565b61387e61387682613857565b8484546137d9565b825550505050565b600090565b613893613886565b61389e818484613861565b505050565b5b818110156138c2576138b760008261388b565b6001810190506138a4565b5050565b601f821115613907576138d8816137a7565b6138e1846137bc565b810160208510156138f0578190505b6139046138fc856137bc565b8301826138a3565b50505b505050565b600082821c905092915050565b600061392a6000198460080261390c565b1980831691505092915050565b60006139438383613919565b9150826002028217905092915050565b61395c82612bca565b67ffffffffffffffff81111561397557613974612a56565b5b61397f8254613776565b61398a8282856138c6565b600060209050601f8311600181146139bd57600084156139ab578287015190505b6139b58582613937565b865550613a1d565b601f1984166139cb866137a7565b60005b828110156139f3578489015182556001820191506020850194506020810190506139ce565b86831015613a105784890151613a0c601f891682613919565b8355505b6001600288020188555050505b505050505050565b60008160601b9050919050565b6000613a3d82613a25565b9050919050565b6000613a4f82613a32565b9050919050565b613a67613a62826129bd565b613a44565b82525050565b6000613a798284613a56565b60148201915081905092915050565b7f7573657220646f65736e27742065786973740000000000000000000000000000600082015250565b6000613abe601283612bd5565b9150613ac982613a88565b602082019050919050565b60006020820190508181036000830152613aed81613ab1565b9050919050565b60008154613b0181613776565b613b0b81866136f4565b94506001821660008114613b265760018114613b3b57613b6e565b60ff1983168652811515820286019350613b6e565b613b44856137a7565b60005b83811015613b6657815481890152600182019150602081019050613b47565b838801955050505b50505092915050565b6000613b838284613af4565b915081905092915050565b7f4e6f204c696b6573000000000000000000000000000000000000000000000000600082015250565b6000613bc4600883612bd5565b9150613bcf82613b8e565b602082019050919050565b60006020820190508181036000830152613bf381613bb7565b9050919050565b7f5573657220616c72656164792072656769737465726564000000000000000000600082015250565b6000613c30601783612bd5565b9150613c3b82613bfa565b602082019050919050565b60006020820190508181036000830152613c5f81613c23565b9050919050565b7f4e6f20636f6d6d656e7473000000000000000000000000000000000000000000600082015250565b6000613c9c600b83612bd5565b9150613ca782613c66565b602082019050919050565b60006020820190508181036000830152613ccb81613c8f565b9050919050565b7f4e487b7100000000000000000000000000000000000000000000000000000000600052603260045260246000fdfea264697066735822122016bec5775577d11214b4bf5b4f06db7eb13dbf1a3798e5c1994cf385dc7bbebc64736f6c63430008120033",
  "immutableReferences": {},
  "source": "// SPDX-License-Identifier: MIT\r\npragma solidity ^0.8.13;\r\n\r\ncontract SocialNetwork {\r\n    //////////////////////////////////////////////////////////////////////////////////////////////////////////////////////\r\n    //  User Authentication Section                                                                                     //\r\n    //////////////////////////////////////////////////////////////////////////////////////////////////////////////////////\r\n\r\n    struct userData {\r\n        address userAddress;\r\n        string imageCID;\r\n        bytes32 userName;\r\n        bytes32 firstName;\r\n        bytes32 lastName;\r\n        bytes32 dateOfBirth;\r\n        bytes32 status;\r\n        string createdAt;\r\n        address[] followers;\r\n        address[] following;\r\n        uint followersCount;\r\n        uint followingCount;\r\n    }\r\n\r\n    mapping(address => userData) accounts;\r\n\r\n    address[] public userAddresses;\r\n\r\n    function registerUser(\r\n        address _userAddress,\r\n        string memory _imageCID,\r\n        bytes32 _userName,\r\n        bytes32 _firstName,\r\n        bytes32 _lastName,\r\n        bytes32 _dateOfBirth,\r\n        bytes32 _status,\r\n        string memory _createdAt\r\n    ) public {\r\n        require(\r\n            accounts[_userAddress].userAddress != msg.sender,\r\n            \"User already registered\"\r\n        );\r\n        userAddresses.push(_userAddress);\r\n        accounts[msg.sender] = userData({\r\n            userAddress: msg.sender,\r\n            imageCID: _imageCID,\r\n            userName: _userName,\r\n            firstName: _firstName,\r\n            lastName: _lastName,\r\n            dateOfBirth: _dateOfBirth,\r\n            status: _status,\r\n            createdAt: _createdAt,\r\n            followers: new address[](0),\r\n            following: new address[](0),\r\n            followersCount: 0,\r\n            followingCount: 0\r\n        });\r\n    }\r\n\r\n    function updateUser(\r\n        address _userAddress,\r\n        string memory _imageCID,\r\n        bytes32 _userName,\r\n        bytes32 _firstName,\r\n        bytes32 _lastName,\r\n        bytes32 _dateOfBirth,\r\n        bytes32 _status\r\n    ) public {\r\n        require(\r\n            accounts[_userAddress].userAddress == msg.sender,\r\n            \"User doesn't exist\"\r\n        );\r\n        accounts[msg.sender] = userData({\r\n            userAddress: msg.sender,\r\n            imageCID: _imageCID,\r\n            userName: _userName,\r\n            firstName: _firstName,\r\n            lastName: _lastName,\r\n            dateOfBirth: _dateOfBirth,\r\n            status: _status,\r\n            createdAt: accounts[msg.sender].createdAt,\r\n            followers: accounts[msg.sender].followers,\r\n            following: accounts[msg.sender].following,\r\n            followersCount: accounts[msg.sender].followersCount,\r\n            followingCount: accounts[msg.sender].followingCount\r\n        });\r\n    }\r\n\r\n    function getAllUsers() public view returns (address[] memory) {\r\n        return userAddresses;\r\n    }\r\n\r\n    function getUser(\r\n        address userAddress\r\n    ) public view returns (userData memory) {\r\n        require(\r\n            abi.encodePacked(accounts[msg.sender].userAddress).length > 0,\r\n            \"user doesn't exist\"\r\n        );\r\n        return accounts[userAddress];\r\n    }\r\n\r\n    function loginUser() public view returns (bool) {\r\n        require(\r\n            accounts[msg.sender].userAddress != address(0),\r\n            \"user doesn't exist\"\r\n        );\r\n        return true;\r\n    }\r\n\r\n    //////////////////////////////////////////////////////////////////////////////////////////////////////////////////////\r\n    //  Post and Comment Section                                                                                        //\r\n    //////////////////////////////////////////////////////////////////////////////////////////////////////////////////////\r\n\r\n    struct post {\r\n        address userAddress;\r\n        string postCID;\r\n    }\r\n\r\n    // string[] postList;\r\n    // mapping(string => post) postData;\r\n\r\n    // function addPost(string memory _PostCID) public {\r\n    //     require(\r\n    //         accounts[msg.sender].userAddress == msg.sender,\r\n    //         \"User doesn't exist\"\r\n    //     );\r\n    //     postList.push(_PostCID);\r\n    //     postData[_PostCID] = post({\r\n    //         userAddress: msg.sender,\r\n    //         postCID: _PostCID,\r\n    //         commentCID: \"\"\r\n    //     });\r\n    // }\r\n\r\n    post[] allPostData;\r\n    mapping(string => string) allComments;\r\n    mapping(string => string) allLikes;\r\n    mapping(string => string) allReports;\r\n\r\n    // post section\r\n    function addPost(string memory _PostCID) public {\r\n        require(\r\n            accounts[msg.sender].userAddress == msg.sender,\r\n            \"User doesn't exist\"\r\n        );\r\n        allPostData.push(post({userAddress: msg.sender, postCID: _PostCID}));\r\n    }\r\n\r\n    function getPosts() public view returns (post[] memory) {\r\n        require(\r\n            accounts[msg.sender].userAddress == msg.sender,\r\n            \"User doesn't exist\"\r\n        );\r\n        return allPostData;\r\n    }\r\n\r\n    // comment section\r\n    function addComment(\r\n        string memory _postCID,\r\n        string memory _CommentCID\r\n    ) public {\r\n        require(\r\n            accounts[msg.sender].userAddress == msg.sender,\r\n            \"User doesn't exist\"\r\n        );\r\n        allComments[_postCID] = _CommentCID;\r\n    }\r\n\r\n    function getComment(\r\n        string memory _postCID\r\n    ) public view returns (string memory) {\r\n        require(\r\n            accounts[msg.sender].userAddress == msg.sender,\r\n            \"User doesn't exist\"\r\n        );\r\n\r\n        require(\r\n            abi.encodePacked(allComments[_postCID]).length > 0,\r\n            \"No comments\"\r\n        );\r\n\r\n        return allComments[_postCID];\r\n    }\r\n\r\n    // like section\r\n    function addLikes(string memory _postCID, string memory _likesCID) public {\r\n        require(\r\n            accounts[msg.sender].userAddress == msg.sender,\r\n            \"User doesn't exist\"\r\n        );\r\n        allLikes[_postCID] = _likesCID;\r\n    }\r\n\r\n    function getLikes(\r\n        string memory _postCID\r\n    ) public view returns (string memory) {\r\n        require(\r\n            accounts[msg.sender].userAddress == msg.sender,\r\n            \"User doesn't exist\"\r\n        );\r\n        require(abi.encodePacked(allLikes[_postCID]).length > 0, \"No Likes\");\r\n        return allLikes[_postCID];\r\n    }\r\n\r\n    // report section\r\n    function addReports(\r\n        string memory _postCID,\r\n        string memory _reportCID\r\n    ) public {\r\n        require(\r\n            accounts[msg.sender].userAddress == msg.sender,\r\n            \"User doesn't exist\"\r\n        );\r\n        allReports[_postCID] = _reportCID;\r\n    }\r\n\r\n    function getReports(\r\n        string memory _postCID\r\n    ) public view returns (string memory) {\r\n        require(\r\n            accounts[msg.sender].userAddress == msg.sender,\r\n            \"User doesn't exist\"\r\n        );\r\n        return allReports[_postCID];\r\n    }\r\n\r\n    //////////////////////////////////////////////////////////////////////////////////////////////////////////////////////\r\n    //  Follow user functions                                                                                           //\r\n    //////////////////////////////////////////////////////////////////////////////////////////////////////////////////////\r\n\r\n    function followUser(address _currentUser, address _userToFollow) public {\r\n        require(_currentUser != _userToFollow, \"Cannot follow yourself\");\r\n\r\n        // Ensure both users exist\r\n        require(\r\n            accounts[_currentUser].userAddress != address(0),\r\n            \"Current user does not exist\"\r\n        );\r\n        require(\r\n            accounts[_userToFollow].userAddress != address(0),\r\n            \"User to follow does not exist\"\r\n        );\r\n\r\n        // Check if the current user is already following the user to follow\r\n        require(\r\n            !isFollowing(_currentUser, _userToFollow),\r\n            \"Already following this user\"\r\n        );\r\n\r\n        // Add the user to follow to the following list of the current user\r\n        accounts[_currentUser].following.push(_userToFollow);\r\n        accounts[_currentUser].followingCount++;\r\n\r\n        // Add the current user to the followers list of the user to follow\r\n        accounts[_userToFollow].followers.push(_currentUser);\r\n        accounts[_userToFollow].followersCount++;\r\n    }\r\n\r\n    // Function to check if a user is already following another user\r\n    function isFollowing(\r\n        address _currentUser,\r\n        address _userToFollow\r\n    ) internal view returns (bool) {\r\n        address[] storage following = accounts[_currentUser].following;\r\n        for (uint i = 0; i < following.length; i++) {\r\n            if (following[i] == _userToFollow) {\r\n                return true;\r\n            }\r\n        }\r\n        return false;\r\n    }\r\n\r\n    function getFollowedUsers() public view returns (address[] memory) {\r\n        return accounts[msg.sender].following;\r\n    }\r\n\r\n    function getFollowersCount(address userAddress) public view returns (uint) {\r\n        return accounts[userAddress].followersCount;\r\n    }\r\n\r\n    //////////////////////////////////////////////////////////////////////////////////////////////////////////////////////\r\n    //  Follow user functions                                                                                           //\r\n    //////////////////////////////////////////////////////////////////////////////////////////////////////////////////////\r\n\r\n    mapping(address => mapping(address => string)) allchats;\r\n\r\n    function sendMessage(\r\n        address sender,\r\n        address receiver,\r\n        string memory chatCID\r\n    ) public {\r\n        require(\r\n            accounts[receiver].userAddress == receiver,\r\n            \"User doesn't exist\"\r\n        );\r\n\r\n        allchats[sender][receiver] = chatCID;\r\n        allchats[receiver][sender] = chatCID;\r\n    }\r\n\r\n    function getMessage(\r\n        address sender,\r\n        address receiver\r\n    ) public view returns (string memory) {\r\n        require(\r\n            accounts[msg.sender].userAddress == msg.sender,\r\n            \"User doesn't exist\"\r\n        );\r\n\r\n        return allchats[sender][receiver];\r\n    }\r\n}\r\n",
  "sourcePath": "C:\\Users\\abhis\\OneDrive\\Documents\\Main Project\\MP\\DPOSN\\truffle\\contracts\\SocialNetwork.sol",
  "compiler": {
    "name": "solc",
    "version": "0.8.18+commit.87f61d96.Emscripten.clang"
  },
  "schemaVersion": "3.4.16",
  "updatedAt": "2024-04-01T03:38:36.335Z",
  "networkType": "ethereum",
  "devdoc": {
    "kind": "dev",
    "methods": {},
    "version": 1
  },
  "userdoc": {
    "kind": "user",
    "methods": {},
    "version": 1
  }
}