{
  "contractName": "SocialNetwork",
  "abi": [
    {
      "inputs": [
        {
          "internalType": "address",
          "name": "_userAddress",
          "type": "address"
        },
        {
          "internalType": "string",
          "name": "_imageCID",
          "type": "string"
        },
        {
          "internalType": "bytes32",
          "name": "_userName",
          "type": "bytes32"
        },
        {
          "internalType": "bytes32",
          "name": "_firstName",
          "type": "bytes32"
        },
        {
          "internalType": "bytes32",
          "name": "_lastName",
          "type": "bytes32"
        },
        {
          "internalType": "bytes32",
          "name": "_dateOfBirth",
          "type": "bytes32"
        },
        {
          "internalType": "bytes32",
          "name": "_status",
          "type": "bytes32"
        }
      ],
      "name": "registerUser",
      "outputs": [],
      "stateMutability": "nonpayable",
      "type": "function"
    },
    {
      "inputs": [],
      "name": "getUser",
      "outputs": [
        {
          "components": [
            {
              "internalType": "address",
              "name": "userAddress",
              "type": "address"
            },
            {
              "internalType": "string",
              "name": "imageCID",
              "type": "string"
            },
            {
              "internalType": "bytes32",
              "name": "userName",
              "type": "bytes32"
            },
            {
              "internalType": "bytes32",
              "name": "firstName",
              "type": "bytes32"
            },
            {
              "internalType": "bytes32",
              "name": "lastName",
              "type": "bytes32"
            },
            {
              "internalType": "bytes32",
              "name": "dateOfBirth",
              "type": "bytes32"
            },
            {
              "internalType": "bytes32",
              "name": "status",
              "type": "bytes32"
            }
          ],
          "internalType": "struct SocialNetwork.userData",
          "name": "",
          "type": "tuple"
        }
      ],
      "stateMutability": "view",
      "type": "function",
      "constant": true
    },
    {
      "inputs": [],
      "name": "loginUser",
      "outputs": [
        {
          "internalType": "bool",
          "name": "",
          "type": "bool"
        }
      ],
      "stateMutability": "view",
      "type": "function",
      "constant": true
    }
  ],
  "bytecode": "0x608060405234801561001057600080fd5b50610d7d806100206000396000f3fe608060405234801561001057600080fd5b50600436106100415760003560e01c80636923a07e14610046578063832880e714610062578063a19ed68614610080575b600080fd5b610060600480360381019061005b9190610727565b61009e565b005b61006a61028f565b604051610077919061091e565b60405180910390f35b6100886103ff565b604051610095919061095b565b60405180910390f35b3373ffffffffffffffffffffffffffffffffffffffff166000808973ffffffffffffffffffffffffffffffffffffffff1673ffffffffffffffffffffffffffffffffffffffff16815260200190815260200160002060000160009054906101000a900473ffffffffffffffffffffffffffffffffffffffff1673ffffffffffffffffffffffffffffffffffffffff160361016d576040517f08c379a0000000000000000000000000000000000000000000000000000000008152600401610164906109d3565b60405180910390fd5b6040518060e001604052803373ffffffffffffffffffffffffffffffffffffffff168152602001878152602001868152602001858152602001848152602001838152602001828152506000803373ffffffffffffffffffffffffffffffffffffffff1673ffffffffffffffffffffffffffffffffffffffff16815260200190815260200160002060008201518160000160006101000a81548173ffffffffffffffffffffffffffffffffffffffff021916908373ffffffffffffffffffffffffffffffffffffffff16021790555060208201518160010190816102509190610c09565b5060408201518160020155606082015181600301556080820151816004015560a0820151816005015560c0820151816006015590505050505050505050565b6102976104d7565b6000803373ffffffffffffffffffffffffffffffffffffffff1673ffffffffffffffffffffffffffffffffffffffff1681526020019081526020016000206040518060e00160405290816000820160009054906101000a900473ffffffffffffffffffffffffffffffffffffffff1673ffffffffffffffffffffffffffffffffffffffff1673ffffffffffffffffffffffffffffffffffffffff16815260200160018201805461034690610a22565b80601f016020809104026020016040519081016040528092919081815260200182805461037290610a22565b80156103bf5780601f10610394576101008083540402835291602001916103bf565b820191906000526020600020905b8154815290600101906020018083116103a257829003601f168201915b5050505050815260200160028201548152602001600382015481526020016004820154815260200160058201548152602001600682015481525050905090565b60008073ffffffffffffffffffffffffffffffffffffffff166000803373ffffffffffffffffffffffffffffffffffffffff1673ffffffffffffffffffffffffffffffffffffffff16815260200190815260200160002060000160009054906101000a900473ffffffffffffffffffffffffffffffffffffffff1673ffffffffffffffffffffffffffffffffffffffff16036104d0576040517f08c379a00000000000000000000000000000000000000000000000000000000081526004016104c790610d27565b60405180910390fd5b6001905090565b6040518060e00160405280600073ffffffffffffffffffffffffffffffffffffffff1681526020016060815260200160008019168152602001600080191681526020016000801916815260200160008019168152602001600080191681525090565b6000604051905090565b600080fd5b600080fd5b600073ffffffffffffffffffffffffffffffffffffffff82169050919050565b60006105788261054d565b9050919050565b6105888161056d565b811461059357600080fd5b50565b6000813590506105a58161057f565b92915050565b600080fd5b600080fd5b6000601f19601f8301169050919050565b7f4e487b7100000000000000000000000000000000000000000000000000000000600052604160045260246000fd5b6105fe826105b5565b810181811067ffffffffffffffff8211171561061d5761061c6105c6565b5b80604052505050565b6000610630610539565b905061063c82826105f5565b919050565b600067ffffffffffffffff82111561065c5761065b6105c6565b5b610665826105b5565b9050602081019050919050565b82818337600083830152505050565b600061069461068f84610641565b610626565b9050828152602081018484840111156106b0576106af6105b0565b5b6106bb848285610672565b509392505050565b600082601f8301126106d8576106d76105ab565b5b81356106e8848260208601610681565b91505092915050565b6000819050919050565b610704816106f1565b811461070f57600080fd5b50565b600081359050610721816106fb565b92915050565b600080600080600080600060e0888a03121561074657610745610543565b5b60006107548a828b01610596565b975050602088013567ffffffffffffffff81111561077557610774610548565b5b6107818a828b016106c3565b96505060406107928a828b01610712565b95505060606107a38a828b01610712565b94505060806107b48a828b01610712565b93505060a06107c58a828b01610712565b92505060c06107d68a828b01610712565b91505092959891949750929550565b6107ee8161056d565b82525050565b600081519050919050565b600082825260208201905092915050565b60005b8381101561082e578082015181840152602081019050610813565b60008484015250505050565b6000610845826107f4565b61084f81856107ff565b935061085f818560208601610810565b610868816105b5565b840191505092915050565b61087c816106f1565b82525050565b600060e08301600083015161089a60008601826107e5565b50602083015184820360208601526108b2828261083a565b91505060408301516108c76040860182610873565b5060608301516108da6060860182610873565b5060808301516108ed6080860182610873565b5060a083015161090060a0860182610873565b5060c083015161091360c0860182610873565b508091505092915050565b600060208201905081810360008301526109388184610882565b905092915050565b60008115159050919050565b61095581610940565b82525050565b6000602082019050610970600083018461094c565b92915050565b600082825260208201905092915050565b7f5573657220616c72656164792072656769737465726564000000000000000000600082015250565b60006109bd601783610976565b91506109c882610987565b602082019050919050565b600060208201905081810360008301526109ec816109b0565b9050919050565b7f4e487b7100000000000000000000000000000000000000000000000000000000600052602260045260246000fd5b60006002820490506001821680610a3a57607f821691505b602082108103610a4d57610a4c6109f3565b5b50919050565b60008190508160005260206000209050919050565b60006020601f8301049050919050565b600082821b905092915050565b600060088302610ab57fffffffffffffffffffffffffffffffffffffffffffffffffffffffffffffffff82610a78565b610abf8683610a78565b95508019841693508086168417925050509392505050565b6000819050919050565b6000819050919050565b6000610b06610b01610afc84610ad7565b610ae1565b610ad7565b9050919050565b6000819050919050565b610b2083610aeb565b610b34610b2c82610b0d565b848454610a85565b825550505050565b600090565b610b49610b3c565b610b54818484610b17565b505050565b5b81811015610b7857610b6d600082610b41565b600181019050610b5a565b5050565b601f821115610bbd57610b8e81610a53565b610b9784610a68565b81016020851015610ba6578190505b610bba610bb285610a68565b830182610b59565b50505b505050565b600082821c905092915050565b6000610be060001984600802610bc2565b1980831691505092915050565b6000610bf98383610bcf565b9150826002028217905092915050565b610c12826107f4565b67ffffffffffffffff811115610c2b57610c2a6105c6565b5b610c358254610a22565b610c40828285610b7c565b600060209050601f831160018114610c735760008415610c61578287015190505b610c6b8582610bed565b865550610cd3565b601f198416610c8186610a53565b60005b82811015610ca957848901518255600182019150602085019450602081019050610c84565b86831015610cc65784890151610cc2601f891682610bcf565b8355505b6001600288020188555050505b505050505050565b7f7573657220646f65736e27742065786973740000000000000000000000000000600082015250565b6000610d11601283610976565b9150610d1c82610cdb565b602082019050919050565b60006020820190508181036000830152610d4081610d04565b905091905056fea26469706673582212203c2b8effe5c53b0f11eb2404a9ea410429c0babd63fc829737ce39ab1a8be1e364736f6c63430008120033",
  "immutableReferences": {},
  "source": "// SPDX-License-Identifier: MIT\r\npragma solidity ^0.8.13;\r\n\r\ncontract SocialNetwork {\r\n    struct userData {\r\n        address userAddress;\r\n        string imageCID;\r\n        bytes32 userName;\r\n        bytes32 firstName;\r\n        bytes32 lastName;\r\n        bytes32 dateOfBirth;\r\n        bytes32 status;\r\n    }\r\n\r\n    mapping(address => userData) accounts;\r\n\r\n    function registerUser(\r\n        address _userAddress,\r\n        string memory _imageCID,\r\n        bytes32 _userName,\r\n        bytes32 _firstName,\r\n        bytes32 _lastName,\r\n        bytes32 _dateOfBirth,\r\n        bytes32 _status\r\n    ) public {\r\n        require(\r\n            accounts[_userAddress].userAddress != msg.sender,\r\n            \"User already registered\"\r\n        );\r\n        accounts[msg.sender] = userData({\r\n            userAddress: msg.sender,\r\n            imageCID: _imageCID,\r\n            userName: _userName,\r\n            firstName: _firstName,\r\n            lastName: _lastName,\r\n            dateOfBirth: _dateOfBirth,\r\n            status: _status\r\n        });\r\n    }\r\n\r\n    function getUser() public view returns (userData memory) {\r\n        return accounts[msg.sender];\r\n    }\r\n\r\n    function loginUser() public view returns (bool) {\r\n        require(\r\n            accounts[msg.sender].userAddress != address(0),\r\n            \"user doesn't exist\"\r\n        );\r\n        return true;\r\n    }\r\n}\r\n",
  "sourcePath": "C:\\Users\\abhis\\OneDrive\\Documents\\Main Project\\MP\\DPOSN\\truffle\\contracts\\SocialNetwork.sol",
  "compiler": {
    "name": "solc",
    "version": "0.8.18+commit.87f61d96.Emscripten.clang"
  },
  "schemaVersion": "3.4.16",
  "updatedAt": "2024-02-17T16:40:07.904Z",
  "networkType": "ethereum",
  "devdoc": {
    "kind": "dev",
    "methods": {},
    "version": 1
  },
  "userdoc": {
    "kind": "user",
    "methods": {},
    "version": 1
  }
}