{
  "contractName": "SocialNetwork",
  "abi": [
    {
      "inputs": [
        {
          "internalType": "uint256",
          "name": "",
          "type": "uint256"
        }
      ],
      "name": "userAddresses",
      "outputs": [
        {
          "internalType": "address",
          "name": "",
          "type": "address"
        }
      ],
      "stateMutability": "view",
      "type": "function",
      "constant": true
    },
    {
      "inputs": [
        {
          "internalType": "address",
          "name": "_userAddress",
          "type": "address"
        },
        {
          "internalType": "string",
          "name": "_imageCID",
          "type": "string"
        },
        {
          "internalType": "bytes32",
          "name": "_userName",
          "type": "bytes32"
        },
        {
          "internalType": "bytes32",
          "name": "_firstName",
          "type": "bytes32"
        },
        {
          "internalType": "bytes32",
          "name": "_lastName",
          "type": "bytes32"
        },
        {
          "internalType": "bytes32",
          "name": "_dateOfBirth",
          "type": "bytes32"
        },
        {
          "internalType": "bytes32",
          "name": "_status",
          "type": "bytes32"
        }
      ],
      "name": "registerUser",
      "outputs": [],
      "stateMutability": "nonpayable",
      "type": "function"
    },
    {
      "inputs": [],
      "name": "getAllUsers",
      "outputs": [
        {
          "internalType": "address[]",
          "name": "",
          "type": "address[]"
        }
      ],
      "stateMutability": "view",
      "type": "function",
      "constant": true
    },
    {
      "inputs": [
        {
          "internalType": "address",
          "name": "userAddress",
          "type": "address"
        }
      ],
      "name": "getUser",
      "outputs": [
        {
          "components": [
            {
              "internalType": "address",
              "name": "userAddress",
              "type": "address"
            },
            {
              "internalType": "string",
              "name": "imageCID",
              "type": "string"
            },
            {
              "internalType": "bytes32",
              "name": "userName",
              "type": "bytes32"
            },
            {
              "internalType": "bytes32",
              "name": "firstName",
              "type": "bytes32"
            },
            {
              "internalType": "bytes32",
              "name": "lastName",
              "type": "bytes32"
            },
            {
              "internalType": "bytes32",
              "name": "dateOfBirth",
              "type": "bytes32"
            },
            {
              "internalType": "bytes32",
              "name": "status",
              "type": "bytes32"
            },
            {
              "internalType": "address[]",
              "name": "followers",
              "type": "address[]"
            },
            {
              "internalType": "address[]",
              "name": "following",
              "type": "address[]"
            },
            {
              "internalType": "uint256",
              "name": "followersCount",
              "type": "uint256"
            },
            {
              "internalType": "uint256",
              "name": "followingCount",
              "type": "uint256"
            }
          ],
          "internalType": "struct SocialNetwork.userData",
          "name": "",
          "type": "tuple"
        }
      ],
      "stateMutability": "view",
      "type": "function",
      "constant": true
    },
    {
      "inputs": [],
      "name": "loginUser",
      "outputs": [
        {
          "internalType": "bool",
          "name": "",
          "type": "bool"
        }
      ],
      "stateMutability": "view",
      "type": "function",
      "constant": true
    },
    {
      "inputs": [
        {
          "internalType": "string",
          "name": "_PostCID",
          "type": "string"
        }
      ],
      "name": "addPost",
      "outputs": [],
      "stateMutability": "nonpayable",
      "type": "function"
    },
    {
      "inputs": [
        {
          "internalType": "string",
          "name": "_postCID",
          "type": "string"
        },
        {
          "internalType": "string",
          "name": "_CommentCID",
          "type": "string"
        }
      ],
      "name": "addComment",
      "outputs": [],
      "stateMutability": "nonpayable",
      "type": "function"
    },
    {
      "inputs": [
        {
          "internalType": "string",
          "name": "_postCID",
          "type": "string"
        }
      ],
      "name": "getComment",
      "outputs": [
        {
          "internalType": "string",
          "name": "",
          "type": "string"
        }
      ],
      "stateMutability": "view",
      "type": "function",
      "constant": true
    },
    {
      "inputs": [],
      "name": "getPosts",
      "outputs": [
        {
          "components": [
            {
              "internalType": "address",
              "name": "userAddress",
              "type": "address"
            },
            {
              "internalType": "string",
              "name": "postCID",
              "type": "string"
            }
          ],
          "internalType": "struct SocialNetwork.post[]",
          "name": "",
          "type": "tuple[]"
        }
      ],
      "stateMutability": "view",
      "type": "function",
      "constant": true
    },
    {
      "inputs": [
        {
          "internalType": "address",
          "name": "_currentUser",
          "type": "address"
        },
        {
          "internalType": "address",
          "name": "_userToFollow",
          "type": "address"
        }
      ],
      "name": "followUser",
      "outputs": [],
      "stateMutability": "nonpayable",
      "type": "function"
    },
    {
      "inputs": [],
      "name": "getFollowedUsers",
      "outputs": [
        {
          "internalType": "address[]",
          "name": "",
          "type": "address[]"
        }
      ],
      "stateMutability": "view",
      "type": "function",
      "constant": true
    },
    {
      "inputs": [
        {
          "internalType": "address",
          "name": "userAddress",
          "type": "address"
        }
      ],
      "name": "getFollowersCount",
      "outputs": [
        {
          "internalType": "uint256",
          "name": "",
          "type": "uint256"
        }
      ],
      "stateMutability": "view",
      "type": "function",
      "constant": true
    }
  ],
  "bytecode": "0x608060405234801561001057600080fd5b50612a9f806100206000396000f3fe608060405234801561001057600080fd5b50600436106100b45760003560e01c80636f77926b116100715780636f77926b1461018d578063a19ed686146101bd578063a6322819146101db578063ae5ff905146101f7578063cbbaa58914610213578063e2842d7914610243576100b4565b80630c8273e6146100b957806325e9ccf9146100d557806341f3004a14610105578063502c9bd51461012357806364160a6b146101535780636923a07e14610171575b600080fd5b6100d360048036038101906100ce9190611948565b610261565b005b6100ef60048036038101906100ea9190611988565b6106af565b6040516100fc91906119ce565b60405180910390f35b61010d6106fa565b60405161011a9190611b87565b60405180910390f35b61013d60048036038101906101389190611bd5565b610910565b60405161014a9190611c11565b60405180910390f35b61015b61094f565b6040516101689190611cdb565b60405180910390f35b61018b60048036038101906101869190611e68565b610a1c565b005b6101a760048036038101906101a29190611988565b610d6e565b6040516101b491906120b0565b60405180910390f35b6101c56110d5565b6040516101d291906120ed565b60405180910390f35b6101f560048036038101906101f09190612108565b6111ad565b005b610211600480360381019061020c9190612151565b611334565b005b61022d60048036038101906102289190612108565b611433565b60405161023a9190612213565b60405180910390f35b61024b611632565b6040516102589190611cdb565b60405180910390f35b8073ffffffffffffffffffffffffffffffffffffffff168273ffffffffffffffffffffffffffffffffffffffff16036102cf576040517f08c379a00000000000000000000000000000000000000000000000000000000081526004016102c690612281565b60405180910390fd5b600073ffffffffffffffffffffffffffffffffffffffff166000808473ffffffffffffffffffffffffffffffffffffffff1673ffffffffffffffffffffffffffffffffffffffff16815260200190815260200160002060000160009054906101000a900473ffffffffffffffffffffffffffffffffffffffff1673ffffffffffffffffffffffffffffffffffffffff160361039f576040517f08c379a0000000000000000000000000000000000000000000000000000000008152600401610396906122ed565b60405180910390fd5b600073ffffffffffffffffffffffffffffffffffffffff166000808373ffffffffffffffffffffffffffffffffffffffff1673ffffffffffffffffffffffffffffffffffffffff16815260200190815260200160002060000160009054906101000a900473ffffffffffffffffffffffffffffffffffffffff1673ffffffffffffffffffffffffffffffffffffffff160361046f576040517f08c379a000000000000000000000000000000000000000000000000000000000815260040161046690612359565b60405180910390fd5b61047982826116c0565b156104b9576040517f08c379a00000000000000000000000000000000000000000000000000000000081526004016104b0906123c5565b60405180910390fd5b6000808373ffffffffffffffffffffffffffffffffffffffff1673ffffffffffffffffffffffffffffffffffffffff168152602001908152602001600020600801819080600181540180825580915050600190039060005260206000200160009091909190916101000a81548173ffffffffffffffffffffffffffffffffffffffff021916908373ffffffffffffffffffffffffffffffffffffffff1602179055506000808373ffffffffffffffffffffffffffffffffffffffff1673ffffffffffffffffffffffffffffffffffffffff168152602001908152602001600020600a0160008154809291906105ad90612414565b91905055506000808273ffffffffffffffffffffffffffffffffffffffff1673ffffffffffffffffffffffffffffffffffffffff168152602001908152602001600020600701829080600181540180825580915050600190039060005260206000200160009091909190916101000a81548173ffffffffffffffffffffffffffffffffffffffff021916908373ffffffffffffffffffffffffffffffffffffffff1602179055506000808273ffffffffffffffffffffffffffffffffffffffff1673ffffffffffffffffffffffffffffffffffffffff16815260200190815260200160002060090160008154809291906106a690612414565b91905055505050565b60008060008373ffffffffffffffffffffffffffffffffffffffff1673ffffffffffffffffffffffffffffffffffffffff168152602001908152602001600020600901549050919050565b60603373ffffffffffffffffffffffffffffffffffffffff166000803373ffffffffffffffffffffffffffffffffffffffff1673ffffffffffffffffffffffffffffffffffffffff16815260200190815260200160002060000160009054906101000a900473ffffffffffffffffffffffffffffffffffffffff1673ffffffffffffffffffffffffffffffffffffffff16146107cb576040517f08c379a00000000000000000000000000000000000000000000000000000000081526004016107c2906124a8565b60405180910390fd5b6002805480602002602001604051908101604052809291908181526020016000905b8282101561090757838290600052602060002090600202016040518060400160405290816000820160009054906101000a900473ffffffffffffffffffffffffffffffffffffffff1673ffffffffffffffffffffffffffffffffffffffff1673ffffffffffffffffffffffffffffffffffffffff168152602001600182018054610876906124f7565b80601f01602080910402602001604051908101604052809291908181526020018280546108a2906124f7565b80156108ef5780601f106108c4576101008083540402835291602001916108ef565b820191906000526020600020905b8154815290600101906020018083116108d257829003601f168201915b505050505081525050815260200190600101906107ed565b50505050905090565b6001818154811061092057600080fd5b906000526020600020016000915054906101000a900473ffffffffffffffffffffffffffffffffffffffff1681565b60606000803373ffffffffffffffffffffffffffffffffffffffff1673ffffffffffffffffffffffffffffffffffffffff168152602001908152602001600020600801805480602002602001604051908101604052809291908181526020018280548015610a1257602002820191906000526020600020905b8160009054906101000a900473ffffffffffffffffffffffffffffffffffffffff1673ffffffffffffffffffffffffffffffffffffffff16815260200190600101908083116109c8575b5050505050905090565b3373ffffffffffffffffffffffffffffffffffffffff166000808973ffffffffffffffffffffffffffffffffffffffff1673ffffffffffffffffffffffffffffffffffffffff16815260200190815260200160002060000160009054906101000a900473ffffffffffffffffffffffffffffffffffffffff1673ffffffffffffffffffffffffffffffffffffffff1603610aeb576040517f08c379a0000000000000000000000000000000000000000000000000000000008152600401610ae290612574565b60405180910390fd5b6001879080600181540180825580915050600190039060005260206000200160009091909190916101000a81548173ffffffffffffffffffffffffffffffffffffffff021916908373ffffffffffffffffffffffffffffffffffffffff1602179055506040518061016001604052803373ffffffffffffffffffffffffffffffffffffffff168152602001878152602001868152602001858152602001848152602001838152602001828152602001600067ffffffffffffffff811115610bb557610bb4611d07565b5b604051908082528060200260200182016040528015610be35781602001602082028036833780820191505090505b508152602001600067ffffffffffffffff811115610c0457610c03611d07565b5b604051908082528060200260200182016040528015610c325781602001602082028036833780820191505090505b5081526020016000815260200160008152506000803373ffffffffffffffffffffffffffffffffffffffff1673ffffffffffffffffffffffffffffffffffffffff16815260200190815260200160002060008201518160000160006101000a81548173ffffffffffffffffffffffffffffffffffffffff021916908373ffffffffffffffffffffffffffffffffffffffff1602179055506020820151816001019081610cde9190612740565b5060408201518160020155606082015181600301556080820151816004015560a0820151816005015560c0820151816006015560e0820151816007019080519060200190610d2d9291906117b0565b50610100820151816008019080519060200190610d4b9291906117b0565b50610120820151816009015561014082015181600a015590505050505050505050565b610d7661183a565b60008060003373ffffffffffffffffffffffffffffffffffffffff1673ffffffffffffffffffffffffffffffffffffffff16815260200190815260200160002060000160009054906101000a900473ffffffffffffffffffffffffffffffffffffffff16604051602001610dea919061285a565b6040516020818303038152906040525111610e3a576040517f08c379a0000000000000000000000000000000000000000000000000000000008152600401610e31906128c1565b60405180910390fd5b6000808373ffffffffffffffffffffffffffffffffffffffff1673ffffffffffffffffffffffffffffffffffffffff168152602001908152602001600020604051806101600160405290816000820160009054906101000a900473ffffffffffffffffffffffffffffffffffffffff1673ffffffffffffffffffffffffffffffffffffffff1673ffffffffffffffffffffffffffffffffffffffff168152602001600182018054610eea906124f7565b80601f0160208091040260200160405190810160405280929190818152602001828054610f16906124f7565b8015610f635780601f10610f3857610100808354040283529160200191610f63565b820191906000526020600020905b815481529060010190602001808311610f4657829003601f168201915b5050505050815260200160028201548152602001600382015481526020016004820154815260200160058201548152602001600682015481526020016007820180548060200260200160405190810160405280929190818152602001828054801561102357602002820191906000526020600020905b8160009054906101000a900473ffffffffffffffffffffffffffffffffffffffff1673ffffffffffffffffffffffffffffffffffffffff1681526020019060010190808311610fd9575b50505050508152602001600882018054806020026020016040519081016040528092919081815260200182805480156110b157602002820191906000526020600020905b8160009054906101000a900473ffffffffffffffffffffffffffffffffffffffff1673ffffffffffffffffffffffffffffffffffffffff1681526020019060010190808311611067575b5050505050815260200160098201548152602001600a820154815250509050919050565b60008073ffffffffffffffffffffffffffffffffffffffff166000803373ffffffffffffffffffffffffffffffffffffffff1673ffffffffffffffffffffffffffffffffffffffff16815260200190815260200160002060000160009054906101000a900473ffffffffffffffffffffffffffffffffffffffff1673ffffffffffffffffffffffffffffffffffffffff16036111a6576040517f08c379a000000000000000000000000000000000000000000000000000000000815260040161119d906128c1565b60405180910390fd5b6001905090565b3373ffffffffffffffffffffffffffffffffffffffff166000803373ffffffffffffffffffffffffffffffffffffffff1673ffffffffffffffffffffffffffffffffffffffff16815260200190815260200160002060000160009054906101000a900473ffffffffffffffffffffffffffffffffffffffff1673ffffffffffffffffffffffffffffffffffffffff161461127c576040517f08c379a0000000000000000000000000000000000000000000000000000000008152600401611273906124a8565b60405180910390fd5b600260405180604001604052803373ffffffffffffffffffffffffffffffffffffffff16815260200183815250908060018154018082558091505060019003906000526020600020906002020160009091909190915060008201518160000160006101000a81548173ffffffffffffffffffffffffffffffffffffffff021916908373ffffffffffffffffffffffffffffffffffffffff160217905550602082015181600101908161132e9190612740565b50505050565b3373ffffffffffffffffffffffffffffffffffffffff166000803373ffffffffffffffffffffffffffffffffffffffff1673ffffffffffffffffffffffffffffffffffffffff16815260200190815260200160002060000160009054906101000a900473ffffffffffffffffffffffffffffffffffffffff1673ffffffffffffffffffffffffffffffffffffffff1614611403576040517f08c379a00000000000000000000000000000000000000000000000000000000081526004016113fa906124a8565b60405180910390fd5b80600383604051611414919061291d565b9081526020016040518091039020908161142e9190612740565b505050565b60603373ffffffffffffffffffffffffffffffffffffffff166000803373ffffffffffffffffffffffffffffffffffffffff1673ffffffffffffffffffffffffffffffffffffffff16815260200190815260200160002060000160009054906101000a900473ffffffffffffffffffffffffffffffffffffffff1673ffffffffffffffffffffffffffffffffffffffff1614611504576040517f08c379a00000000000000000000000000000000000000000000000000000000081526004016114fb906124a8565b60405180910390fd5b6000600383604051611516919061291d565b908152602001604051809103902060405160200161153491906129b7565b6040516020818303038152906040525111611584576040517f08c379a000000000000000000000000000000000000000000000000000000000815260040161157b90612a1a565b60405180910390fd5b600382604051611594919061291d565b908152602001604051809103902080546115ad906124f7565b80601f01602080910402602001604051908101604052809291908181526020018280546115d9906124f7565b80156116265780601f106115fb57610100808354040283529160200191611626565b820191906000526020600020905b81548152906001019060200180831161160957829003601f168201915b50505050509050919050565b606060018054806020026020016040519081016040528092919081815260200182805480156116b657602002820191906000526020600020905b8160009054906101000a900473ffffffffffffffffffffffffffffffffffffffff1673ffffffffffffffffffffffffffffffffffffffff168152602001906001019080831161166c575b5050505050905090565b6000806000808573ffffffffffffffffffffffffffffffffffffffff1673ffffffffffffffffffffffffffffffffffffffff168152602001908152602001600020600801905060005b81805490508110156117a3578373ffffffffffffffffffffffffffffffffffffffff1682828154811061173f5761173e612a3a565b5b9060005260206000200160009054906101000a900473ffffffffffffffffffffffffffffffffffffffff1673ffffffffffffffffffffffffffffffffffffffff1603611790576001925050506117aa565b808061179b90612414565b915050611709565b5060009150505b92915050565b828054828255906000526020600020908101928215611829579160200282015b828111156118285782518260006101000a81548173ffffffffffffffffffffffffffffffffffffffff021916908373ffffffffffffffffffffffffffffffffffffffff160217905550916020019190600101906117d0565b5b50905061183691906118b9565b5090565b604051806101600160405280600073ffffffffffffffffffffffffffffffffffffffff168152602001606081526020016000801916815260200160008019168152602001600080191681526020016000801916815260200160008019168152602001606081526020016060815260200160008152602001600081525090565b5b808211156118d25760008160009055506001016118ba565b5090565b6000604051905090565b600080fd5b600080fd5b600073ffffffffffffffffffffffffffffffffffffffff82169050919050565b6000611915826118ea565b9050919050565b6119258161190a565b811461193057600080fd5b50565b6000813590506119428161191c565b92915050565b6000806040838503121561195f5761195e6118e0565b5b600061196d85828601611933565b925050602061197e85828601611933565b9150509250929050565b60006020828403121561199e5761199d6118e0565b5b60006119ac84828501611933565b91505092915050565b6000819050919050565b6119c8816119b5565b82525050565b60006020820190506119e360008301846119bf565b92915050565b600081519050919050565b600082825260208201905092915050565b6000819050602082019050919050565b611a1e8161190a565b82525050565b600081519050919050565b600082825260208201905092915050565b60005b83811015611a5e578082015181840152602081019050611a43565b60008484015250505050565b6000601f19601f8301169050919050565b6000611a8682611a24565b611a908185611a2f565b9350611aa0818560208601611a40565b611aa981611a6a565b840191505092915050565b6000604083016000830151611acc6000860182611a15565b5060208301518482036020860152611ae48282611a7b565b9150508091505092915050565b6000611afd8383611ab4565b905092915050565b6000602082019050919050565b6000611b1d826119e9565b611b2781856119f4565b935083602082028501611b3985611a05565b8060005b85811015611b755784840389528151611b568582611af1565b9450611b6183611b05565b925060208a01995050600181019050611b3d565b50829750879550505050505092915050565b60006020820190508181036000830152611ba18184611b12565b905092915050565b611bb2816119b5565b8114611bbd57600080fd5b50565b600081359050611bcf81611ba9565b92915050565b600060208284031215611beb57611bea6118e0565b5b6000611bf984828501611bc0565b91505092915050565b611c0b8161190a565b82525050565b6000602082019050611c266000830184611c02565b92915050565b600081519050919050565b600082825260208201905092915050565b6000819050602082019050919050565b6000611c648383611a15565b60208301905092915050565b6000602082019050919050565b6000611c8882611c2c565b611c928185611c37565b9350611c9d83611c48565b8060005b83811015611cce578151611cb58882611c58565b9750611cc083611c70565b925050600181019050611ca1565b5085935050505092915050565b60006020820190508181036000830152611cf58184611c7d565b905092915050565b600080fd5b600080fd5b7f4e487b7100000000000000000000000000000000000000000000000000000000600052604160045260246000fd5b611d3f82611a6a565b810181811067ffffffffffffffff82111715611d5e57611d5d611d07565b5b80604052505050565b6000611d716118d6565b9050611d7d8282611d36565b919050565b600067ffffffffffffffff821115611d9d57611d9c611d07565b5b611da682611a6a565b9050602081019050919050565b82818337600083830152505050565b6000611dd5611dd084611d82565b611d67565b905082815260208101848484011115611df157611df0611d02565b5b611dfc848285611db3565b509392505050565b600082601f830112611e1957611e18611cfd565b5b8135611e29848260208601611dc2565b91505092915050565b6000819050919050565b611e4581611e32565b8114611e5057600080fd5b50565b600081359050611e6281611e3c565b92915050565b600080600080600080600060e0888a031215611e8757611e866118e0565b5b6000611e958a828b01611933565b975050602088013567ffffffffffffffff811115611eb657611eb56118e5565b5b611ec28a828b01611e04565b9650506040611ed38a828b01611e53565b9550506060611ee48a828b01611e53565b9450506080611ef58a828b01611e53565b93505060a0611f068a828b01611e53565b92505060c0611f178a828b01611e53565b91505092959891949750929550565b611f2f81611e32565b82525050565b600082825260208201905092915050565b6000611f5182611c2c565b611f5b8185611f35565b9350611f6683611c48565b8060005b83811015611f97578151611f7e8882611c58565b9750611f8983611c70565b925050600181019050611f6a565b5085935050505092915050565b611fad816119b5565b82525050565b600061016083016000830151611fcc6000860182611a15565b5060208301518482036020860152611fe48282611a7b565b9150506040830151611ff96040860182611f26565b50606083015161200c6060860182611f26565b50608083015161201f6080860182611f26565b5060a083015161203260a0860182611f26565b5060c083015161204560c0860182611f26565b5060e083015184820360e086015261205d8282611f46565b9150506101008301518482036101008601526120798282611f46565b915050610120830151612090610120860182611fa4565b506101408301516120a5610140860182611fa4565b508091505092915050565b600060208201905081810360008301526120ca8184611fb3565b905092915050565b60008115159050919050565b6120e7816120d2565b82525050565b600060208201905061210260008301846120de565b92915050565b60006020828403121561211e5761211d6118e0565b5b600082013567ffffffffffffffff81111561213c5761213b6118e5565b5b61214884828501611e04565b91505092915050565b60008060408385031215612168576121676118e0565b5b600083013567ffffffffffffffff811115612186576121856118e5565b5b61219285828601611e04565b925050602083013567ffffffffffffffff8111156121b3576121b26118e5565b5b6121bf85828601611e04565b9150509250929050565b600082825260208201905092915050565b60006121e582611a24565b6121ef81856121c9565b93506121ff818560208601611a40565b61220881611a6a565b840191505092915050565b6000602082019050818103600083015261222d81846121da565b905092915050565b7f43616e6e6f7420666f6c6c6f7720796f757273656c6600000000000000000000600082015250565b600061226b6016836121c9565b915061227682612235565b602082019050919050565b6000602082019050818103600083015261229a8161225e565b9050919050565b7f43757272656e74207573657220646f6573206e6f742065786973740000000000600082015250565b60006122d7601b836121c9565b91506122e2826122a1565b602082019050919050565b60006020820190508181036000830152612306816122ca565b9050919050565b7f5573657220746f20666f6c6c6f7720646f6573206e6f74206578697374000000600082015250565b6000612343601d836121c9565b915061234e8261230d565b602082019050919050565b6000602082019050818103600083015261237281612336565b9050919050565b7f416c726561647920666f6c6c6f77696e67207468697320757365720000000000600082015250565b60006123af601b836121c9565b91506123ba82612379565b602082019050919050565b600060208201905081810360008301526123de816123a2565b9050919050565b7f4e487b7100000000000000000000000000000000000000000000000000000000600052601160045260246000fd5b600061241f826119b5565b91507fffffffffffffffffffffffffffffffffffffffffffffffffffffffffffffffff8203612451576124506123e5565b5b600182019050919050565b7f5573657220646f65736e27742065786973740000000000000000000000000000600082015250565b60006124926012836121c9565b915061249d8261245c565b602082019050919050565b600060208201905081810360008301526124c181612485565b9050919050565b7f4e487b7100000000000000000000000000000000000000000000000000000000600052602260045260246000fd5b6000600282049050600182168061250f57607f821691505b602082108103612522576125216124c8565b5b50919050565b7f5573657220616c72656164792072656769737465726564000000000000000000600082015250565b600061255e6017836121c9565b915061256982612528565b602082019050919050565b6000602082019050818103600083015261258d81612551565b9050919050565b60008190508160005260206000209050919050565b60006020601f8301049050919050565b600082821b905092915050565b6000600883026125f67fffffffffffffffffffffffffffffffffffffffffffffffffffffffffffffffff826125b9565b61260086836125b9565b95508019841693508086168417925050509392505050565b6000819050919050565b600061263d612638612633846119b5565b612618565b6119b5565b9050919050565b6000819050919050565b61265783612622565b61266b61266382612644565b8484546125c6565b825550505050565b600090565b612680612673565b61268b81848461264e565b505050565b5b818110156126af576126a4600082612678565b600181019050612691565b5050565b601f8211156126f4576126c581612594565b6126ce846125a9565b810160208510156126dd578190505b6126f16126e9856125a9565b830182612690565b50505b505050565b600082821c905092915050565b6000612717600019846008026126f9565b1980831691505092915050565b60006127308383612706565b9150826002028217905092915050565b61274982611a24565b67ffffffffffffffff81111561276257612761611d07565b5b61276c82546124f7565b6127778282856126b3565b600060209050601f8311600181146127aa5760008415612798578287015190505b6127a28582612724565b86555061280a565b601f1984166127b886612594565b60005b828110156127e0578489015182556001820191506020850194506020810190506127bb565b868310156127fd57848901516127f9601f891682612706565b8355505b6001600288020188555050505b505050505050565b60008160601b9050919050565b600061282a82612812565b9050919050565b600061283c8261281f565b9050919050565b61285461284f8261190a565b612831565b82525050565b60006128668284612843565b60148201915081905092915050565b7f7573657220646f65736e27742065786973740000000000000000000000000000600082015250565b60006128ab6012836121c9565b91506128b682612875565b602082019050919050565b600060208201905081810360008301526128da8161289e565b9050919050565b600081905092915050565b60006128f782611a24565b61290181856128e1565b9350612911818560208601611a40565b80840191505092915050565b600061292982846128ec565b915081905092915050565b60008154612941816124f7565b61294b81866128e1565b94506001821660008114612966576001811461297b576129ae565b60ff19831686528115158202860193506129ae565b61298485612594565b60005b838110156129a657815481890152600182019150602081019050612987565b838801955050505b50505092915050565b60006129c38284612934565b915081905092915050565b7f4e6f20636f6d6d656e7473000000000000000000000000000000000000000000600082015250565b6000612a04600b836121c9565b9150612a0f826129ce565b602082019050919050565b60006020820190508181036000830152612a33816129f7565b9050919050565b7f4e487b7100000000000000000000000000000000000000000000000000000000600052603260045260246000fdfea26469706673582212205e14bb6ce36ca721f1628613a522d62a6cc39c2f8ff08872e81ddbc72debcc0f64736f6c63430008120033",
  "immutableReferences": {},
  "source": "// SPDX-License-Identifier: MIT\r\npragma solidity ^0.8.13;\r\n\r\ncontract SocialNetwork {\r\n    //////////////////////////////////////////////////////////////////////////////////////////////////////////////////////\r\n    //  User Authentication Section                                                                                     //\r\n    //////////////////////////////////////////////////////////////////////////////////////////////////////////////////////\r\n\r\n    struct userData {\r\n        address userAddress;\r\n        string imageCID;\r\n        bytes32 userName;\r\n        bytes32 firstName;\r\n        bytes32 lastName;\r\n        bytes32 dateOfBirth;\r\n        bytes32 status;\r\n        address[] followers;\r\n        address[] following;\r\n        uint followersCount;\r\n        uint followingCount;\r\n    }\r\n\r\n    mapping(address => userData) accounts;\r\n\r\n    address[] public userAddresses;\r\n\r\n    function registerUser(\r\n        address _userAddress,\r\n        string memory _imageCID,\r\n        bytes32 _userName,\r\n        bytes32 _firstName,\r\n        bytes32 _lastName,\r\n        bytes32 _dateOfBirth,\r\n        bytes32 _status\r\n    ) public {\r\n        require(\r\n            accounts[_userAddress].userAddress != msg.sender,\r\n            \"User already registered\"\r\n        );\r\n        userAddresses.push(_userAddress);\r\n        accounts[msg.sender] = userData({\r\n            userAddress: msg.sender,\r\n            imageCID: _imageCID,\r\n            userName: _userName,\r\n            firstName: _firstName,\r\n            lastName: _lastName,\r\n            dateOfBirth: _dateOfBirth,\r\n            status: _status,\r\n            followers: new address[](0),\r\n            following: new address[](0),\r\n            followersCount: 0,\r\n            followingCount: 0\r\n        });\r\n    }\r\n\r\n    function getAllUsers() public view returns (address[] memory) {\r\n        return userAddresses;\r\n    }\r\n\r\n    function getUser(\r\n        address userAddress\r\n    ) public view returns (userData memory) {\r\n        require(\r\n            abi.encodePacked(accounts[msg.sender].userAddress).length > 0,\r\n            \"user doesn't exist\"\r\n        );\r\n        return accounts[userAddress];\r\n    }\r\n\r\n    function loginUser() public view returns (bool) {\r\n        require(\r\n            accounts[msg.sender].userAddress != address(0),\r\n            \"user doesn't exist\"\r\n        );\r\n        return true;\r\n    }\r\n\r\n    //////////////////////////////////////////////////////////////////////////////////////////////////////////////////////\r\n    //  Post and Comment Section                                                                                        //\r\n    //////////////////////////////////////////////////////////////////////////////////////////////////////////////////////\r\n\r\n    struct post {\r\n        address userAddress;\r\n        string postCID;\r\n    }\r\n\r\n    // string[] postList;\r\n    // mapping(string => post) postData;\r\n\r\n    // function addPost(string memory _PostCID) public {\r\n    //     require(\r\n    //         accounts[msg.sender].userAddress == msg.sender,\r\n    //         \"User doesn't exist\"\r\n    //     );\r\n    //     postList.push(_PostCID);\r\n    //     postData[_PostCID] = post({\r\n    //         userAddress: msg.sender,\r\n    //         postCID: _PostCID,\r\n    //         commentCID: \"\"\r\n    //     });\r\n    // }\r\n\r\n    post[] allPostData;\r\n    mapping(string => string) allComments;\r\n\r\n    function addPost(string memory _PostCID) public {\r\n        require(\r\n            accounts[msg.sender].userAddress == msg.sender,\r\n            \"User doesn't exist\"\r\n        );\r\n        allPostData.push(post({userAddress: msg.sender, postCID: _PostCID}));\r\n    }\r\n\r\n    function addComment(\r\n        string memory _postCID,\r\n        string memory _CommentCID\r\n    ) public {\r\n        require(\r\n            accounts[msg.sender].userAddress == msg.sender,\r\n            \"User doesn't exist\"\r\n        );\r\n        allComments[_postCID] = _CommentCID;\r\n    }\r\n\r\n    function getComment(\r\n        string memory _postCID\r\n    ) public view returns (string memory) {\r\n        require(\r\n            accounts[msg.sender].userAddress == msg.sender,\r\n            \"User doesn't exist\"\r\n        );\r\n\r\n        require(\r\n            abi.encodePacked(allComments[_postCID]).length > 0,\r\n            \"No comments\"\r\n        );\r\n\r\n        return allComments[_postCID];\r\n    }\r\n\r\n    function getPosts() public view returns (post[] memory) {\r\n        require(\r\n            accounts[msg.sender].userAddress == msg.sender,\r\n            \"User doesn't exist\"\r\n        );\r\n        return allPostData;\r\n    }\r\n\r\n    function followUser(address _currentUser, address _userToFollow) public {\r\n        require(_currentUser != _userToFollow, \"Cannot follow yourself\");\r\n\r\n        // Ensure both users exist\r\n        require(\r\n            accounts[_currentUser].userAddress != address(0),\r\n            \"Current user does not exist\"\r\n        );\r\n        require(\r\n            accounts[_userToFollow].userAddress != address(0),\r\n            \"User to follow does not exist\"\r\n        );\r\n\r\n        // Check if the current user is already following the user to follow\r\n        require(\r\n            !isFollowing(_currentUser, _userToFollow),\r\n            \"Already following this user\"\r\n        );\r\n\r\n        // Add the user to follow to the following list of the current user\r\n        accounts[_currentUser].following.push(_userToFollow);\r\n        accounts[_currentUser].followingCount++;\r\n\r\n        // Add the current user to the followers list of the user to follow\r\n        accounts[_userToFollow].followers.push(_currentUser);\r\n        accounts[_userToFollow].followersCount++;\r\n    }\r\n\r\n    // Function to check if a user is already following another user\r\n    function isFollowing(\r\n        address _currentUser,\r\n        address _userToFollow\r\n    ) internal view returns (bool) {\r\n        address[] storage following = accounts[_currentUser].following;\r\n        for (uint i = 0; i < following.length; i++) {\r\n            if (following[i] == _userToFollow) {\r\n                return true;\r\n            }\r\n        }\r\n        return false;\r\n    }\r\n\r\n    function getFollowedUsers() public view returns (address[] memory) {\r\n        return accounts[msg.sender].following;\r\n    }\r\n\r\n    function getFollowersCount(address userAddress) public view returns (uint) {\r\n        return accounts[userAddress].followersCount;\r\n    }\r\n}\r\n",
  "sourcePath": "C:\\Users\\abhis\\OneDrive\\Documents\\Main Project\\MP\\DPOSN\\truffle\\contracts\\SocialNetwork.sol",
  "compiler": {
    "name": "solc",
    "version": "0.8.18+commit.87f61d96.Emscripten.clang"
  },
  "schemaVersion": "3.4.16",
  "updatedAt": "2024-03-29T14:53:22.348Z",
  "networkType": "ethereum",
  "devdoc": {
    "kind": "dev",
    "methods": {},
    "version": 1
  },
  "userdoc": {
    "kind": "user",
    "methods": {},
    "version": 1
  }
}