{
  "contractName": "SocialNetwork",
  "abi": [
    {
      "inputs": [
        {
          "internalType": "uint256",
          "name": "",
          "type": "uint256"
        }
      ],
      "name": "userAddresses",
      "outputs": [
        {
          "internalType": "address",
          "name": "",
          "type": "address"
        }
      ],
      "stateMutability": "view",
      "type": "function",
      "constant": true
    },
    {
      "inputs": [
        {
          "internalType": "address",
          "name": "_userAddress",
          "type": "address"
        },
        {
          "internalType": "string",
          "name": "_imageCID",
          "type": "string"
        },
        {
          "internalType": "bytes32",
          "name": "_userName",
          "type": "bytes32"
        },
        {
          "internalType": "bytes32",
          "name": "_firstName",
          "type": "bytes32"
        },
        {
          "internalType": "bytes32",
          "name": "_lastName",
          "type": "bytes32"
        },
        {
          "internalType": "bytes32",
          "name": "_dateOfBirth",
          "type": "bytes32"
        },
        {
          "internalType": "bytes32",
          "name": "_status",
          "type": "bytes32"
        }
      ],
      "name": "registerUser",
      "outputs": [],
      "stateMutability": "nonpayable",
      "type": "function"
    },
    {
      "inputs": [],
      "name": "getAllUsers",
      "outputs": [
        {
          "internalType": "address[]",
          "name": "",
          "type": "address[]"
        }
      ],
      "stateMutability": "view",
      "type": "function",
      "constant": true
    },
    {
      "inputs": [
        {
          "internalType": "address",
          "name": "userAddress",
          "type": "address"
        }
      ],
      "name": "getUser",
      "outputs": [
        {
          "components": [
            {
              "internalType": "address",
              "name": "userAddress",
              "type": "address"
            },
            {
              "internalType": "string",
              "name": "imageCID",
              "type": "string"
            },
            {
              "internalType": "bytes32",
              "name": "userName",
              "type": "bytes32"
            },
            {
              "internalType": "bytes32",
              "name": "firstName",
              "type": "bytes32"
            },
            {
              "internalType": "bytes32",
              "name": "lastName",
              "type": "bytes32"
            },
            {
              "internalType": "bytes32",
              "name": "dateOfBirth",
              "type": "bytes32"
            },
            {
              "internalType": "bytes32",
              "name": "status",
              "type": "bytes32"
            },
            {
              "internalType": "address[]",
              "name": "followers",
              "type": "address[]"
            },
            {
              "internalType": "address[]",
              "name": "following",
              "type": "address[]"
            },
            {
              "internalType": "uint256",
              "name": "followersCount",
              "type": "uint256"
            },
            {
              "internalType": "uint256",
              "name": "followingCount",
              "type": "uint256"
            }
          ],
          "internalType": "struct SocialNetwork.userData",
          "name": "",
          "type": "tuple"
        }
      ],
      "stateMutability": "view",
      "type": "function",
      "constant": true
    },
    {
      "inputs": [],
      "name": "loginUser",
      "outputs": [
        {
          "internalType": "bool",
          "name": "",
          "type": "bool"
        }
      ],
      "stateMutability": "view",
      "type": "function",
      "constant": true
    },
    {
      "inputs": [
        {
          "internalType": "string",
          "name": "_PostCID",
          "type": "string"
        }
      ],
      "name": "addPost",
      "outputs": [],
      "stateMutability": "nonpayable",
      "type": "function"
    },
    {
      "inputs": [],
      "name": "getPosts",
      "outputs": [
        {
          "components": [
            {
              "internalType": "address",
              "name": "userAddress",
              "type": "address"
            },
            {
              "internalType": "string",
              "name": "postCID",
              "type": "string"
            }
          ],
          "internalType": "struct SocialNetwork.post[]",
          "name": "",
          "type": "tuple[]"
        }
      ],
      "stateMutability": "view",
      "type": "function",
      "constant": true
    },
    {
      "inputs": [
        {
          "internalType": "string",
          "name": "_postCID",
          "type": "string"
        },
        {
          "internalType": "string",
          "name": "_CommentCID",
          "type": "string"
        }
      ],
      "name": "addComment",
      "outputs": [],
      "stateMutability": "nonpayable",
      "type": "function"
    },
    {
      "inputs": [
        {
          "internalType": "string",
          "name": "_postCID",
          "type": "string"
        }
      ],
      "name": "getComment",
      "outputs": [
        {
          "internalType": "string",
          "name": "",
          "type": "string"
        }
      ],
      "stateMutability": "view",
      "type": "function",
      "constant": true
    },
    {
      "inputs": [
        {
          "internalType": "string",
          "name": "_postCID",
          "type": "string"
        },
        {
          "internalType": "string",
          "name": "_likesCID",
          "type": "string"
        }
      ],
      "name": "addLikes",
      "outputs": [],
      "stateMutability": "nonpayable",
      "type": "function"
    },
    {
      "inputs": [
        {
          "internalType": "string",
          "name": "_postCID",
          "type": "string"
        }
      ],
      "name": "getLikes",
      "outputs": [
        {
          "internalType": "string",
          "name": "",
          "type": "string"
        }
      ],
      "stateMutability": "view",
      "type": "function",
      "constant": true
    },
    {
      "inputs": [
        {
          "internalType": "string",
          "name": "_postCID",
          "type": "string"
        },
        {
          "internalType": "string",
          "name": "_reportCID",
          "type": "string"
        }
      ],
      "name": "addReports",
      "outputs": [],
      "stateMutability": "nonpayable",
      "type": "function"
    },
    {
      "inputs": [
        {
          "internalType": "string",
          "name": "_postCID",
          "type": "string"
        }
      ],
      "name": "getReports",
      "outputs": [
        {
          "internalType": "string",
          "name": "",
          "type": "string"
        }
      ],
      "stateMutability": "view",
      "type": "function",
      "constant": true
    },
    {
      "inputs": [
        {
          "internalType": "address",
          "name": "_currentUser",
          "type": "address"
        },
        {
          "internalType": "address",
          "name": "_userToFollow",
          "type": "address"
        }
      ],
      "name": "followUser",
      "outputs": [],
      "stateMutability": "nonpayable",
      "type": "function"
    },
    {
      "inputs": [],
      "name": "getFollowedUsers",
      "outputs": [
        {
          "internalType": "address[]",
          "name": "",
          "type": "address[]"
        }
      ],
      "stateMutability": "view",
      "type": "function",
      "constant": true
    },
    {
      "inputs": [
        {
          "internalType": "address",
          "name": "userAddress",
          "type": "address"
        }
      ],
      "name": "getFollowersCount",
      "outputs": [
        {
          "internalType": "uint256",
          "name": "",
          "type": "uint256"
        }
      ],
      "stateMutability": "view",
      "type": "function",
      "constant": true
    }
  ],
  "bytecode": "0x608060405234801561001057600080fd5b5061316b806100206000396000f3fe608060405234801561001057600080fd5b50600436106101005760003560e01c80636f77926b11610097578063a632281911610066578063a6322819146102bf578063ae5ff905146102db578063cbbaa589146102f7578063e2842d791461032757610100565b80636f77926b1461022557806374bfb003146102555780639e5019ef14610285578063a19ed686146102a157610100565b806341f3004a116100d357806341f3004a1461019d578063502c9bd5146101bb57806364160a6b146101eb5780636923a07e1461020957610100565b80630c8273e6146101055780631a68638a14610121578063208d40a21461015157806325e9ccf91461016d575b600080fd5b61011f600480360381019061011a9190611fa8565b610345565b005b61013b6004803603810190610136919061212e565b610793565b60405161014891906121f6565b60405180910390f35b61016b60048036038101906101669190612218565b610912565b005b61018760048036038101906101829190612290565b610a11565b60405161019491906122d6565b60405180910390f35b6101a5610a5c565b6040516101b29190612449565b60405180910390f35b6101d560048036038101906101d09190612497565b610c72565b6040516101e291906124d3565b60405180910390f35b6101f3610cb1565b604051610200919061259d565b60405180910390f35b610223600480360381019061021e91906125f5565b610d7e565b005b61023f600480360381019061023a9190612290565b6110d0565b60405161024c919061283d565b60405180910390f35b61026f600480360381019061026a919061212e565b611437565b60405161027c91906121f6565b60405180910390f35b61029f600480360381019061029a9190612218565b611636565b005b6102a9611735565b6040516102b6919061287a565b60405180910390f35b6102d960048036038101906102d4919061212e565b61180d565b005b6102f560048036038101906102f09190612218565b611994565b005b610311600480360381019061030c919061212e565b611a93565b60405161031e91906121f6565b60405180910390f35b61032f611c92565b60405161033c919061259d565b60405180910390f35b8073ffffffffffffffffffffffffffffffffffffffff168273ffffffffffffffffffffffffffffffffffffffff16036103b3576040517f08c379a00000000000000000000000000000000000000000000000000000000081526004016103aa906128e1565b60405180910390fd5b600073ffffffffffffffffffffffffffffffffffffffff166000808473ffffffffffffffffffffffffffffffffffffffff1673ffffffffffffffffffffffffffffffffffffffff16815260200190815260200160002060000160009054906101000a900473ffffffffffffffffffffffffffffffffffffffff1673ffffffffffffffffffffffffffffffffffffffff1603610483576040517f08c379a000000000000000000000000000000000000000000000000000000000815260040161047a9061294d565b60405180910390fd5b600073ffffffffffffffffffffffffffffffffffffffff166000808373ffffffffffffffffffffffffffffffffffffffff1673ffffffffffffffffffffffffffffffffffffffff16815260200190815260200160002060000160009054906101000a900473ffffffffffffffffffffffffffffffffffffffff1673ffffffffffffffffffffffffffffffffffffffff1603610553576040517f08c379a000000000000000000000000000000000000000000000000000000000815260040161054a906129b9565b60405180910390fd5b61055d8282611d20565b1561059d576040517f08c379a000000000000000000000000000000000000000000000000000000000815260040161059490612a25565b60405180910390fd5b6000808373ffffffffffffffffffffffffffffffffffffffff1673ffffffffffffffffffffffffffffffffffffffff168152602001908152602001600020600801819080600181540180825580915050600190039060005260206000200160009091909190916101000a81548173ffffffffffffffffffffffffffffffffffffffff021916908373ffffffffffffffffffffffffffffffffffffffff1602179055506000808373ffffffffffffffffffffffffffffffffffffffff1673ffffffffffffffffffffffffffffffffffffffff168152602001908152602001600020600a01600081548092919061069190612a74565b91905055506000808273ffffffffffffffffffffffffffffffffffffffff1673ffffffffffffffffffffffffffffffffffffffff168152602001908152602001600020600701829080600181540180825580915050600190039060005260206000200160009091909190916101000a81548173ffffffffffffffffffffffffffffffffffffffff021916908373ffffffffffffffffffffffffffffffffffffffff1602179055506000808273ffffffffffffffffffffffffffffffffffffffff1673ffffffffffffffffffffffffffffffffffffffff168152602001908152602001600020600901600081548092919061078a90612a74565b91905055505050565b60603373ffffffffffffffffffffffffffffffffffffffff166000803373ffffffffffffffffffffffffffffffffffffffff1673ffffffffffffffffffffffffffffffffffffffff16815260200190815260200160002060000160009054906101000a900473ffffffffffffffffffffffffffffffffffffffff1673ffffffffffffffffffffffffffffffffffffffff1614610864576040517f08c379a000000000000000000000000000000000000000000000000000000000815260040161085b90612b08565b60405180910390fd5b6005826040516108749190612b64565b9081526020016040518091039020805461088d90612baa565b80601f01602080910402602001604051908101604052809291908181526020018280546108b990612baa565b80156109065780601f106108db57610100808354040283529160200191610906565b820191906000526020600020905b8154815290600101906020018083116108e957829003601f168201915b50505050509050919050565b3373ffffffffffffffffffffffffffffffffffffffff166000803373ffffffffffffffffffffffffffffffffffffffff1673ffffffffffffffffffffffffffffffffffffffff16815260200190815260200160002060000160009054906101000a900473ffffffffffffffffffffffffffffffffffffffff1673ffffffffffffffffffffffffffffffffffffffff16146109e1576040517f08c379a00000000000000000000000000000000000000000000000000000000081526004016109d890612b08565b60405180910390fd5b806005836040516109f29190612b64565b90815260200160405180910390209081610a0c9190612d87565b505050565b60008060008373ffffffffffffffffffffffffffffffffffffffff1673ffffffffffffffffffffffffffffffffffffffff168152602001908152602001600020600901549050919050565b60603373ffffffffffffffffffffffffffffffffffffffff166000803373ffffffffffffffffffffffffffffffffffffffff1673ffffffffffffffffffffffffffffffffffffffff16815260200190815260200160002060000160009054906101000a900473ffffffffffffffffffffffffffffffffffffffff1673ffffffffffffffffffffffffffffffffffffffff1614610b2d576040517f08c379a0000000000000000000000000000000000000000000000000000000008152600401610b2490612b08565b60405180910390fd5b6002805480602002602001604051908101604052809291908181526020016000905b82821015610c6957838290600052602060002090600202016040518060400160405290816000820160009054906101000a900473ffffffffffffffffffffffffffffffffffffffff1673ffffffffffffffffffffffffffffffffffffffff1673ffffffffffffffffffffffffffffffffffffffff168152602001600182018054610bd890612baa565b80601f0160208091040260200160405190810160405280929190818152602001828054610c0490612baa565b8015610c515780601f10610c2657610100808354040283529160200191610c51565b820191906000526020600020905b815481529060010190602001808311610c3457829003601f168201915b50505050508152505081526020019060010190610b4f565b50505050905090565b60018181548110610c8257600080fd5b906000526020600020016000915054906101000a900473ffffffffffffffffffffffffffffffffffffffff1681565b60606000803373ffffffffffffffffffffffffffffffffffffffff1673ffffffffffffffffffffffffffffffffffffffff168152602001908152602001600020600801805480602002602001604051908101604052809291908181526020018280548015610d7457602002820191906000526020600020905b8160009054906101000a900473ffffffffffffffffffffffffffffffffffffffff1673ffffffffffffffffffffffffffffffffffffffff1681526020019060010190808311610d2a575b5050505050905090565b3373ffffffffffffffffffffffffffffffffffffffff166000808973ffffffffffffffffffffffffffffffffffffffff1673ffffffffffffffffffffffffffffffffffffffff16815260200190815260200160002060000160009054906101000a900473ffffffffffffffffffffffffffffffffffffffff1673ffffffffffffffffffffffffffffffffffffffff1603610e4d576040517f08c379a0000000000000000000000000000000000000000000000000000000008152600401610e4490612ea5565b60405180910390fd5b6001879080600181540180825580915050600190039060005260206000200160009091909190916101000a81548173ffffffffffffffffffffffffffffffffffffffff021916908373ffffffffffffffffffffffffffffffffffffffff1602179055506040518061016001604052803373ffffffffffffffffffffffffffffffffffffffff168152602001878152602001868152602001858152602001848152602001838152602001828152602001600067ffffffffffffffff811115610f1757610f16612003565b5b604051908082528060200260200182016040528015610f455781602001602082028036833780820191505090505b508152602001600067ffffffffffffffff811115610f6657610f65612003565b5b604051908082528060200260200182016040528015610f945781602001602082028036833780820191505090505b5081526020016000815260200160008152506000803373ffffffffffffffffffffffffffffffffffffffff1673ffffffffffffffffffffffffffffffffffffffff16815260200190815260200160002060008201518160000160006101000a81548173ffffffffffffffffffffffffffffffffffffffff021916908373ffffffffffffffffffffffffffffffffffffffff16021790555060208201518160010190816110409190612d87565b5060408201518160020155606082015181600301556080820151816004015560a0820151816005015560c0820151816006015560e082015181600701908051906020019061108f929190611e10565b506101008201518160080190805190602001906110ad929190611e10565b50610120820151816009015561014082015181600a015590505050505050505050565b6110d8611e9a565b60008060003373ffffffffffffffffffffffffffffffffffffffff1673ffffffffffffffffffffffffffffffffffffffff16815260200190815260200160002060000160009054906101000a900473ffffffffffffffffffffffffffffffffffffffff1660405160200161114c9190612f0d565b604051602081830303815290604052511161119c576040517f08c379a000000000000000000000000000000000000000000000000000000000815260040161119390612f74565b60405180910390fd5b6000808373ffffffffffffffffffffffffffffffffffffffff1673ffffffffffffffffffffffffffffffffffffffff168152602001908152602001600020604051806101600160405290816000820160009054906101000a900473ffffffffffffffffffffffffffffffffffffffff1673ffffffffffffffffffffffffffffffffffffffff1673ffffffffffffffffffffffffffffffffffffffff16815260200160018201805461124c90612baa565b80601f016020809104026020016040519081016040528092919081815260200182805461127890612baa565b80156112c55780601f1061129a576101008083540402835291602001916112c5565b820191906000526020600020905b8154815290600101906020018083116112a857829003601f168201915b5050505050815260200160028201548152602001600382015481526020016004820154815260200160058201548152602001600682015481526020016007820180548060200260200160405190810160405280929190818152602001828054801561138557602002820191906000526020600020905b8160009054906101000a900473ffffffffffffffffffffffffffffffffffffffff1673ffffffffffffffffffffffffffffffffffffffff168152602001906001019080831161133b575b505050505081526020016008820180548060200260200160405190810160405280929190818152602001828054801561141357602002820191906000526020600020905b8160009054906101000a900473ffffffffffffffffffffffffffffffffffffffff1673ffffffffffffffffffffffffffffffffffffffff16815260200190600101908083116113c9575b5050505050815260200160098201548152602001600a820154815250509050919050565b60603373ffffffffffffffffffffffffffffffffffffffff166000803373ffffffffffffffffffffffffffffffffffffffff1673ffffffffffffffffffffffffffffffffffffffff16815260200190815260200160002060000160009054906101000a900473ffffffffffffffffffffffffffffffffffffffff1673ffffffffffffffffffffffffffffffffffffffff1614611508576040517f08c379a00000000000000000000000000000000000000000000000000000000081526004016114ff90612b08565b60405180910390fd5b600060048360405161151a9190612b64565b90815260200160405180910390206040516020016115389190613017565b6040516020818303038152906040525111611588576040517f08c379a000000000000000000000000000000000000000000000000000000000815260040161157f9061307a565b60405180910390fd5b6004826040516115989190612b64565b908152602001604051809103902080546115b190612baa565b80601f01602080910402602001604051908101604052809291908181526020018280546115dd90612baa565b801561162a5780601f106115ff5761010080835404028352916020019161162a565b820191906000526020600020905b81548152906001019060200180831161160d57829003601f168201915b50505050509050919050565b3373ffffffffffffffffffffffffffffffffffffffff166000803373ffffffffffffffffffffffffffffffffffffffff1673ffffffffffffffffffffffffffffffffffffffff16815260200190815260200160002060000160009054906101000a900473ffffffffffffffffffffffffffffffffffffffff1673ffffffffffffffffffffffffffffffffffffffff1614611705576040517f08c379a00000000000000000000000000000000000000000000000000000000081526004016116fc90612b08565b60405180910390fd5b806004836040516117169190612b64565b908152602001604051809103902090816117309190612d87565b505050565b60008073ffffffffffffffffffffffffffffffffffffffff166000803373ffffffffffffffffffffffffffffffffffffffff1673ffffffffffffffffffffffffffffffffffffffff16815260200190815260200160002060000160009054906101000a900473ffffffffffffffffffffffffffffffffffffffff1673ffffffffffffffffffffffffffffffffffffffff1603611806576040517f08c379a00000000000000000000000000000000000000000000000000000000081526004016117fd90612f74565b60405180910390fd5b6001905090565b3373ffffffffffffffffffffffffffffffffffffffff166000803373ffffffffffffffffffffffffffffffffffffffff1673ffffffffffffffffffffffffffffffffffffffff16815260200190815260200160002060000160009054906101000a900473ffffffffffffffffffffffffffffffffffffffff1673ffffffffffffffffffffffffffffffffffffffff16146118dc576040517f08c379a00000000000000000000000000000000000000000000000000000000081526004016118d390612b08565b60405180910390fd5b600260405180604001604052803373ffffffffffffffffffffffffffffffffffffffff16815260200183815250908060018154018082558091505060019003906000526020600020906002020160009091909190915060008201518160000160006101000a81548173ffffffffffffffffffffffffffffffffffffffff021916908373ffffffffffffffffffffffffffffffffffffffff160217905550602082015181600101908161198e9190612d87565b50505050565b3373ffffffffffffffffffffffffffffffffffffffff166000803373ffffffffffffffffffffffffffffffffffffffff1673ffffffffffffffffffffffffffffffffffffffff16815260200190815260200160002060000160009054906101000a900473ffffffffffffffffffffffffffffffffffffffff1673ffffffffffffffffffffffffffffffffffffffff1614611a63576040517f08c379a0000000000000000000000000000000000000000000000000000000008152600401611a5a90612b08565b60405180910390fd5b80600383604051611a749190612b64565b90815260200160405180910390209081611a8e9190612d87565b505050565b60603373ffffffffffffffffffffffffffffffffffffffff166000803373ffffffffffffffffffffffffffffffffffffffff1673ffffffffffffffffffffffffffffffffffffffff16815260200190815260200160002060000160009054906101000a900473ffffffffffffffffffffffffffffffffffffffff1673ffffffffffffffffffffffffffffffffffffffff1614611b64576040517f08c379a0000000000000000000000000000000000000000000000000000000008152600401611b5b90612b08565b60405180910390fd5b6000600383604051611b769190612b64565b9081526020016040518091039020604051602001611b949190613017565b6040516020818303038152906040525111611be4576040517f08c379a0000000000000000000000000000000000000000000000000000000008152600401611bdb906130e6565b60405180910390fd5b600382604051611bf49190612b64565b90815260200160405180910390208054611c0d90612baa565b80601f0160208091040260200160405190810160405280929190818152602001828054611c3990612baa565b8015611c865780601f10611c5b57610100808354040283529160200191611c86565b820191906000526020600020905b815481529060010190602001808311611c6957829003601f168201915b50505050509050919050565b60606001805480602002602001604051908101604052809291908181526020018280548015611d1657602002820191906000526020600020905b8160009054906101000a900473ffffffffffffffffffffffffffffffffffffffff1673ffffffffffffffffffffffffffffffffffffffff1681526020019060010190808311611ccc575b5050505050905090565b6000806000808573ffffffffffffffffffffffffffffffffffffffff1673ffffffffffffffffffffffffffffffffffffffff168152602001908152602001600020600801905060005b8180549050811015611e03578373ffffffffffffffffffffffffffffffffffffffff16828281548110611d9f57611d9e613106565b5b9060005260206000200160009054906101000a900473ffffffffffffffffffffffffffffffffffffffff1673ffffffffffffffffffffffffffffffffffffffff1603611df057600192505050611e0a565b8080611dfb90612a74565b915050611d69565b5060009150505b92915050565b828054828255906000526020600020908101928215611e89579160200282015b82811115611e885782518260006101000a81548173ffffffffffffffffffffffffffffffffffffffff021916908373ffffffffffffffffffffffffffffffffffffffff16021790555091602001919060010190611e30565b5b509050611e969190611f19565b5090565b604051806101600160405280600073ffffffffffffffffffffffffffffffffffffffff168152602001606081526020016000801916815260200160008019168152602001600080191681526020016000801916815260200160008019168152602001606081526020016060815260200160008152602001600081525090565b5b80821115611f32576000816000905550600101611f1a565b5090565b6000604051905090565b600080fd5b600080fd5b600073ffffffffffffffffffffffffffffffffffffffff82169050919050565b6000611f7582611f4a565b9050919050565b611f8581611f6a565b8114611f9057600080fd5b50565b600081359050611fa281611f7c565b92915050565b60008060408385031215611fbf57611fbe611f40565b5b6000611fcd85828601611f93565b9250506020611fde85828601611f93565b9150509250929050565b600080fd5b600080fd5b6000601f19601f8301169050919050565b7f4e487b7100000000000000000000000000000000000000000000000000000000600052604160045260246000fd5b61203b82611ff2565b810181811067ffffffffffffffff8211171561205a57612059612003565b5b80604052505050565b600061206d611f36565b90506120798282612032565b919050565b600067ffffffffffffffff82111561209957612098612003565b5b6120a282611ff2565b9050602081019050919050565b82818337600083830152505050565b60006120d16120cc8461207e565b612063565b9050828152602081018484840111156120ed576120ec611fed565b5b6120f88482856120af565b509392505050565b600082601f83011261211557612114611fe8565b5b81356121258482602086016120be565b91505092915050565b60006020828403121561214457612143611f40565b5b600082013567ffffffffffffffff81111561216257612161611f45565b5b61216e84828501612100565b91505092915050565b600081519050919050565b600082825260208201905092915050565b60005b838110156121b1578082015181840152602081019050612196565b60008484015250505050565b60006121c882612177565b6121d28185612182565b93506121e2818560208601612193565b6121eb81611ff2565b840191505092915050565b6000602082019050818103600083015261221081846121bd565b905092915050565b6000806040838503121561222f5761222e611f40565b5b600083013567ffffffffffffffff81111561224d5761224c611f45565b5b61225985828601612100565b925050602083013567ffffffffffffffff81111561227a57612279611f45565b5b61228685828601612100565b9150509250929050565b6000602082840312156122a6576122a5611f40565b5b60006122b484828501611f93565b91505092915050565b6000819050919050565b6122d0816122bd565b82525050565b60006020820190506122eb60008301846122c7565b92915050565b600081519050919050565b600082825260208201905092915050565b6000819050602082019050919050565b61232681611f6a565b82525050565b600082825260208201905092915050565b600061234882612177565b612352818561232c565b9350612362818560208601612193565b61236b81611ff2565b840191505092915050565b600060408301600083015161238e600086018261231d565b50602083015184820360208601526123a6828261233d565b9150508091505092915050565b60006123bf8383612376565b905092915050565b6000602082019050919050565b60006123df826122f1565b6123e981856122fc565b9350836020820285016123fb8561230d565b8060005b85811015612437578484038952815161241885826123b3565b9450612423836123c7565b925060208a019950506001810190506123ff565b50829750879550505050505092915050565b6000602082019050818103600083015261246381846123d4565b905092915050565b612474816122bd565b811461247f57600080fd5b50565b6000813590506124918161246b565b92915050565b6000602082840312156124ad576124ac611f40565b5b60006124bb84828501612482565b91505092915050565b6124cd81611f6a565b82525050565b60006020820190506124e860008301846124c4565b92915050565b600081519050919050565b600082825260208201905092915050565b6000819050602082019050919050565b6000612526838361231d565b60208301905092915050565b6000602082019050919050565b600061254a826124ee565b61255481856124f9565b935061255f8361250a565b8060005b83811015612590578151612577888261251a565b975061258283612532565b925050600181019050612563565b5085935050505092915050565b600060208201905081810360008301526125b7818461253f565b905092915050565b6000819050919050565b6125d2816125bf565b81146125dd57600080fd5b50565b6000813590506125ef816125c9565b92915050565b600080600080600080600060e0888a03121561261457612613611f40565b5b60006126228a828b01611f93565b975050602088013567ffffffffffffffff81111561264357612642611f45565b5b61264f8a828b01612100565b96505060406126608a828b016125e0565b95505060606126718a828b016125e0565b94505060806126828a828b016125e0565b93505060a06126938a828b016125e0565b92505060c06126a48a828b016125e0565b91505092959891949750929550565b6126bc816125bf565b82525050565b600082825260208201905092915050565b60006126de826124ee565b6126e881856126c2565b93506126f38361250a565b8060005b8381101561272457815161270b888261251a565b975061271683612532565b9250506001810190506126f7565b5085935050505092915050565b61273a816122bd565b82525050565b600061016083016000830151612759600086018261231d565b5060208301518482036020860152612771828261233d565b915050604083015161278660408601826126b3565b50606083015161279960608601826126b3565b5060808301516127ac60808601826126b3565b5060a08301516127bf60a08601826126b3565b5060c08301516127d260c08601826126b3565b5060e083015184820360e08601526127ea82826126d3565b91505061010083015184820361010086015261280682826126d3565b91505061012083015161281d610120860182612731565b50610140830151612832610140860182612731565b508091505092915050565b600060208201905081810360008301526128578184612740565b905092915050565b60008115159050919050565b6128748161285f565b82525050565b600060208201905061288f600083018461286b565b92915050565b7f43616e6e6f7420666f6c6c6f7720796f757273656c6600000000000000000000600082015250565b60006128cb601683612182565b91506128d682612895565b602082019050919050565b600060208201905081810360008301526128fa816128be565b9050919050565b7f43757272656e74207573657220646f6573206e6f742065786973740000000000600082015250565b6000612937601b83612182565b915061294282612901565b602082019050919050565b600060208201905081810360008301526129668161292a565b9050919050565b7f5573657220746f20666f6c6c6f7720646f6573206e6f74206578697374000000600082015250565b60006129a3601d83612182565b91506129ae8261296d565b602082019050919050565b600060208201905081810360008301526129d281612996565b9050919050565b7f416c726561647920666f6c6c6f77696e67207468697320757365720000000000600082015250565b6000612a0f601b83612182565b9150612a1a826129d9565b602082019050919050565b60006020820190508181036000830152612a3e81612a02565b9050919050565b7f4e487b7100000000000000000000000000000000000000000000000000000000600052601160045260246000fd5b6000612a7f826122bd565b91507fffffffffffffffffffffffffffffffffffffffffffffffffffffffffffffffff8203612ab157612ab0612a45565b5b600182019050919050565b7f5573657220646f65736e27742065786973740000000000000000000000000000600082015250565b6000612af2601283612182565b9150612afd82612abc565b602082019050919050565b60006020820190508181036000830152612b2181612ae5565b9050919050565b600081905092915050565b6000612b3e82612177565b612b488185612b28565b9350612b58818560208601612193565b80840191505092915050565b6000612b708284612b33565b915081905092915050565b7f4e487b7100000000000000000000000000000000000000000000000000000000600052602260045260246000fd5b60006002820490506001821680612bc257607f821691505b602082108103612bd557612bd4612b7b565b5b50919050565b60008190508160005260206000209050919050565b60006020601f8301049050919050565b600082821b905092915050565b600060088302612c3d7fffffffffffffffffffffffffffffffffffffffffffffffffffffffffffffffff82612c00565b612c478683612c00565b95508019841693508086168417925050509392505050565b6000819050919050565b6000612c84612c7f612c7a846122bd565b612c5f565b6122bd565b9050919050565b6000819050919050565b612c9e83612c69565b612cb2612caa82612c8b565b848454612c0d565b825550505050565b600090565b612cc7612cba565b612cd2818484612c95565b505050565b5b81811015612cf657612ceb600082612cbf565b600181019050612cd8565b5050565b601f821115612d3b57612d0c81612bdb565b612d1584612bf0565b81016020851015612d24578190505b612d38612d3085612bf0565b830182612cd7565b50505b505050565b600082821c905092915050565b6000612d5e60001984600802612d40565b1980831691505092915050565b6000612d778383612d4d565b9150826002028217905092915050565b612d9082612177565b67ffffffffffffffff811115612da957612da8612003565b5b612db38254612baa565b612dbe828285612cfa565b600060209050601f831160018114612df15760008415612ddf578287015190505b612de98582612d6b565b865550612e51565b601f198416612dff86612bdb565b60005b82811015612e2757848901518255600182019150602085019450602081019050612e02565b86831015612e445784890151612e40601f891682612d4d565b8355505b6001600288020188555050505b505050505050565b7f5573657220616c72656164792072656769737465726564000000000000000000600082015250565b6000612e8f601783612182565b9150612e9a82612e59565b602082019050919050565b60006020820190508181036000830152612ebe81612e82565b9050919050565b60008160601b9050919050565b6000612edd82612ec5565b9050919050565b6000612eef82612ed2565b9050919050565b612f07612f0282611f6a565b612ee4565b82525050565b6000612f198284612ef6565b60148201915081905092915050565b7f7573657220646f65736e27742065786973740000000000000000000000000000600082015250565b6000612f5e601283612182565b9150612f6982612f28565b602082019050919050565b60006020820190508181036000830152612f8d81612f51565b9050919050565b60008154612fa181612baa565b612fab8186612b28565b94506001821660008114612fc65760018114612fdb5761300e565b60ff198316865281151582028601935061300e565b612fe485612bdb565b60005b8381101561300657815481890152600182019150602081019050612fe7565b838801955050505b50505092915050565b60006130238284612f94565b915081905092915050565b7f4e6f204c696b6573000000000000000000000000000000000000000000000000600082015250565b6000613064600883612182565b915061306f8261302e565b602082019050919050565b6000602082019050818103600083015261309381613057565b9050919050565b7f4e6f20636f6d6d656e7473000000000000000000000000000000000000000000600082015250565b60006130d0600b83612182565b91506130db8261309a565b602082019050919050565b600060208201905081810360008301526130ff816130c3565b9050919050565b7f4e487b7100000000000000000000000000000000000000000000000000000000600052603260045260246000fdfea2646970667358221220f4e31017822cfb91083032c1148cc1ca7e23007a1e5e0c43d1ed5dc49ab9b4bc64736f6c63430008120033",
  "immutableReferences": {},
  "source": "// SPDX-License-Identifier: MIT\npragma solidity ^0.8.13;\n\ncontract SocialNetwork {\n    //////////////////////////////////////////////////////////////////////////////////////////////////////////////////////\n    //  User Authentication Section                                                                                     //\n    //////////////////////////////////////////////////////////////////////////////////////////////////////////////////////\n\n    struct userData {\n        address userAddress;\n        string imageCID;\n        bytes32 userName;\n        bytes32 firstName;\n        bytes32 lastName;\n        bytes32 dateOfBirth;\n        bytes32 status;\n        address[] followers;\n        address[] following;\n        uint followersCount;\n        uint followingCount;\n    }\n\n    mapping(address => userData) accounts;\n\n    address[] public userAddresses;\n\n    function registerUser(\n        address _userAddress,\n        string memory _imageCID,\n        bytes32 _userName,\n        bytes32 _firstName,\n        bytes32 _lastName,\n        bytes32 _dateOfBirth,\n        bytes32 _status\n    ) public {\n        require(\n            accounts[_userAddress].userAddress != msg.sender,\n            \"User already registered\"\n        );\n        userAddresses.push(_userAddress);\n        accounts[msg.sender] = userData({\n            userAddress: msg.sender,\n            imageCID: _imageCID,\n            userName: _userName,\n            firstName: _firstName,\n            lastName: _lastName,\n            dateOfBirth: _dateOfBirth,\n            status: _status,\n            followers: new address[](0),\n            following: new address[](0),\n            followersCount: 0,\n            followingCount: 0\n        });\n    }\n\n    function getAllUsers() public view returns (address[] memory) {\n        return userAddresses;\n    }\n\n    function getUser(\n        address userAddress\n    ) public view returns (userData memory) {\n        require(\n            abi.encodePacked(accounts[msg.sender].userAddress).length > 0,\n            \"user doesn't exist\"\n        );\n        return accounts[userAddress];\n    }\n\n    function loginUser() public view returns (bool) {\n        require(\n            accounts[msg.sender].userAddress != address(0),\n            \"user doesn't exist\"\n        );\n        return true;\n    }\n\n    //////////////////////////////////////////////////////////////////////////////////////////////////////////////////////\n    //  Post and Comment Section                                                                                        //\n    //////////////////////////////////////////////////////////////////////////////////////////////////////////////////////\n\n    struct post {\n        address userAddress;\n        string postCID;\n    }\n\n    // string[] postList;\n    // mapping(string => post) postData;\n\n    // function addPost(string memory _PostCID) public {\n    //     require(\n    //         accounts[msg.sender].userAddress == msg.sender,\n    //         \"User doesn't exist\"\n    //     );\n    //     postList.push(_PostCID);\n    //     postData[_PostCID] = post({\n    //         userAddress: msg.sender,\n    //         postCID: _PostCID,\n    //         commentCID: \"\"\n    //     });\n    // }\n\n    post[] allPostData;\n    mapping(string => string) allComments;\n    mapping(string => string) allLikes;\n    mapping(string => string) allReports;\n\n    // post section\n    function addPost(string memory _PostCID) public {\n        require(\n            accounts[msg.sender].userAddress == msg.sender,\n            \"User doesn't exist\"\n        );\n        allPostData.push(post({userAddress: msg.sender, postCID: _PostCID}));\n    }\n\n    function getPosts() public view returns (post[] memory) {\n        require(\n            accounts[msg.sender].userAddress == msg.sender,\n            \"User doesn't exist\"\n        );\n        return allPostData;\n    }\n\n    // comment section\n    function addComment(\n        string memory _postCID,\n        string memory _CommentCID\n    ) public {\n        require(\n            accounts[msg.sender].userAddress == msg.sender,\n            \"User doesn't exist\"\n        );\n        allComments[_postCID] = _CommentCID;\n    }\n\n    function getComment(\n        string memory _postCID\n    ) public view returns (string memory) {\n        require(\n            accounts[msg.sender].userAddress == msg.sender,\n            \"User doesn't exist\"\n        );\n\n        require(\n            abi.encodePacked(allComments[_postCID]).length > 0,\n            \"No comments\"\n        );\n\n        return allComments[_postCID];\n    }\n\n    // like section\n    function addLikes(\n        string memory _postCID,\n        string memory _likesCID\n    ) public {\n        require(\n            accounts[msg.sender].userAddress == msg.sender,\n            \"User doesn't exist\"\n        );\n        allLikes[_postCID] = _likesCID;\n    }\n\n    function getLikes(\n        string memory _postCID\n    ) public view returns (string memory) {\n        require(\n            accounts[msg.sender].userAddress == msg.sender,\n            \"User doesn't exist\"\n        );\n        require(\n            abi.encodePacked(allLikes[_postCID]).length > 0,\n            \"No Likes\"\n        );\n        return allLikes[_postCID];\n    }\n\n    // report section\n    function addReports(\n        string memory _postCID,\n        string memory _reportCID\n    ) public {\n        require(\n            accounts[msg.sender].userAddress == msg.sender,\n            \"User doesn't exist\"\n        );\n        allReports[_postCID] = _reportCID;\n    }\n\n    function getReports(\n        string memory _postCID\n    ) public view returns (string memory) {\n        require(\n            accounts[msg.sender].userAddress == msg.sender,\n            \"User doesn't exist\"\n        );\n        return allReports[_postCID];\n    }\n\n    \n    //////////////////////////////////////////////////////////////////////////////////////////////////////////////////////\n    //  Follow user functions                                                                                           //\n    //////////////////////////////////////////////////////////////////////////////////////////////////////////////////////\n\n    function followUser(address _currentUser, address _userToFollow) public {\n        require(_currentUser != _userToFollow, \"Cannot follow yourself\");\n\n        // Ensure both users exist\n        require(\n            accounts[_currentUser].userAddress != address(0),\n            \"Current user does not exist\"\n        );\n        require(\n            accounts[_userToFollow].userAddress != address(0),\n            \"User to follow does not exist\"\n        );\n\n        // Check if the current user is already following the user to follow\n        require(\n            !isFollowing(_currentUser, _userToFollow),\n            \"Already following this user\"\n        );\n\n        // Add the user to follow to the following list of the current user\n        accounts[_currentUser].following.push(_userToFollow);\n        accounts[_currentUser].followingCount++;\n\n        // Add the current user to the followers list of the user to follow\n        accounts[_userToFollow].followers.push(_currentUser);\n        accounts[_userToFollow].followersCount++;\n    }\n\n    // Function to check if a user is already following another user\n    function isFollowing(\n        address _currentUser,\n        address _userToFollow\n    ) internal view returns (bool) {\n        address[] storage following = accounts[_currentUser].following;\n        for (uint i = 0; i < following.length; i++) {\n            if (following[i] == _userToFollow) {\n                return true;\n            }\n        }\n        return false;\n    }\n\n    function getFollowedUsers() public view returns (address[] memory) {\n        return accounts[msg.sender].following;\n    }\n\n    function getFollowersCount(address userAddress) public view returns (uint) {\n        return accounts[userAddress].followersCount;\n    }\n}\n",
  "sourcePath": "/home/cy34/Projects/DPOSN/truffle/contracts/SocialNetwork.sol",
  "compiler": {
    "name": "solc",
    "version": "0.8.18+commit.87f61d96.Emscripten.clang"
  },
  "schemaVersion": "3.4.16",
  "updatedAt": "2024-03-30T10:31:55.410Z",
  "networkType": "ethereum",
  "devdoc": {
    "kind": "dev",
    "methods": {},
    "version": 1
  },
  "userdoc": {
    "kind": "user",
    "methods": {},
    "version": 1
  }
}