{
  "contractName": "SocialNetwork",
  "abi": [
    {
      "inputs": [
        {
          "internalType": "address",
          "name": "_userAddress",
          "type": "address"
        },
        {
          "internalType": "string",
          "name": "_imageCID",
          "type": "string"
        },
        {
          "internalType": "bytes32",
          "name": "_userName",
          "type": "bytes32"
        },
        {
          "internalType": "bytes32",
          "name": "_firstName",
          "type": "bytes32"
        },
        {
          "internalType": "bytes32",
          "name": "_lastName",
          "type": "bytes32"
        },
        {
          "internalType": "bytes32",
          "name": "_dateOfBirth",
          "type": "bytes32"
        },
        {
          "internalType": "bytes32",
          "name": "_status",
          "type": "bytes32"
        }
      ],
      "name": "registerUser",
      "outputs": [],
      "stateMutability": "nonpayable",
      "type": "function"
    },
    {
      "inputs": [
        {
          "internalType": "address",
          "name": "userAddress",
          "type": "address"
        }
      ],
      "name": "getUser",
      "outputs": [
        {
          "components": [
            {
              "internalType": "address",
              "name": "userAddress",
              "type": "address"
            },
            {
              "internalType": "string",
              "name": "imageCID",
              "type": "string"
            },
            {
              "internalType": "bytes32",
              "name": "userName",
              "type": "bytes32"
            },
            {
              "internalType": "bytes32",
              "name": "firstName",
              "type": "bytes32"
            },
            {
              "internalType": "bytes32",
              "name": "lastName",
              "type": "bytes32"
            },
            {
              "internalType": "bytes32",
              "name": "dateOfBirth",
              "type": "bytes32"
            },
            {
              "internalType": "bytes32",
              "name": "status",
              "type": "bytes32"
            }
          ],
          "internalType": "struct SocialNetwork.userData",
          "name": "",
          "type": "tuple"
        }
      ],
      "stateMutability": "view",
      "type": "function",
      "constant": true
    },
    {
      "inputs": [],
      "name": "loginUser",
      "outputs": [
        {
          "internalType": "bool",
          "name": "",
          "type": "bool"
        }
      ],
      "stateMutability": "view",
      "type": "function",
      "constant": true
    },
    {
      "inputs": [
        {
          "internalType": "string",
          "name": "_PostCID",
          "type": "string"
        }
      ],
      "name": "addPost",
      "outputs": [],
      "stateMutability": "nonpayable",
      "type": "function"
    },
    {
      "inputs": [],
      "name": "getPosts",
      "outputs": [
        {
          "components": [
            {
              "internalType": "address",
              "name": "userAddress",
              "type": "address"
            },
            {
              "internalType": "string",
              "name": "postCID",
              "type": "string"
            },
            {
              "internalType": "string",
              "name": "commentCID",
              "type": "string"
            }
          ],
          "internalType": "struct SocialNetwork.post[]",
          "name": "",
          "type": "tuple[]"
        }
      ],
      "stateMutability": "view",
      "type": "function",
      "constant": true
    }
  ],
  "bytecode": "0x608060405234801561001057600080fd5b5061157f806100206000396000f3fe608060405234801561001057600080fd5b50600436106100575760003560e01c806341f3004a1461005c5780636923a07e1461007a5780636f77926b14610096578063a19ed686146100c6578063a6322819146100e4575b600080fd5b610064610100565b6040516100719190610ca5565b60405180910390f35b610094600480360381019061008f9190610e72565b6103a8565b005b6100b060048036038101906100ab9190610f30565b610599565b6040516100bd9190611008565b60405180910390f35b6100ce6107cf565b6040516100db9190611045565b60405180910390f35b6100fe60048036038101906100f99190611060565b6108a7565b005b60603373ffffffffffffffffffffffffffffffffffffffff166000803373ffffffffffffffffffffffffffffffffffffffff1673ffffffffffffffffffffffffffffffffffffffff16815260200190815260200160002060000160009054906101000a900473ffffffffffffffffffffffffffffffffffffffff1673ffffffffffffffffffffffffffffffffffffffff16146101d1576040517f08c379a00000000000000000000000000000000000000000000000000000000081526004016101c890611106565b60405180910390fd5b6001805480602002602001604051908101604052809291908181526020016000905b8282101561039f57838290600052602060002090600302016040518060600160405290816000820160009054906101000a900473ffffffffffffffffffffffffffffffffffffffff1673ffffffffffffffffffffffffffffffffffffffff1673ffffffffffffffffffffffffffffffffffffffff16815260200160018201805461027c90611155565b80601f01602080910402602001604051908101604052809291908181526020018280546102a890611155565b80156102f55780601f106102ca576101008083540402835291602001916102f5565b820191906000526020600020905b8154815290600101906020018083116102d857829003601f168201915b5050505050815260200160028201805461030e90611155565b80601f016020809104026020016040519081016040528092919081815260200182805461033a90611155565b80156103875780601f1061035c57610100808354040283529160200191610387565b820191906000526020600020905b81548152906001019060200180831161036a57829003601f168201915b505050505081525050815260200190600101906101f3565b50505050905090565b3373ffffffffffffffffffffffffffffffffffffffff166000808973ffffffffffffffffffffffffffffffffffffffff1673ffffffffffffffffffffffffffffffffffffffff16815260200190815260200160002060000160009054906101000a900473ffffffffffffffffffffffffffffffffffffffff1673ffffffffffffffffffffffffffffffffffffffff1603610477576040517f08c379a000000000000000000000000000000000000000000000000000000000815260040161046e906111d2565b60405180910390fd5b6040518060e001604052803373ffffffffffffffffffffffffffffffffffffffff168152602001878152602001868152602001858152602001848152602001838152602001828152506000803373ffffffffffffffffffffffffffffffffffffffff1673ffffffffffffffffffffffffffffffffffffffff16815260200190815260200160002060008201518160000160006101000a81548173ffffffffffffffffffffffffffffffffffffffff021916908373ffffffffffffffffffffffffffffffffffffffff160217905550602082015181600101908161055a91906113a8565b5060408201518160020155606082015181600301556080820151816004015560a0820151816005015560c0820151816006015590505050505050505050565b6105a1610a59565b60008060003373ffffffffffffffffffffffffffffffffffffffff1673ffffffffffffffffffffffffffffffffffffffff16815260200190815260200160002060000160009054906101000a900473ffffffffffffffffffffffffffffffffffffffff1660405160200161061591906114c2565b6040516020818303038152906040525111610665576040517f08c379a000000000000000000000000000000000000000000000000000000000815260040161065c90611529565b60405180910390fd5b6000808373ffffffffffffffffffffffffffffffffffffffff1673ffffffffffffffffffffffffffffffffffffffff1681526020019081526020016000206040518060e00160405290816000820160009054906101000a900473ffffffffffffffffffffffffffffffffffffffff1673ffffffffffffffffffffffffffffffffffffffff1673ffffffffffffffffffffffffffffffffffffffff16815260200160018201805461071490611155565b80601f016020809104026020016040519081016040528092919081815260200182805461074090611155565b801561078d5780601f106107625761010080835404028352916020019161078d565b820191906000526020600020905b81548152906001019060200180831161077057829003601f168201915b50505050508152602001600282015481526020016003820154815260200160048201548152602001600582015481526020016006820154815250509050919050565b60008073ffffffffffffffffffffffffffffffffffffffff166000803373ffffffffffffffffffffffffffffffffffffffff1673ffffffffffffffffffffffffffffffffffffffff16815260200190815260200160002060000160009054906101000a900473ffffffffffffffffffffffffffffffffffffffff1673ffffffffffffffffffffffffffffffffffffffff16036108a0576040517f08c379a000000000000000000000000000000000000000000000000000000000815260040161089790611529565b60405180910390fd5b6001905090565b3373ffffffffffffffffffffffffffffffffffffffff166000803373ffffffffffffffffffffffffffffffffffffffff1673ffffffffffffffffffffffffffffffffffffffff16815260200190815260200160002060000160009054906101000a900473ffffffffffffffffffffffffffffffffffffffff1673ffffffffffffffffffffffffffffffffffffffff1614610976576040517f08c379a000000000000000000000000000000000000000000000000000000000815260040161096d90611106565b60405180910390fd5b600160405180606001604052803373ffffffffffffffffffffffffffffffffffffffff16815260200183815260200160405180602001604052806000815250815250908060018154018082558091505060019003906000526020600020906003020160009091909190915060008201518160000160006101000a81548173ffffffffffffffffffffffffffffffffffffffff021916908373ffffffffffffffffffffffffffffffffffffffff1602179055506020820151816001019081610a3d91906113a8565b506040820151816002019081610a5391906113a8565b50505050565b6040518060e00160405280600073ffffffffffffffffffffffffffffffffffffffff1681526020016060815260200160008019168152602001600080191681526020016000801916815260200160008019168152602001600080191681525090565b600081519050919050565b600082825260208201905092915050565b6000819050602082019050919050565b600073ffffffffffffffffffffffffffffffffffffffff82169050919050565b6000610b1282610ae7565b9050919050565b610b2281610b07565b82525050565b600081519050919050565b600082825260208201905092915050565b60005b83811015610b62578082015181840152602081019050610b47565b60008484015250505050565b6000601f19601f8301169050919050565b6000610b8a82610b28565b610b948185610b33565b9350610ba4818560208601610b44565b610bad81610b6e565b840191505092915050565b6000606083016000830151610bd06000860182610b19565b5060208301518482036020860152610be88282610b7f565b91505060408301518482036040860152610c028282610b7f565b9150508091505092915050565b6000610c1b8383610bb8565b905092915050565b6000602082019050919050565b6000610c3b82610abb565b610c458185610ac6565b935083602082028501610c5785610ad7565b8060005b85811015610c935784840389528151610c748582610c0f565b9450610c7f83610c23565b925060208a01995050600181019050610c5b565b50829750879550505050505092915050565b60006020820190508181036000830152610cbf8184610c30565b905092915050565b6000604051905090565b600080fd5b600080fd5b610ce481610b07565b8114610cef57600080fd5b50565b600081359050610d0181610cdb565b92915050565b600080fd5b600080fd5b7f4e487b7100000000000000000000000000000000000000000000000000000000600052604160045260246000fd5b610d4982610b6e565b810181811067ffffffffffffffff82111715610d6857610d67610d11565b5b80604052505050565b6000610d7b610cc7565b9050610d878282610d40565b919050565b600067ffffffffffffffff821115610da757610da6610d11565b5b610db082610b6e565b9050602081019050919050565b82818337600083830152505050565b6000610ddf610dda84610d8c565b610d71565b905082815260208101848484011115610dfb57610dfa610d0c565b5b610e06848285610dbd565b509392505050565b600082601f830112610e2357610e22610d07565b5b8135610e33848260208601610dcc565b91505092915050565b6000819050919050565b610e4f81610e3c565b8114610e5a57600080fd5b50565b600081359050610e6c81610e46565b92915050565b600080600080600080600060e0888a031215610e9157610e90610cd1565b5b6000610e9f8a828b01610cf2565b975050602088013567ffffffffffffffff811115610ec057610ebf610cd6565b5b610ecc8a828b01610e0e565b9650506040610edd8a828b01610e5d565b9550506060610eee8a828b01610e5d565b9450506080610eff8a828b01610e5d565b93505060a0610f108a828b01610e5d565b92505060c0610f218a828b01610e5d565b91505092959891949750929550565b600060208284031215610f4657610f45610cd1565b5b6000610f5484828501610cf2565b91505092915050565b610f6681610e3c565b82525050565b600060e083016000830151610f846000860182610b19565b5060208301518482036020860152610f9c8282610b7f565b9150506040830151610fb16040860182610f5d565b506060830151610fc46060860182610f5d565b506080830151610fd76080860182610f5d565b5060a0830151610fea60a0860182610f5d565b5060c0830151610ffd60c0860182610f5d565b508091505092915050565b600060208201905081810360008301526110228184610f6c565b905092915050565b60008115159050919050565b61103f8161102a565b82525050565b600060208201905061105a6000830184611036565b92915050565b60006020828403121561107657611075610cd1565b5b600082013567ffffffffffffffff81111561109457611093610cd6565b5b6110a084828501610e0e565b91505092915050565b600082825260208201905092915050565b7f5573657220646f65736e27742065786973740000000000000000000000000000600082015250565b60006110f06012836110a9565b91506110fb826110ba565b602082019050919050565b6000602082019050818103600083015261111f816110e3565b9050919050565b7f4e487b7100000000000000000000000000000000000000000000000000000000600052602260045260246000fd5b6000600282049050600182168061116d57607f821691505b6020821081036111805761117f611126565b5b50919050565b7f5573657220616c72656164792072656769737465726564000000000000000000600082015250565b60006111bc6017836110a9565b91506111c782611186565b602082019050919050565b600060208201905081810360008301526111eb816111af565b9050919050565b60008190508160005260206000209050919050565b60006020601f8301049050919050565b600082821b905092915050565b6000600883026112547fffffffffffffffffffffffffffffffffffffffffffffffffffffffffffffffff82611217565b61125e8683611217565b95508019841693508086168417925050509392505050565b6000819050919050565b6000819050919050565b60006112a56112a061129b84611276565b611280565b611276565b9050919050565b6000819050919050565b6112bf8361128a565b6112d36112cb826112ac565b848454611224565b825550505050565b600090565b6112e86112db565b6112f38184846112b6565b505050565b5b818110156113175761130c6000826112e0565b6001810190506112f9565b5050565b601f82111561135c5761132d816111f2565b61133684611207565b81016020851015611345578190505b61135961135185611207565b8301826112f8565b50505b505050565b600082821c905092915050565b600061137f60001984600802611361565b1980831691505092915050565b6000611398838361136e565b9150826002028217905092915050565b6113b182610b28565b67ffffffffffffffff8111156113ca576113c9610d11565b5b6113d48254611155565b6113df82828561131b565b600060209050601f8311600181146114125760008415611400578287015190505b61140a858261138c565b865550611472565b601f198416611420866111f2565b60005b8281101561144857848901518255600182019150602085019450602081019050611423565b868310156114655784890151611461601f89168261136e565b8355505b6001600288020188555050505b505050505050565b60008160601b9050919050565b60006114928261147a565b9050919050565b60006114a482611487565b9050919050565b6114bc6114b782610b07565b611499565b82525050565b60006114ce82846114ab565b60148201915081905092915050565b7f7573657220646f65736e27742065786973740000000000000000000000000000600082015250565b60006115136012836110a9565b915061151e826114dd565b602082019050919050565b6000602082019050818103600083015261154281611506565b905091905056fea2646970667358221220dcfce73c90fefa141f7d9a23245a9954300c192f62606136d800ab51715f55d664736f6c63430008120033",
  "immutableReferences": {},
  "source": "// SPDX-License-Identifier: MIT\npragma solidity ^0.8.13;\n\ncontract SocialNetwork {\n    //////////////////////////////////////////////////////////////////////////////////////////////////////////////////////\n    //  User Authentication Section                                                                                     //\n    //////////////////////////////////////////////////////////////////////////////////////////////////////////////////////\n\n    struct userData {\n        address userAddress;\n        string imageCID;\n        bytes32 userName;\n        bytes32 firstName;\n        bytes32 lastName;\n        bytes32 dateOfBirth;\n        bytes32 status;\n    }\n\n    mapping(address => userData) accounts;\n\n    function registerUser(\n        address _userAddress,\n        string memory _imageCID,\n        bytes32 _userName,\n        bytes32 _firstName,\n        bytes32 _lastName,\n        bytes32 _dateOfBirth,\n        bytes32 _status\n    ) public {\n        require(\n            accounts[_userAddress].userAddress != msg.sender,\n            \"User already registered\"\n        );\n        accounts[msg.sender] = userData({\n            userAddress: msg.sender,\n            imageCID: _imageCID,\n            userName: _userName,\n            firstName: _firstName,\n            lastName: _lastName,\n            dateOfBirth: _dateOfBirth,\n            status: _status\n        });\n    }\n\n    function getUser(\n        address userAddress\n    ) public view returns (userData memory) {\n        require(\n            abi.encodePacked(accounts[msg.sender].userAddress).length > 0,\n            \"user doesn't exist\"\n        );\n        return accounts[userAddress];\n    }\n\n    function loginUser() public view returns (bool) {\n        require(\n            accounts[msg.sender].userAddress != address(0),\n            \"user doesn't exist\"\n        );\n        return true;\n    }\n\n    //////////////////////////////////////////////////////////////////////////////////////////////////////////////////////\n    //  Post and Comment Section                                                                                        //\n    //////////////////////////////////////////////////////////////////////////////////////////////////////////////////////\n\n    struct post {\n        address userAddress;\n        string postCID;\n        string commentCID;\n    }\n\n    // string[] postList;\n    // mapping(string => post) postData;\n\n    // function addPost(string memory _PostCID) public {\n    //     require(\n    //         accounts[msg.sender].userAddress == msg.sender,\n    //         \"User doesn't exist\"\n    //     );\n    //     postList.push(_PostCID);\n    //     postData[_PostCID] = post({\n    //         userAddress: msg.sender,\n    //         postCID: _PostCID,\n    //         commentCID: \"\"\n    //     });\n    // }\n\n    post[] allPostData;\n\n    function addPost(string memory _PostCID) public {\n        require(\n            accounts[msg.sender].userAddress == msg.sender,\n            \"User doesn't exist\"\n        );\n        allPostData.push(\n            post({userAddress: msg.sender, postCID: _PostCID, commentCID: \"\"})\n        );\n    }\n\n    function getPosts() public view returns (post[] memory) {\n        require(\n            accounts[msg.sender].userAddress == msg.sender,\n            \"User doesn't exist\"\n        );\n        return allPostData;\n    }\n}\n",
  "sourcePath": "/home/cy34/Projects/DPOSN/truffle/contracts/SocialNetwork.sol",
  "compiler": {
    "name": "solc",
    "version": "0.8.18+commit.87f61d96.Emscripten.clang"
  },
  "schemaVersion": "3.4.16",
  "updatedAt": "2024-02-18T13:22:25.691Z",
  "networkType": "ethereum",
  "devdoc": {
    "kind": "dev",
    "methods": {},
    "version": 1
  },
  "userdoc": {
    "kind": "user",
    "methods": {},
    "version": 1
  }
}