{
  "contractName": "SocialNetwork",
  "abi": [
    {
      "inputs": [
        {
          "internalType": "uint256",
          "name": "",
          "type": "uint256"
        }
      ],
      "name": "userAddresses",
      "outputs": [
        {
          "internalType": "address",
          "name": "",
          "type": "address"
        }
      ],
      "stateMutability": "view",
      "type": "function",
      "constant": true
    },
    {
      "inputs": [
        {
          "internalType": "address",
          "name": "_userAddress",
          "type": "address"
        },
        {
          "internalType": "string",
          "name": "_imageCID",
          "type": "string"
        },
        {
          "internalType": "bytes32",
          "name": "_userName",
          "type": "bytes32"
        },
        {
          "internalType": "bytes32",
          "name": "_firstName",
          "type": "bytes32"
        },
        {
          "internalType": "bytes32",
          "name": "_lastName",
          "type": "bytes32"
        },
        {
          "internalType": "bytes32",
          "name": "_dateOfBirth",
          "type": "bytes32"
        },
        {
          "internalType": "bytes32",
          "name": "_status",
          "type": "bytes32"
        }
      ],
      "name": "registerUser",
      "outputs": [],
      "stateMutability": "nonpayable",
      "type": "function"
    },
    {
      "inputs": [],
      "name": "getAllUsers",
      "outputs": [
        {
          "internalType": "address[]",
          "name": "",
          "type": "address[]"
        }
      ],
      "stateMutability": "view",
      "type": "function",
      "constant": true
    },
    {
      "inputs": [
        {
          "internalType": "address",
          "name": "userAddress",
          "type": "address"
        }
      ],
      "name": "getUser",
      "outputs": [
        {
          "components": [
            {
              "internalType": "address",
              "name": "userAddress",
              "type": "address"
            },
            {
              "internalType": "string",
              "name": "imageCID",
              "type": "string"
            },
            {
              "internalType": "bytes32",
              "name": "userName",
              "type": "bytes32"
            },
            {
              "internalType": "bytes32",
              "name": "firstName",
              "type": "bytes32"
            },
            {
              "internalType": "bytes32",
              "name": "lastName",
              "type": "bytes32"
            },
            {
              "internalType": "bytes32",
              "name": "dateOfBirth",
              "type": "bytes32"
            },
            {
              "internalType": "bytes32",
              "name": "status",
              "type": "bytes32"
            }
          ],
          "internalType": "struct SocialNetwork.userData",
          "name": "",
          "type": "tuple"
        }
      ],
      "stateMutability": "view",
      "type": "function",
      "constant": true
    },
    {
      "inputs": [],
      "name": "loginUser",
      "outputs": [
        {
          "internalType": "bool",
          "name": "",
          "type": "bool"
        }
      ],
      "stateMutability": "view",
      "type": "function",
      "constant": true
    },
    {
      "inputs": [
        {
          "internalType": "string",
          "name": "_PostCID",
          "type": "string"
        }
      ],
      "name": "addPost",
      "outputs": [],
      "stateMutability": "nonpayable",
      "type": "function"
    },
    {
      "inputs": [
        {
          "internalType": "string",
          "name": "_postCID",
          "type": "string"
        },
        {
          "internalType": "string",
          "name": "_CommentCID",
          "type": "string"
        }
      ],
      "name": "addComment",
      "outputs": [],
      "stateMutability": "nonpayable",
      "type": "function"
    },
    {
      "inputs": [],
      "name": "getPosts",
      "outputs": [
        {
          "components": [
            {
              "internalType": "address",
              "name": "userAddress",
              "type": "address"
            },
            {
              "internalType": "string",
              "name": "postCID",
              "type": "string"
            }
          ],
          "internalType": "struct SocialNetwork.post[]",
          "name": "",
          "type": "tuple[]"
        }
      ],
      "stateMutability": "view",
      "type": "function",
      "constant": true
    },
    {
      "inputs": [
        {
          "internalType": "string",
          "name": "_postCID",
          "type": "string"
        }
      ],
      "name": "getComment",
      "outputs": [
        {
          "internalType": "string",
          "name": "",
          "type": "string"
        }
      ],
      "stateMutability": "view",
      "type": "function",
      "constant": true
    }
  ],
  "bytecode": "0x608060405234801561001057600080fd5b50611d2c806100206000396000f3fe608060405234801561001057600080fd5b50600436106100935760003560e01c8063a19ed68611610066578063a19ed68614610132578063a632281914610150578063ae5ff9051461016c578063cbbaa58914610188578063e2842d79146101b857610093565b806341f3004a14610098578063502c9bd5146100b65780636923a07e146100e65780636f77926b14610102575b600080fd5b6100a06101d6565b6040516100ad91906110d2565b60405180910390f35b6100d060048036038101906100cb919061113e565b6103ec565b6040516100dd919061117a565b60405180910390f35b61010060048036038101906100fb919061132c565b61042b565b005b61011c600480360381019061011791906113ea565b61067f565b60405161012991906114c2565b60405180910390f35b61013a6108b5565b60405161014791906114ff565b60405180910390f35b61016a6004803603810190610165919061151a565b61098d565b005b61018660048036038101906101819190611563565b610b14565b005b6101a2600480360381019061019d919061151a565b610c13565b6040516101af9190611625565b60405180910390f35b6101c0610e12565b6040516101cd91906116f6565b60405180910390f35b60603373ffffffffffffffffffffffffffffffffffffffff166000803373ffffffffffffffffffffffffffffffffffffffff1673ffffffffffffffffffffffffffffffffffffffff16815260200190815260200160002060000160009054906101000a900473ffffffffffffffffffffffffffffffffffffffff1673ffffffffffffffffffffffffffffffffffffffff16146102a7576040517f08c379a000000000000000000000000000000000000000000000000000000000815260040161029e90611764565b60405180910390fd5b6002805480602002602001604051908101604052809291908181526020016000905b828210156103e357838290600052602060002090600202016040518060400160405290816000820160009054906101000a900473ffffffffffffffffffffffffffffffffffffffff1673ffffffffffffffffffffffffffffffffffffffff1673ffffffffffffffffffffffffffffffffffffffff168152602001600182018054610352906117b3565b80601f016020809104026020016040519081016040528092919081815260200182805461037e906117b3565b80156103cb5780601f106103a0576101008083540402835291602001916103cb565b820191906000526020600020905b8154815290600101906020018083116103ae57829003601f168201915b505050505081525050815260200190600101906102c9565b50505050905090565b600181815481106103fc57600080fd5b906000526020600020016000915054906101000a900473ffffffffffffffffffffffffffffffffffffffff1681565b3373ffffffffffffffffffffffffffffffffffffffff166000808973ffffffffffffffffffffffffffffffffffffffff1673ffffffffffffffffffffffffffffffffffffffff16815260200190815260200160002060000160009054906101000a900473ffffffffffffffffffffffffffffffffffffffff1673ffffffffffffffffffffffffffffffffffffffff16036104fa576040517f08c379a00000000000000000000000000000000000000000000000000000000081526004016104f190611830565b60405180910390fd5b6001879080600181540180825580915050600190039060005260206000200160009091909190916101000a81548173ffffffffffffffffffffffffffffffffffffffff021916908373ffffffffffffffffffffffffffffffffffffffff1602179055506040518060e001604052803373ffffffffffffffffffffffffffffffffffffffff168152602001878152602001868152602001858152602001848152602001838152602001828152506000803373ffffffffffffffffffffffffffffffffffffffff1673ffffffffffffffffffffffffffffffffffffffff16815260200190815260200160002060008201518160000160006101000a81548173ffffffffffffffffffffffffffffffffffffffff021916908373ffffffffffffffffffffffffffffffffffffffff160217905550602082015181600101908161064091906119fc565b5060408201518160020155606082015181600301556080820151816004015560a0820151816005015560c0820151816006015590505050505050505050565b610687610ea0565b60008060003373ffffffffffffffffffffffffffffffffffffffff1673ffffffffffffffffffffffffffffffffffffffff16815260200190815260200160002060000160009054906101000a900473ffffffffffffffffffffffffffffffffffffffff166040516020016106fb9190611b16565b604051602081830303815290604052511161074b576040517f08c379a000000000000000000000000000000000000000000000000000000000815260040161074290611b7d565b60405180910390fd5b6000808373ffffffffffffffffffffffffffffffffffffffff1673ffffffffffffffffffffffffffffffffffffffff1681526020019081526020016000206040518060e00160405290816000820160009054906101000a900473ffffffffffffffffffffffffffffffffffffffff1673ffffffffffffffffffffffffffffffffffffffff1673ffffffffffffffffffffffffffffffffffffffff1681526020016001820180546107fa906117b3565b80601f0160208091040260200160405190810160405280929190818152602001828054610826906117b3565b80156108735780601f1061084857610100808354040283529160200191610873565b820191906000526020600020905b81548152906001019060200180831161085657829003601f168201915b50505050508152602001600282015481526020016003820154815260200160048201548152602001600582015481526020016006820154815250509050919050565b60008073ffffffffffffffffffffffffffffffffffffffff166000803373ffffffffffffffffffffffffffffffffffffffff1673ffffffffffffffffffffffffffffffffffffffff16815260200190815260200160002060000160009054906101000a900473ffffffffffffffffffffffffffffffffffffffff1673ffffffffffffffffffffffffffffffffffffffff1603610986576040517f08c379a000000000000000000000000000000000000000000000000000000000815260040161097d90611b7d565b60405180910390fd5b6001905090565b3373ffffffffffffffffffffffffffffffffffffffff166000803373ffffffffffffffffffffffffffffffffffffffff1673ffffffffffffffffffffffffffffffffffffffff16815260200190815260200160002060000160009054906101000a900473ffffffffffffffffffffffffffffffffffffffff1673ffffffffffffffffffffffffffffffffffffffff1614610a5c576040517f08c379a0000000000000000000000000000000000000000000000000000000008152600401610a5390611764565b60405180910390fd5b600260405180604001604052803373ffffffffffffffffffffffffffffffffffffffff16815260200183815250908060018154018082558091505060019003906000526020600020906002020160009091909190915060008201518160000160006101000a81548173ffffffffffffffffffffffffffffffffffffffff021916908373ffffffffffffffffffffffffffffffffffffffff1602179055506020820151816001019081610b0e91906119fc565b50505050565b3373ffffffffffffffffffffffffffffffffffffffff166000803373ffffffffffffffffffffffffffffffffffffffff1673ffffffffffffffffffffffffffffffffffffffff16815260200190815260200160002060000160009054906101000a900473ffffffffffffffffffffffffffffffffffffffff1673ffffffffffffffffffffffffffffffffffffffff1614610be3576040517f08c379a0000000000000000000000000000000000000000000000000000000008152600401610bda90611764565b60405180910390fd5b80600383604051610bf49190611bd9565b90815260200160405180910390209081610c0e91906119fc565b505050565b60603373ffffffffffffffffffffffffffffffffffffffff166000803373ffffffffffffffffffffffffffffffffffffffff1673ffffffffffffffffffffffffffffffffffffffff16815260200190815260200160002060000160009054906101000a900473ffffffffffffffffffffffffffffffffffffffff1673ffffffffffffffffffffffffffffffffffffffff1614610ce4576040517f08c379a0000000000000000000000000000000000000000000000000000000008152600401610cdb90611764565b60405180910390fd5b6000600383604051610cf69190611bd9565b9081526020016040518091039020604051602001610d149190611c73565b6040516020818303038152906040525111610d64576040517f08c379a0000000000000000000000000000000000000000000000000000000008152600401610d5b90611cd6565b60405180910390fd5b600382604051610d749190611bd9565b90815260200160405180910390208054610d8d906117b3565b80601f0160208091040260200160405190810160405280929190818152602001828054610db9906117b3565b8015610e065780601f10610ddb57610100808354040283529160200191610e06565b820191906000526020600020905b815481529060010190602001808311610de957829003601f168201915b50505050509050919050565b60606001805480602002602001604051908101604052809291908181526020018280548015610e9657602002820191906000526020600020905b8160009054906101000a900473ffffffffffffffffffffffffffffffffffffffff1673ffffffffffffffffffffffffffffffffffffffff1681526020019060010190808311610e4c575b5050505050905090565b6040518060e00160405280600073ffffffffffffffffffffffffffffffffffffffff1681526020016060815260200160008019168152602001600080191681526020016000801916815260200160008019168152602001600080191681525090565b600081519050919050565b600082825260208201905092915050565b6000819050602082019050919050565b600073ffffffffffffffffffffffffffffffffffffffff82169050919050565b6000610f5982610f2e565b9050919050565b610f6981610f4e565b82525050565b600081519050919050565b600082825260208201905092915050565b60005b83811015610fa9578082015181840152602081019050610f8e565b60008484015250505050565b6000601f19601f8301169050919050565b6000610fd182610f6f565b610fdb8185610f7a565b9350610feb818560208601610f8b565b610ff481610fb5565b840191505092915050565b60006040830160008301516110176000860182610f60565b506020830151848203602086015261102f8282610fc6565b9150508091505092915050565b60006110488383610fff565b905092915050565b6000602082019050919050565b600061106882610f02565b6110728185610f0d565b93508360208202850161108485610f1e565b8060005b858110156110c057848403895281516110a1858261103c565b94506110ac83611050565b925060208a01995050600181019050611088565b50829750879550505050505092915050565b600060208201905081810360008301526110ec818461105d565b905092915050565b6000604051905090565b600080fd5b600080fd5b6000819050919050565b61111b81611108565b811461112657600080fd5b50565b60008135905061113881611112565b92915050565b600060208284031215611154576111536110fe565b5b600061116284828501611129565b91505092915050565b61117481610f4e565b82525050565b600060208201905061118f600083018461116b565b92915050565b61119e81610f4e565b81146111a957600080fd5b50565b6000813590506111bb81611195565b92915050565b600080fd5b600080fd5b7f4e487b7100000000000000000000000000000000000000000000000000000000600052604160045260246000fd5b61120382610fb5565b810181811067ffffffffffffffff82111715611222576112216111cb565b5b80604052505050565b60006112356110f4565b905061124182826111fa565b919050565b600067ffffffffffffffff821115611261576112606111cb565b5b61126a82610fb5565b9050602081019050919050565b82818337600083830152505050565b600061129961129484611246565b61122b565b9050828152602081018484840111156112b5576112b46111c6565b5b6112c0848285611277565b509392505050565b600082601f8301126112dd576112dc6111c1565b5b81356112ed848260208601611286565b91505092915050565b6000819050919050565b611309816112f6565b811461131457600080fd5b50565b60008135905061132681611300565b92915050565b600080600080600080600060e0888a03121561134b5761134a6110fe565b5b60006113598a828b016111ac565b975050602088013567ffffffffffffffff81111561137a57611379611103565b5b6113868a828b016112c8565b96505060406113978a828b01611317565b95505060606113a88a828b01611317565b94505060806113b98a828b01611317565b93505060a06113ca8a828b01611317565b92505060c06113db8a828b01611317565b91505092959891949750929550565b600060208284031215611400576113ff6110fe565b5b600061140e848285016111ac565b91505092915050565b611420816112f6565b82525050565b600060e08301600083015161143e6000860182610f60565b50602083015184820360208601526114568282610fc6565b915050604083015161146b6040860182611417565b50606083015161147e6060860182611417565b5060808301516114916080860182611417565b5060a08301516114a460a0860182611417565b5060c08301516114b760c0860182611417565b508091505092915050565b600060208201905081810360008301526114dc8184611426565b905092915050565b60008115159050919050565b6114f9816114e4565b82525050565b600060208201905061151460008301846114f0565b92915050565b6000602082840312156115305761152f6110fe565b5b600082013567ffffffffffffffff81111561154e5761154d611103565b5b61155a848285016112c8565b91505092915050565b6000806040838503121561157a576115796110fe565b5b600083013567ffffffffffffffff81111561159857611597611103565b5b6115a4858286016112c8565b925050602083013567ffffffffffffffff8111156115c5576115c4611103565b5b6115d1858286016112c8565b9150509250929050565b600082825260208201905092915050565b60006115f782610f6f565b61160181856115db565b9350611611818560208601610f8b565b61161a81610fb5565b840191505092915050565b6000602082019050818103600083015261163f81846115ec565b905092915050565b600081519050919050565b600082825260208201905092915050565b6000819050602082019050919050565b600061167f8383610f60565b60208301905092915050565b6000602082019050919050565b60006116a382611647565b6116ad8185611652565b93506116b883611663565b8060005b838110156116e95781516116d08882611673565b97506116db8361168b565b9250506001810190506116bc565b5085935050505092915050565b600060208201905081810360008301526117108184611698565b905092915050565b7f5573657220646f65736e27742065786973740000000000000000000000000000600082015250565b600061174e6012836115db565b915061175982611718565b602082019050919050565b6000602082019050818103600083015261177d81611741565b9050919050565b7f4e487b7100000000000000000000000000000000000000000000000000000000600052602260045260246000fd5b600060028204905060018216806117cb57607f821691505b6020821081036117de576117dd611784565b5b50919050565b7f5573657220616c72656164792072656769737465726564000000000000000000600082015250565b600061181a6017836115db565b9150611825826117e4565b602082019050919050565b600060208201905081810360008301526118498161180d565b9050919050565b60008190508160005260206000209050919050565b60006020601f8301049050919050565b600082821b905092915050565b6000600883026118b27fffffffffffffffffffffffffffffffffffffffffffffffffffffffffffffffff82611875565b6118bc8683611875565b95508019841693508086168417925050509392505050565b6000819050919050565b60006118f96118f46118ef84611108565b6118d4565b611108565b9050919050565b6000819050919050565b611913836118de565b61192761191f82611900565b848454611882565b825550505050565b600090565b61193c61192f565b61194781848461190a565b505050565b5b8181101561196b57611960600082611934565b60018101905061194d565b5050565b601f8211156119b05761198181611850565b61198a84611865565b81016020851015611999578190505b6119ad6119a585611865565b83018261194c565b50505b505050565b600082821c905092915050565b60006119d3600019846008026119b5565b1980831691505092915050565b60006119ec83836119c2565b9150826002028217905092915050565b611a0582610f6f565b67ffffffffffffffff811115611a1e57611a1d6111cb565b5b611a2882546117b3565b611a3382828561196f565b600060209050601f831160018114611a665760008415611a54578287015190505b611a5e85826119e0565b865550611ac6565b601f198416611a7486611850565b60005b82811015611a9c57848901518255600182019150602085019450602081019050611a77565b86831015611ab95784890151611ab5601f8916826119c2565b8355505b6001600288020188555050505b505050505050565b60008160601b9050919050565b6000611ae682611ace565b9050919050565b6000611af882611adb565b9050919050565b611b10611b0b82610f4e565b611aed565b82525050565b6000611b228284611aff565b60148201915081905092915050565b7f7573657220646f65736e27742065786973740000000000000000000000000000600082015250565b6000611b676012836115db565b9150611b7282611b31565b602082019050919050565b60006020820190508181036000830152611b9681611b5a565b9050919050565b600081905092915050565b6000611bb382610f6f565b611bbd8185611b9d565b9350611bcd818560208601610f8b565b80840191505092915050565b6000611be58284611ba8565b915081905092915050565b60008154611bfd816117b3565b611c078186611b9d565b94506001821660008114611c225760018114611c3757611c6a565b60ff1983168652811515820286019350611c6a565b611c4085611850565b60005b83811015611c6257815481890152600182019150602081019050611c43565b838801955050505b50505092915050565b6000611c7f8284611bf0565b915081905092915050565b7f4e6f20636f6d6d656e7473000000000000000000000000000000000000000000600082015250565b6000611cc0600b836115db565b9150611ccb82611c8a565b602082019050919050565b60006020820190508181036000830152611cef81611cb3565b905091905056fea264697066735822122067677ad67d1cf57845550a2f1837238881860fe3e6b7071007f621b94645d25e64736f6c63430008120033",
  "immutableReferences": {},
  "source": "// SPDX-License-Identifier: MIT\r\npragma solidity ^0.8.13;\r\n\r\ncontract SocialNetwork {\r\n    //////////////////////////////////////////////////////////////////////////////////////////////////////////////////////\r\n    //  User Authentication Section                                                                                     //\r\n    //////////////////////////////////////////////////////////////////////////////////////////////////////////////////////\r\n\r\n    struct userData {\r\n        address userAddress;\r\n        string imageCID;\r\n        bytes32 userName;\r\n        bytes32 firstName;\r\n        bytes32 lastName;\r\n        bytes32 dateOfBirth;\r\n        bytes32 status;\r\n    }\r\n\r\n    mapping(address => userData) accounts;\r\n\r\n    address[] public userAddresses;\r\n\r\n    function registerUser(\r\n        address _userAddress,\r\n        string memory _imageCID,\r\n        bytes32 _userName,\r\n        bytes32 _firstName,\r\n        bytes32 _lastName,\r\n        bytes32 _dateOfBirth,\r\n        bytes32 _status\r\n    ) public {\r\n        require(\r\n            accounts[_userAddress].userAddress != msg.sender,\r\n            \"User already registered\"\r\n        );\r\n        userAddresses.push(_userAddress);\r\n        accounts[msg.sender] = userData({\r\n            userAddress: msg.sender,\r\n            imageCID: _imageCID,\r\n            userName: _userName,\r\n            firstName: _firstName,\r\n            lastName: _lastName,\r\n            dateOfBirth: _dateOfBirth,\r\n            status: _status\r\n        });\r\n    }\r\n\r\n    function getAllUsers() public view returns (address[] memory) {\r\n        return userAddresses;\r\n    }\r\n\r\n    function getUser(\r\n        address userAddress\r\n    ) public view returns (userData memory) {\r\n        require(\r\n            abi.encodePacked(accounts[msg.sender].userAddress).length > 0,\r\n            \"user doesn't exist\"\r\n        );\r\n        return accounts[userAddress];\r\n    }\r\n\r\n    function loginUser() public view returns (bool) {\r\n        require(\r\n            accounts[msg.sender].userAddress != address(0),\r\n            \"user doesn't exist\"\r\n        );\r\n        return true;\r\n    }\r\n\r\n    //////////////////////////////////////////////////////////////////////////////////////////////////////////////////////\r\n    //  Post and Comment Section                                                                                        //\r\n    //////////////////////////////////////////////////////////////////////////////////////////////////////////////////////\r\n\r\n    struct post {\r\n        address userAddress;\r\n        string postCID;\r\n    }\r\n\r\n    // string[] postList;\r\n    // mapping(string => post) postData;\r\n\r\n    // function addPost(string memory _PostCID) public {\r\n    //     require(\r\n    //         accounts[msg.sender].userAddress == msg.sender,\r\n    //         \"User doesn't exist\"\r\n    //     );\r\n    //     postList.push(_PostCID);\r\n    //     postData[_PostCID] = post({\r\n    //         userAddress: msg.sender,\r\n    //         postCID: _PostCID,\r\n    //         commentCID: \"\"\r\n    //     });\r\n    // }\r\n\r\n    post[] allPostData;\r\n    mapping(string => string) allComments;\r\n\r\n    function addPost(string memory _PostCID) public {\r\n        require(\r\n            accounts[msg.sender].userAddress == msg.sender,\r\n            \"User doesn't exist\"\r\n        );\r\n        allPostData.push(post({userAddress: msg.sender, postCID: _PostCID}));\r\n    }\r\n\r\n    function addComment(\r\n        string memory _postCID,\r\n        string memory _CommentCID\r\n    ) public {\r\n        require(\r\n            accounts[msg.sender].userAddress == msg.sender,\r\n            \"User doesn't exist\"\r\n        );\r\n        allComments[_postCID] = _CommentCID;\r\n    }\r\n\r\n    function getPosts() public view returns (post[] memory) {\r\n        require(\r\n            accounts[msg.sender].userAddress == msg.sender,\r\n            \"User doesn't exist\"\r\n        );\r\n        return allPostData;\r\n    }\r\n\r\n    function getComment(\r\n        string memory _postCID\r\n    ) public view returns (string memory) {\r\n        require(\r\n            accounts[msg.sender].userAddress == msg.sender,\r\n            \"User doesn't exist\"\r\n        );\r\n\r\n        require(\r\n            abi.encodePacked(allComments[_postCID]).length > 0,\r\n            \"No comments\"\r\n        );\r\n\r\n        return allComments[_postCID];\r\n    }\r\n}\r\n",
  "sourcePath": "C:\\Users\\abhis\\OneDrive\\Documents\\Main Project\\MP\\DPOSN\\truffle\\contracts\\SocialNetwork.sol",
  "compiler": {
    "name": "solc",
    "version": "0.8.18+commit.87f61d96.Emscripten.clang"
  },
  "schemaVersion": "3.4.16",
  "updatedAt": "2024-03-23T10:41:25.006Z",
  "networkType": "ethereum",
  "devdoc": {
    "kind": "dev",
    "methods": {},
    "version": 1
  },
  "userdoc": {
    "kind": "user",
    "methods": {},
    "version": 1
  }
}