{
  "contractName": "SocialNetwork",
  "abi": [
    {
      "inputs": [
        {
          "internalType": "uint256",
          "name": "",
          "type": "uint256"
        }
      ],
      "name": "userAddresses",
      "outputs": [
        {
          "internalType": "address",
          "name": "",
          "type": "address"
        }
      ],
      "stateMutability": "view",
      "type": "function",
      "constant": true
    },
    {
      "inputs": [
        {
          "internalType": "address",
          "name": "_userAddress",
          "type": "address"
        },
        {
          "internalType": "string",
          "name": "_imageCID",
          "type": "string"
        },
        {
          "internalType": "bytes32",
          "name": "_userName",
          "type": "bytes32"
        },
        {
          "internalType": "bytes32",
          "name": "_firstName",
          "type": "bytes32"
        },
        {
          "internalType": "bytes32",
          "name": "_lastName",
          "type": "bytes32"
        },
        {
          "internalType": "bytes32",
          "name": "_dateOfBirth",
          "type": "bytes32"
        },
        {
          "internalType": "bytes32",
          "name": "_status",
          "type": "bytes32"
        }
      ],
      "name": "registerUser",
      "outputs": [],
      "stateMutability": "nonpayable",
      "type": "function"
    },
    {
      "inputs": [],
      "name": "getAllUsers",
      "outputs": [
        {
          "internalType": "address[]",
          "name": "",
          "type": "address[]"
        }
      ],
      "stateMutability": "view",
      "type": "function",
      "constant": true
    },
    {
      "inputs": [
        {
          "internalType": "address",
          "name": "userAddress",
          "type": "address"
        }
      ],
      "name": "getUser",
      "outputs": [
        {
          "components": [
            {
              "internalType": "address",
              "name": "userAddress",
              "type": "address"
            },
            {
              "internalType": "string",
              "name": "imageCID",
              "type": "string"
            },
            {
              "internalType": "bytes32",
              "name": "userName",
              "type": "bytes32"
            },
            {
              "internalType": "bytes32",
              "name": "firstName",
              "type": "bytes32"
            },
            {
              "internalType": "bytes32",
              "name": "lastName",
              "type": "bytes32"
            },
            {
              "internalType": "bytes32",
              "name": "dateOfBirth",
              "type": "bytes32"
            },
            {
              "internalType": "bytes32",
              "name": "status",
              "type": "bytes32"
            },
            {
              "internalType": "address[]",
              "name": "followers",
              "type": "address[]"
            },
            {
              "internalType": "address[]",
              "name": "following",
              "type": "address[]"
            },
            {
              "internalType": "uint256",
              "name": "followersCount",
              "type": "uint256"
            },
            {
              "internalType": "uint256",
              "name": "followingCount",
              "type": "uint256"
            }
          ],
          "internalType": "struct SocialNetwork.userData",
          "name": "",
          "type": "tuple"
        }
      ],
      "stateMutability": "view",
      "type": "function",
      "constant": true
    },
    {
      "inputs": [],
      "name": "loginUser",
      "outputs": [
        {
          "internalType": "bool",
          "name": "",
          "type": "bool"
        }
      ],
      "stateMutability": "view",
      "type": "function",
      "constant": true
    },
    {
      "inputs": [
        {
          "internalType": "string",
          "name": "_PostCID",
          "type": "string"
        }
      ],
      "name": "addPost",
      "outputs": [],
      "stateMutability": "nonpayable",
      "type": "function"
    },
    {
      "inputs": [],
      "name": "getPosts",
      "outputs": [
        {
          "components": [
            {
              "internalType": "address",
              "name": "userAddress",
              "type": "address"
            },
            {
              "internalType": "string",
              "name": "postCID",
              "type": "string"
            }
          ],
          "internalType": "struct SocialNetwork.post[]",
          "name": "",
          "type": "tuple[]"
        }
      ],
      "stateMutability": "view",
      "type": "function",
      "constant": true
    },
    {
      "inputs": [
        {
          "internalType": "string",
          "name": "_postCID",
          "type": "string"
        },
        {
          "internalType": "string",
          "name": "_CommentCID",
          "type": "string"
        }
      ],
      "name": "addComment",
      "outputs": [],
      "stateMutability": "nonpayable",
      "type": "function"
    },
    {
      "inputs": [
        {
          "internalType": "string",
          "name": "_postCID",
          "type": "string"
        }
      ],
      "name": "getComment",
      "outputs": [
        {
          "internalType": "string",
          "name": "",
          "type": "string"
        }
      ],
      "stateMutability": "view",
      "type": "function",
      "constant": true
    },
    {
      "inputs": [
        {
          "internalType": "string",
          "name": "_postCID",
          "type": "string"
        },
        {
          "internalType": "string",
          "name": "_likesCID",
          "type": "string"
        }
      ],
      "name": "addLikes",
      "outputs": [],
      "stateMutability": "nonpayable",
      "type": "function"
    },
    {
      "inputs": [
        {
          "internalType": "string",
          "name": "_postCID",
          "type": "string"
        }
      ],
      "name": "getLikes",
      "outputs": [
        {
          "internalType": "string",
          "name": "",
          "type": "string"
        }
      ],
      "stateMutability": "view",
      "type": "function",
      "constant": true
    },
    {
      "inputs": [
        {
          "internalType": "string",
          "name": "_postCID",
          "type": "string"
        },
        {
          "internalType": "string",
          "name": "_reportCID",
          "type": "string"
        }
      ],
      "name": "addReports",
      "outputs": [],
      "stateMutability": "nonpayable",
      "type": "function"
    },
    {
      "inputs": [
        {
          "internalType": "string",
          "name": "_postCID",
          "type": "string"
        }
      ],
      "name": "getReports",
      "outputs": [
        {
          "internalType": "string",
          "name": "",
          "type": "string"
        }
      ],
      "stateMutability": "view",
      "type": "function",
      "constant": true
    },
    {
      "inputs": [
        {
          "internalType": "address",
          "name": "_currentUser",
          "type": "address"
        },
        {
          "internalType": "address",
          "name": "_userToFollow",
          "type": "address"
        }
      ],
      "name": "followUser",
      "outputs": [],
      "stateMutability": "nonpayable",
      "type": "function"
    },
    {
      "inputs": [],
      "name": "getFollowedUsers",
      "outputs": [
        {
          "internalType": "address[]",
          "name": "",
          "type": "address[]"
        }
      ],
      "stateMutability": "view",
      "type": "function",
      "constant": true
    },
    {
      "inputs": [
        {
          "internalType": "address",
          "name": "userAddress",
          "type": "address"
        }
      ],
      "name": "getFollowersCount",
      "outputs": [
        {
          "internalType": "uint256",
          "name": "",
          "type": "uint256"
        }
      ],
      "stateMutability": "view",
      "type": "function",
      "constant": true
    },
    {
      "inputs": [
        {
          "internalType": "address",
          "name": "sender",
          "type": "address"
        },
        {
          "internalType": "address",
          "name": "receiver",
          "type": "address"
        },
        {
          "internalType": "string",
          "name": "chatCID",
          "type": "string"
        }
      ],
      "name": "sendMessage",
      "outputs": [],
      "stateMutability": "nonpayable",
      "type": "function"
    },
    {
      "inputs": [
        {
          "internalType": "address",
          "name": "sender",
          "type": "address"
        },
        {
          "internalType": "address",
          "name": "receiver",
          "type": "address"
        }
      ],
      "name": "getMessage",
      "outputs": [
        {
          "internalType": "string",
          "name": "",
          "type": "string"
        }
      ],
      "stateMutability": "view",
      "type": "function",
      "constant": true
    }
  ],
  "bytecode": "0x608060405234801561001057600080fd5b50613602806100206000396000f3fe608060405234801561001057600080fd5b50600436106101165760003560e01c806374bfb003116100a2578063a632281911610071578063a632281914610305578063ae5ff90514610321578063b88e318d1461033d578063cbbaa58914610359578063e2842d791461038957610116565b806374bfb0031461026b5780639e5019ef1461029b578063a19ed686146102b7578063a39b06e3146102d557610116565b806341f3004a116100e957806341f3004a146101b3578063502c9bd5146101d157806364160a6b146102015780636923a07e1461021f5780636f77926b1461023b57610116565b80630c8273e61461011b5780631a68638a14610137578063208d40a21461016757806325e9ccf914610183575b600080fd5b610135600480360381019061013091906123d0565b6103a7565b005b610151600480360381019061014c9190612556565b6107f5565b60405161015e919061261e565b60405180910390f35b610181600480360381019061017c9190612640565b610974565b005b61019d600480360381019061019891906126b8565b610a73565b6040516101aa91906126fe565b60405180910390f35b6101bb610abe565b6040516101c89190612871565b60405180910390f35b6101eb60048036038101906101e691906128bf565b610cd4565b6040516101f891906128fb565b60405180910390f35b610209610d13565b60405161021691906129c5565b60405180910390f35b61023960048036038101906102349190612a1d565b610de0565b005b610255600480360381019061025091906126b8565b611132565b6040516102629190612c65565b60405180910390f35b61028560048036038101906102809190612556565b611499565b604051610292919061261e565b60405180910390f35b6102b560048036038101906102b09190612640565b611698565b005b6102bf611797565b6040516102cc9190612ca2565b60405180910390f35b6102ef60048036038101906102ea91906123d0565b61186f565b6040516102fc919061261e565b60405180910390f35b61031f600480360381019061031a9190612556565b611a4d565b005b61033b60048036038101906103369190612640565b611bd4565b005b61035760048036038101906103529190612cbd565b611cd3565b005b610373600480360381019061036e9190612556565b611ebb565b604051610380919061261e565b60405180910390f35b6103916120ba565b60405161039e91906129c5565b60405180910390f35b8073ffffffffffffffffffffffffffffffffffffffff168273ffffffffffffffffffffffffffffffffffffffff1603610415576040517f08c379a000000000000000000000000000000000000000000000000000000000815260040161040c90612d78565b60405180910390fd5b600073ffffffffffffffffffffffffffffffffffffffff166000808473ffffffffffffffffffffffffffffffffffffffff1673ffffffffffffffffffffffffffffffffffffffff16815260200190815260200160002060000160009054906101000a900473ffffffffffffffffffffffffffffffffffffffff1673ffffffffffffffffffffffffffffffffffffffff16036104e5576040517f08c379a00000000000000000000000000000000000000000000000000000000081526004016104dc90612de4565b60405180910390fd5b600073ffffffffffffffffffffffffffffffffffffffff166000808373ffffffffffffffffffffffffffffffffffffffff1673ffffffffffffffffffffffffffffffffffffffff16815260200190815260200160002060000160009054906101000a900473ffffffffffffffffffffffffffffffffffffffff1673ffffffffffffffffffffffffffffffffffffffff16036105b5576040517f08c379a00000000000000000000000000000000000000000000000000000000081526004016105ac90612e50565b60405180910390fd5b6105bf8282612148565b156105ff576040517f08c379a00000000000000000000000000000000000000000000000000000000081526004016105f690612ebc565b60405180910390fd5b6000808373ffffffffffffffffffffffffffffffffffffffff1673ffffffffffffffffffffffffffffffffffffffff168152602001908152602001600020600801819080600181540180825580915050600190039060005260206000200160009091909190916101000a81548173ffffffffffffffffffffffffffffffffffffffff021916908373ffffffffffffffffffffffffffffffffffffffff1602179055506000808373ffffffffffffffffffffffffffffffffffffffff1673ffffffffffffffffffffffffffffffffffffffff168152602001908152602001600020600a0160008154809291906106f390612f0b565b91905055506000808273ffffffffffffffffffffffffffffffffffffffff1673ffffffffffffffffffffffffffffffffffffffff168152602001908152602001600020600701829080600181540180825580915050600190039060005260206000200160009091909190916101000a81548173ffffffffffffffffffffffffffffffffffffffff021916908373ffffffffffffffffffffffffffffffffffffffff1602179055506000808273ffffffffffffffffffffffffffffffffffffffff1673ffffffffffffffffffffffffffffffffffffffff16815260200190815260200160002060090160008154809291906107ec90612f0b565b91905055505050565b60603373ffffffffffffffffffffffffffffffffffffffff166000803373ffffffffffffffffffffffffffffffffffffffff1673ffffffffffffffffffffffffffffffffffffffff16815260200190815260200160002060000160009054906101000a900473ffffffffffffffffffffffffffffffffffffffff1673ffffffffffffffffffffffffffffffffffffffff16146108c6576040517f08c379a00000000000000000000000000000000000000000000000000000000081526004016108bd90612f9f565b60405180910390fd5b6005826040516108d69190612ffb565b908152602001604051809103902080546108ef90613041565b80601f016020809104026020016040519081016040528092919081815260200182805461091b90613041565b80156109685780601f1061093d57610100808354040283529160200191610968565b820191906000526020600020905b81548152906001019060200180831161094b57829003601f168201915b50505050509050919050565b3373ffffffffffffffffffffffffffffffffffffffff166000803373ffffffffffffffffffffffffffffffffffffffff1673ffffffffffffffffffffffffffffffffffffffff16815260200190815260200160002060000160009054906101000a900473ffffffffffffffffffffffffffffffffffffffff1673ffffffffffffffffffffffffffffffffffffffff1614610a43576040517f08c379a0000000000000000000000000000000000000000000000000000000008152600401610a3a90612f9f565b60405180910390fd5b80600583604051610a549190612ffb565b90815260200160405180910390209081610a6e919061321e565b505050565b60008060008373ffffffffffffffffffffffffffffffffffffffff1673ffffffffffffffffffffffffffffffffffffffff168152602001908152602001600020600901549050919050565b60603373ffffffffffffffffffffffffffffffffffffffff166000803373ffffffffffffffffffffffffffffffffffffffff1673ffffffffffffffffffffffffffffffffffffffff16815260200190815260200160002060000160009054906101000a900473ffffffffffffffffffffffffffffffffffffffff1673ffffffffffffffffffffffffffffffffffffffff1614610b8f576040517f08c379a0000000000000000000000000000000000000000000000000000000008152600401610b8690612f9f565b60405180910390fd5b6002805480602002602001604051908101604052809291908181526020016000905b82821015610ccb57838290600052602060002090600202016040518060400160405290816000820160009054906101000a900473ffffffffffffffffffffffffffffffffffffffff1673ffffffffffffffffffffffffffffffffffffffff1673ffffffffffffffffffffffffffffffffffffffff168152602001600182018054610c3a90613041565b80601f0160208091040260200160405190810160405280929190818152602001828054610c6690613041565b8015610cb35780601f10610c8857610100808354040283529160200191610cb3565b820191906000526020600020905b815481529060010190602001808311610c9657829003601f168201915b50505050508152505081526020019060010190610bb1565b50505050905090565b60018181548110610ce457600080fd5b906000526020600020016000915054906101000a900473ffffffffffffffffffffffffffffffffffffffff1681565b60606000803373ffffffffffffffffffffffffffffffffffffffff1673ffffffffffffffffffffffffffffffffffffffff168152602001908152602001600020600801805480602002602001604051908101604052809291908181526020018280548015610dd657602002820191906000526020600020905b8160009054906101000a900473ffffffffffffffffffffffffffffffffffffffff1673ffffffffffffffffffffffffffffffffffffffff1681526020019060010190808311610d8c575b5050505050905090565b3373ffffffffffffffffffffffffffffffffffffffff166000808973ffffffffffffffffffffffffffffffffffffffff1673ffffffffffffffffffffffffffffffffffffffff16815260200190815260200160002060000160009054906101000a900473ffffffffffffffffffffffffffffffffffffffff1673ffffffffffffffffffffffffffffffffffffffff1603610eaf576040517f08c379a0000000000000000000000000000000000000000000000000000000008152600401610ea69061333c565b60405180910390fd5b6001879080600181540180825580915050600190039060005260206000200160009091909190916101000a81548173ffffffffffffffffffffffffffffffffffffffff021916908373ffffffffffffffffffffffffffffffffffffffff1602179055506040518061016001604052803373ffffffffffffffffffffffffffffffffffffffff168152602001878152602001868152602001858152602001848152602001838152602001828152602001600067ffffffffffffffff811115610f7957610f7861242b565b5b604051908082528060200260200182016040528015610fa75781602001602082028036833780820191505090505b508152602001600067ffffffffffffffff811115610fc857610fc761242b565b5b604051908082528060200260200182016040528015610ff65781602001602082028036833780820191505090505b5081526020016000815260200160008152506000803373ffffffffffffffffffffffffffffffffffffffff1673ffffffffffffffffffffffffffffffffffffffff16815260200190815260200160002060008201518160000160006101000a81548173ffffffffffffffffffffffffffffffffffffffff021916908373ffffffffffffffffffffffffffffffffffffffff16021790555060208201518160010190816110a2919061321e565b5060408201518160020155606082015181600301556080820151816004015560a0820151816005015560c0820151816006015560e08201518160070190805190602001906110f1929190612238565b5061010082015181600801908051906020019061110f929190612238565b50610120820151816009015561014082015181600a015590505050505050505050565b61113a6122c2565b60008060003373ffffffffffffffffffffffffffffffffffffffff1673ffffffffffffffffffffffffffffffffffffffff16815260200190815260200160002060000160009054906101000a900473ffffffffffffffffffffffffffffffffffffffff166040516020016111ae91906133a4565b60405160208183030381529060405251116111fe576040517f08c379a00000000000000000000000000000000000000000000000000000000081526004016111f59061340b565b60405180910390fd5b6000808373ffffffffffffffffffffffffffffffffffffffff1673ffffffffffffffffffffffffffffffffffffffff168152602001908152602001600020604051806101600160405290816000820160009054906101000a900473ffffffffffffffffffffffffffffffffffffffff1673ffffffffffffffffffffffffffffffffffffffff1673ffffffffffffffffffffffffffffffffffffffff1681526020016001820180546112ae90613041565b80601f01602080910402602001604051908101604052809291908181526020018280546112da90613041565b80156113275780601f106112fc57610100808354040283529160200191611327565b820191906000526020600020905b81548152906001019060200180831161130a57829003601f168201915b505050505081526020016002820154815260200160038201548152602001600482015481526020016005820154815260200160068201548152602001600782018054806020026020016040519081016040528092919081815260200182805480156113e757602002820191906000526020600020905b8160009054906101000a900473ffffffffffffffffffffffffffffffffffffffff1673ffffffffffffffffffffffffffffffffffffffff168152602001906001019080831161139d575b505050505081526020016008820180548060200260200160405190810160405280929190818152602001828054801561147557602002820191906000526020600020905b8160009054906101000a900473ffffffffffffffffffffffffffffffffffffffff1673ffffffffffffffffffffffffffffffffffffffff168152602001906001019080831161142b575b5050505050815260200160098201548152602001600a820154815250509050919050565b60603373ffffffffffffffffffffffffffffffffffffffff166000803373ffffffffffffffffffffffffffffffffffffffff1673ffffffffffffffffffffffffffffffffffffffff16815260200190815260200160002060000160009054906101000a900473ffffffffffffffffffffffffffffffffffffffff1673ffffffffffffffffffffffffffffffffffffffff161461156a576040517f08c379a000000000000000000000000000000000000000000000000000000000815260040161156190612f9f565b60405180910390fd5b600060048360405161157c9190612ffb565b908152602001604051809103902060405160200161159a91906134ae565b60405160208183030381529060405251116115ea576040517f08c379a00000000000000000000000000000000000000000000000000000000081526004016115e190613511565b60405180910390fd5b6004826040516115fa9190612ffb565b9081526020016040518091039020805461161390613041565b80601f016020809104026020016040519081016040528092919081815260200182805461163f90613041565b801561168c5780601f106116615761010080835404028352916020019161168c565b820191906000526020600020905b81548152906001019060200180831161166f57829003601f168201915b50505050509050919050565b3373ffffffffffffffffffffffffffffffffffffffff166000803373ffffffffffffffffffffffffffffffffffffffff1673ffffffffffffffffffffffffffffffffffffffff16815260200190815260200160002060000160009054906101000a900473ffffffffffffffffffffffffffffffffffffffff1673ffffffffffffffffffffffffffffffffffffffff1614611767576040517f08c379a000000000000000000000000000000000000000000000000000000000815260040161175e90612f9f565b60405180910390fd5b806004836040516117789190612ffb565b90815260200160405180910390209081611792919061321e565b505050565b60008073ffffffffffffffffffffffffffffffffffffffff166000803373ffffffffffffffffffffffffffffffffffffffff1673ffffffffffffffffffffffffffffffffffffffff16815260200190815260200160002060000160009054906101000a900473ffffffffffffffffffffffffffffffffffffffff1673ffffffffffffffffffffffffffffffffffffffff1603611868576040517f08c379a000000000000000000000000000000000000000000000000000000000815260040161185f9061340b565b60405180910390fd5b6001905090565b60603373ffffffffffffffffffffffffffffffffffffffff166000803373ffffffffffffffffffffffffffffffffffffffff1673ffffffffffffffffffffffffffffffffffffffff16815260200190815260200160002060000160009054906101000a900473ffffffffffffffffffffffffffffffffffffffff1673ffffffffffffffffffffffffffffffffffffffff1614611940576040517f08c379a000000000000000000000000000000000000000000000000000000000815260040161193790612f9f565b60405180910390fd5b600660008473ffffffffffffffffffffffffffffffffffffffff1673ffffffffffffffffffffffffffffffffffffffff16815260200190815260200160002060008373ffffffffffffffffffffffffffffffffffffffff1673ffffffffffffffffffffffffffffffffffffffff16815260200190815260200160002080546119c790613041565b80601f01602080910402602001604051908101604052809291908181526020018280546119f390613041565b8015611a405780601f10611a1557610100808354040283529160200191611a40565b820191906000526020600020905b815481529060010190602001808311611a2357829003601f168201915b5050505050905092915050565b3373ffffffffffffffffffffffffffffffffffffffff166000803373ffffffffffffffffffffffffffffffffffffffff1673ffffffffffffffffffffffffffffffffffffffff16815260200190815260200160002060000160009054906101000a900473ffffffffffffffffffffffffffffffffffffffff1673ffffffffffffffffffffffffffffffffffffffff1614611b1c576040517f08c379a0000000000000000000000000000000000000000000000000000000008152600401611b1390612f9f565b60405180910390fd5b600260405180604001604052803373ffffffffffffffffffffffffffffffffffffffff16815260200183815250908060018154018082558091505060019003906000526020600020906002020160009091909190915060008201518160000160006101000a81548173ffffffffffffffffffffffffffffffffffffffff021916908373ffffffffffffffffffffffffffffffffffffffff1602179055506020820151816001019081611bce919061321e565b50505050565b3373ffffffffffffffffffffffffffffffffffffffff166000803373ffffffffffffffffffffffffffffffffffffffff1673ffffffffffffffffffffffffffffffffffffffff16815260200190815260200160002060000160009054906101000a900473ffffffffffffffffffffffffffffffffffffffff1673ffffffffffffffffffffffffffffffffffffffff1614611ca3576040517f08c379a0000000000000000000000000000000000000000000000000000000008152600401611c9a90612f9f565b60405180910390fd5b80600383604051611cb49190612ffb565b90815260200160405180910390209081611cce919061321e565b505050565b8173ffffffffffffffffffffffffffffffffffffffff166000808473ffffffffffffffffffffffffffffffffffffffff1673ffffffffffffffffffffffffffffffffffffffff16815260200190815260200160002060000160009054906101000a900473ffffffffffffffffffffffffffffffffffffffff1673ffffffffffffffffffffffffffffffffffffffff1614611da2576040517f08c379a0000000000000000000000000000000000000000000000000000000008152600401611d9990612f9f565b60405180910390fd5b80600660008573ffffffffffffffffffffffffffffffffffffffff1673ffffffffffffffffffffffffffffffffffffffff16815260200190815260200160002060008473ffffffffffffffffffffffffffffffffffffffff1673ffffffffffffffffffffffffffffffffffffffff1681526020019081526020016000209081611e2b919061321e565b5080600660008473ffffffffffffffffffffffffffffffffffffffff1673ffffffffffffffffffffffffffffffffffffffff16815260200190815260200160002060008573ffffffffffffffffffffffffffffffffffffffff1673ffffffffffffffffffffffffffffffffffffffff1681526020019081526020016000209081611eb5919061321e565b50505050565b60603373ffffffffffffffffffffffffffffffffffffffff166000803373ffffffffffffffffffffffffffffffffffffffff1673ffffffffffffffffffffffffffffffffffffffff16815260200190815260200160002060000160009054906101000a900473ffffffffffffffffffffffffffffffffffffffff1673ffffffffffffffffffffffffffffffffffffffff1614611f8c576040517f08c379a0000000000000000000000000000000000000000000000000000000008152600401611f8390612f9f565b60405180910390fd5b6000600383604051611f9e9190612ffb565b9081526020016040518091039020604051602001611fbc91906134ae565b604051602081830303815290604052511161200c576040517f08c379a00000000000000000000000000000000000000000000000000000000081526004016120039061357d565b60405180910390fd5b60038260405161201c9190612ffb565b9081526020016040518091039020805461203590613041565b80601f016020809104026020016040519081016040528092919081815260200182805461206190613041565b80156120ae5780601f10612083576101008083540402835291602001916120ae565b820191906000526020600020905b81548152906001019060200180831161209157829003601f168201915b50505050509050919050565b6060600180548060200260200160405190810160405280929190818152602001828054801561213e57602002820191906000526020600020905b8160009054906101000a900473ffffffffffffffffffffffffffffffffffffffff1673ffffffffffffffffffffffffffffffffffffffff16815260200190600101908083116120f4575b5050505050905090565b6000806000808573ffffffffffffffffffffffffffffffffffffffff1673ffffffffffffffffffffffffffffffffffffffff168152602001908152602001600020600801905060005b818054905081101561222b578373ffffffffffffffffffffffffffffffffffffffff168282815481106121c7576121c661359d565b5b9060005260206000200160009054906101000a900473ffffffffffffffffffffffffffffffffffffffff1673ffffffffffffffffffffffffffffffffffffffff160361221857600192505050612232565b808061222390612f0b565b915050612191565b5060009150505b92915050565b8280548282559060005260206000209081019282156122b1579160200282015b828111156122b05782518260006101000a81548173ffffffffffffffffffffffffffffffffffffffff021916908373ffffffffffffffffffffffffffffffffffffffff16021790555091602001919060010190612258565b5b5090506122be9190612341565b5090565b604051806101600160405280600073ffffffffffffffffffffffffffffffffffffffff168152602001606081526020016000801916815260200160008019168152602001600080191681526020016000801916815260200160008019168152602001606081526020016060815260200160008152602001600081525090565b5b8082111561235a576000816000905550600101612342565b5090565b6000604051905090565b600080fd5b600080fd5b600073ffffffffffffffffffffffffffffffffffffffff82169050919050565b600061239d82612372565b9050919050565b6123ad81612392565b81146123b857600080fd5b50565b6000813590506123ca816123a4565b92915050565b600080604083850312156123e7576123e6612368565b5b60006123f5858286016123bb565b9250506020612406858286016123bb565b9150509250929050565b600080fd5b600080fd5b6000601f19601f8301169050919050565b7f4e487b7100000000000000000000000000000000000000000000000000000000600052604160045260246000fd5b6124638261241a565b810181811067ffffffffffffffff821117156124825761248161242b565b5b80604052505050565b600061249561235e565b90506124a1828261245a565b919050565b600067ffffffffffffffff8211156124c1576124c061242b565b5b6124ca8261241a565b9050602081019050919050565b82818337600083830152505050565b60006124f96124f4846124a6565b61248b565b90508281526020810184848401111561251557612514612415565b5b6125208482856124d7565b509392505050565b600082601f83011261253d5761253c612410565b5b813561254d8482602086016124e6565b91505092915050565b60006020828403121561256c5761256b612368565b5b600082013567ffffffffffffffff81111561258a5761258961236d565b5b61259684828501612528565b91505092915050565b600081519050919050565b600082825260208201905092915050565b60005b838110156125d95780820151818401526020810190506125be565b60008484015250505050565b60006125f08261259f565b6125fa81856125aa565b935061260a8185602086016125bb565b6126138161241a565b840191505092915050565b6000602082019050818103600083015261263881846125e5565b905092915050565b6000806040838503121561265757612656612368565b5b600083013567ffffffffffffffff8111156126755761267461236d565b5b61268185828601612528565b925050602083013567ffffffffffffffff8111156126a2576126a161236d565b5b6126ae85828601612528565b9150509250929050565b6000602082840312156126ce576126cd612368565b5b60006126dc848285016123bb565b91505092915050565b6000819050919050565b6126f8816126e5565b82525050565b600060208201905061271360008301846126ef565b92915050565b600081519050919050565b600082825260208201905092915050565b6000819050602082019050919050565b61274e81612392565b82525050565b600082825260208201905092915050565b60006127708261259f565b61277a8185612754565b935061278a8185602086016125bb565b6127938161241a565b840191505092915050565b60006040830160008301516127b66000860182612745565b50602083015184820360208601526127ce8282612765565b9150508091505092915050565b60006127e7838361279e565b905092915050565b6000602082019050919050565b600061280782612719565b6128118185612724565b93508360208202850161282385612735565b8060005b8581101561285f578484038952815161284085826127db565b945061284b836127ef565b925060208a01995050600181019050612827565b50829750879550505050505092915050565b6000602082019050818103600083015261288b81846127fc565b905092915050565b61289c816126e5565b81146128a757600080fd5b50565b6000813590506128b981612893565b92915050565b6000602082840312156128d5576128d4612368565b5b60006128e3848285016128aa565b91505092915050565b6128f581612392565b82525050565b600060208201905061291060008301846128ec565b92915050565b600081519050919050565b600082825260208201905092915050565b6000819050602082019050919050565b600061294e8383612745565b60208301905092915050565b6000602082019050919050565b600061297282612916565b61297c8185612921565b935061298783612932565b8060005b838110156129b857815161299f8882612942565b97506129aa8361295a565b92505060018101905061298b565b5085935050505092915050565b600060208201905081810360008301526129df8184612967565b905092915050565b6000819050919050565b6129fa816129e7565b8114612a0557600080fd5b50565b600081359050612a17816129f1565b92915050565b600080600080600080600060e0888a031215612a3c57612a3b612368565b5b6000612a4a8a828b016123bb565b975050602088013567ffffffffffffffff811115612a6b57612a6a61236d565b5b612a778a828b01612528565b9650506040612a888a828b01612a08565b9550506060612a998a828b01612a08565b9450506080612aaa8a828b01612a08565b93505060a0612abb8a828b01612a08565b92505060c0612acc8a828b01612a08565b91505092959891949750929550565b612ae4816129e7565b82525050565b600082825260208201905092915050565b6000612b0682612916565b612b108185612aea565b9350612b1b83612932565b8060005b83811015612b4c578151612b338882612942565b9750612b3e8361295a565b925050600181019050612b1f565b5085935050505092915050565b612b62816126e5565b82525050565b600061016083016000830151612b816000860182612745565b5060208301518482036020860152612b998282612765565b9150506040830151612bae6040860182612adb565b506060830151612bc16060860182612adb565b506080830151612bd46080860182612adb565b5060a0830151612be760a0860182612adb565b5060c0830151612bfa60c0860182612adb565b5060e083015184820360e0860152612c128282612afb565b915050610100830151848203610100860152612c2e8282612afb565b915050610120830151612c45610120860182612b59565b50610140830151612c5a610140860182612b59565b508091505092915050565b60006020820190508181036000830152612c7f8184612b68565b905092915050565b60008115159050919050565b612c9c81612c87565b82525050565b6000602082019050612cb76000830184612c93565b92915050565b600080600060608486031215612cd657612cd5612368565b5b6000612ce4868287016123bb565b9350506020612cf5868287016123bb565b925050604084013567ffffffffffffffff811115612d1657612d1561236d565b5b612d2286828701612528565b9150509250925092565b7f43616e6e6f7420666f6c6c6f7720796f757273656c6600000000000000000000600082015250565b6000612d626016836125aa565b9150612d6d82612d2c565b602082019050919050565b60006020820190508181036000830152612d9181612d55565b9050919050565b7f43757272656e74207573657220646f6573206e6f742065786973740000000000600082015250565b6000612dce601b836125aa565b9150612dd982612d98565b602082019050919050565b60006020820190508181036000830152612dfd81612dc1565b9050919050565b7f5573657220746f20666f6c6c6f7720646f6573206e6f74206578697374000000600082015250565b6000612e3a601d836125aa565b9150612e4582612e04565b602082019050919050565b60006020820190508181036000830152612e6981612e2d565b9050919050565b7f416c726561647920666f6c6c6f77696e67207468697320757365720000000000600082015250565b6000612ea6601b836125aa565b9150612eb182612e70565b602082019050919050565b60006020820190508181036000830152612ed581612e99565b9050919050565b7f4e487b7100000000000000000000000000000000000000000000000000000000600052601160045260246000fd5b6000612f16826126e5565b91507fffffffffffffffffffffffffffffffffffffffffffffffffffffffffffffffff8203612f4857612f47612edc565b5b600182019050919050565b7f5573657220646f65736e27742065786973740000000000000000000000000000600082015250565b6000612f896012836125aa565b9150612f9482612f53565b602082019050919050565b60006020820190508181036000830152612fb881612f7c565b9050919050565b600081905092915050565b6000612fd58261259f565b612fdf8185612fbf565b9350612fef8185602086016125bb565b80840191505092915050565b60006130078284612fca565b915081905092915050565b7f4e487b7100000000000000000000000000000000000000000000000000000000600052602260045260246000fd5b6000600282049050600182168061305957607f821691505b60208210810361306c5761306b613012565b5b50919050565b60008190508160005260206000209050919050565b60006020601f8301049050919050565b600082821b905092915050565b6000600883026130d47fffffffffffffffffffffffffffffffffffffffffffffffffffffffffffffffff82613097565b6130de8683613097565b95508019841693508086168417925050509392505050565b6000819050919050565b600061311b613116613111846126e5565b6130f6565b6126e5565b9050919050565b6000819050919050565b61313583613100565b61314961314182613122565b8484546130a4565b825550505050565b600090565b61315e613151565b61316981848461312c565b505050565b5b8181101561318d57613182600082613156565b60018101905061316f565b5050565b601f8211156131d2576131a381613072565b6131ac84613087565b810160208510156131bb578190505b6131cf6131c785613087565b83018261316e565b50505b505050565b600082821c905092915050565b60006131f5600019846008026131d7565b1980831691505092915050565b600061320e83836131e4565b9150826002028217905092915050565b6132278261259f565b67ffffffffffffffff8111156132405761323f61242b565b5b61324a8254613041565b613255828285613191565b600060209050601f8311600181146132885760008415613276578287015190505b6132808582613202565b8655506132e8565b601f19841661329686613072565b60005b828110156132be57848901518255600182019150602085019450602081019050613299565b868310156132db57848901516132d7601f8916826131e4565b8355505b6001600288020188555050505b505050505050565b7f5573657220616c72656164792072656769737465726564000000000000000000600082015250565b60006133266017836125aa565b9150613331826132f0565b602082019050919050565b6000602082019050818103600083015261335581613319565b9050919050565b60008160601b9050919050565b60006133748261335c565b9050919050565b600061338682613369565b9050919050565b61339e61339982612392565b61337b565b82525050565b60006133b0828461338d565b60148201915081905092915050565b7f7573657220646f65736e27742065786973740000000000000000000000000000600082015250565b60006133f56012836125aa565b9150613400826133bf565b602082019050919050565b60006020820190508181036000830152613424816133e8565b9050919050565b6000815461343881613041565b6134428186612fbf565b9450600182166000811461345d5760018114613472576134a5565b60ff19831686528115158202860193506134a5565b61347b85613072565b60005b8381101561349d5781548189015260018201915060208101905061347e565b838801955050505b50505092915050565b60006134ba828461342b565b915081905092915050565b7f4e6f204c696b6573000000000000000000000000000000000000000000000000600082015250565b60006134fb6008836125aa565b9150613506826134c5565b602082019050919050565b6000602082019050818103600083015261352a816134ee565b9050919050565b7f4e6f20636f6d6d656e7473000000000000000000000000000000000000000000600082015250565b6000613567600b836125aa565b915061357282613531565b602082019050919050565b600060208201905081810360008301526135968161355a565b9050919050565b7f4e487b7100000000000000000000000000000000000000000000000000000000600052603260045260246000fdfea2646970667358221220e8785494adcb572154a8d15c457cc1620c9915c4c8dc259b449ba2dabbe4969964736f6c63430008120033",
  "immutableReferences": {},
  "source": "// SPDX-License-Identifier: MIT\r\npragma solidity ^0.8.13;\r\n\r\ncontract SocialNetwork {\r\n    //////////////////////////////////////////////////////////////////////////////////////////////////////////////////////\r\n    //  User Authentication Section                                                                                     //\r\n    //////////////////////////////////////////////////////////////////////////////////////////////////////////////////////\r\n\r\n    struct userData {\r\n        address userAddress;\r\n        string imageCID;\r\n        bytes32 userName;\r\n        bytes32 firstName;\r\n        bytes32 lastName;\r\n        bytes32 dateOfBirth;\r\n        bytes32 status;\r\n        address[] followers;\r\n        address[] following;\r\n        uint followersCount;\r\n        uint followingCount;\r\n    }\r\n\r\n    mapping(address => userData) accounts;\r\n\r\n    address[] public userAddresses;\r\n\r\n    function registerUser(\r\n        address _userAddress,\r\n        string memory _imageCID,\r\n        bytes32 _userName,\r\n        bytes32 _firstName,\r\n        bytes32 _lastName,\r\n        bytes32 _dateOfBirth,\r\n        bytes32 _status\r\n    ) public {\r\n        require(\r\n            accounts[_userAddress].userAddress != msg.sender,\r\n            \"User already registered\"\r\n        );\r\n        userAddresses.push(_userAddress);\r\n        accounts[msg.sender] = userData({\r\n            userAddress: msg.sender,\r\n            imageCID: _imageCID,\r\n            userName: _userName,\r\n            firstName: _firstName,\r\n            lastName: _lastName,\r\n            dateOfBirth: _dateOfBirth,\r\n            status: _status,\r\n            followers: new address[](0),\r\n            following: new address[](0),\r\n            followersCount: 0,\r\n            followingCount: 0\r\n        });\r\n    }\r\n\r\n    function getAllUsers() public view returns (address[] memory) {\r\n        return userAddresses;\r\n    }\r\n\r\n    function getUser(\r\n        address userAddress\r\n    ) public view returns (userData memory) {\r\n        require(\r\n            abi.encodePacked(accounts[msg.sender].userAddress).length > 0,\r\n            \"user doesn't exist\"\r\n        );\r\n        return accounts[userAddress];\r\n    }\r\n\r\n    function loginUser() public view returns (bool) {\r\n        require(\r\n            accounts[msg.sender].userAddress != address(0),\r\n            \"user doesn't exist\"\r\n        );\r\n        return true;\r\n    }\r\n\r\n    //////////////////////////////////////////////////////////////////////////////////////////////////////////////////////\r\n    //  Post and Comment Section                                                                                        //\r\n    //////////////////////////////////////////////////////////////////////////////////////////////////////////////////////\r\n\r\n    struct post {\r\n        address userAddress;\r\n        string postCID;\r\n    }\r\n\r\n    // string[] postList;\r\n    // mapping(string => post) postData;\r\n\r\n    // function addPost(string memory _PostCID) public {\r\n    //     require(\r\n    //         accounts[msg.sender].userAddress == msg.sender,\r\n    //         \"User doesn't exist\"\r\n    //     );\r\n    //     postList.push(_PostCID);\r\n    //     postData[_PostCID] = post({\r\n    //         userAddress: msg.sender,\r\n    //         postCID: _PostCID,\r\n    //         commentCID: \"\"\r\n    //     });\r\n    // }\r\n\r\n    post[] allPostData;\r\n    mapping(string => string) allComments;\r\n    mapping(string => string) allLikes;\r\n    mapping(string => string) allReports;\r\n\r\n    // post section\r\n    function addPost(string memory _PostCID) public {\r\n        require(\r\n            accounts[msg.sender].userAddress == msg.sender,\r\n            \"User doesn't exist\"\r\n        );\r\n        allPostData.push(post({userAddress: msg.sender, postCID: _PostCID}));\r\n    }\r\n\r\n    function getPosts() public view returns (post[] memory) {\r\n        require(\r\n            accounts[msg.sender].userAddress == msg.sender,\r\n            \"User doesn't exist\"\r\n        );\r\n        return allPostData;\r\n    }\r\n\r\n    // comment section\r\n    function addComment(\r\n        string memory _postCID,\r\n        string memory _CommentCID\r\n    ) public {\r\n        require(\r\n            accounts[msg.sender].userAddress == msg.sender,\r\n            \"User doesn't exist\"\r\n        );\r\n        allComments[_postCID] = _CommentCID;\r\n    }\r\n\r\n    function getComment(\r\n        string memory _postCID\r\n    ) public view returns (string memory) {\r\n        require(\r\n            accounts[msg.sender].userAddress == msg.sender,\r\n            \"User doesn't exist\"\r\n        );\r\n\r\n        require(\r\n            abi.encodePacked(allComments[_postCID]).length > 0,\r\n            \"No comments\"\r\n        );\r\n\r\n        return allComments[_postCID];\r\n    }\r\n\r\n    // like section\r\n    function addLikes(string memory _postCID, string memory _likesCID) public {\r\n        require(\r\n            accounts[msg.sender].userAddress == msg.sender,\r\n            \"User doesn't exist\"\r\n        );\r\n        allLikes[_postCID] = _likesCID;\r\n    }\r\n\r\n    function getLikes(\r\n        string memory _postCID\r\n    ) public view returns (string memory) {\r\n        require(\r\n            accounts[msg.sender].userAddress == msg.sender,\r\n            \"User doesn't exist\"\r\n        );\r\n        require(abi.encodePacked(allLikes[_postCID]).length > 0, \"No Likes\");\r\n        return allLikes[_postCID];\r\n    }\r\n\r\n    // report section\r\n    function addReports(\r\n        string memory _postCID,\r\n        string memory _reportCID\r\n    ) public {\r\n        require(\r\n            accounts[msg.sender].userAddress == msg.sender,\r\n            \"User doesn't exist\"\r\n        );\r\n        allReports[_postCID] = _reportCID;\r\n    }\r\n\r\n    function getReports(\r\n        string memory _postCID\r\n    ) public view returns (string memory) {\r\n        require(\r\n            accounts[msg.sender].userAddress == msg.sender,\r\n            \"User doesn't exist\"\r\n        );\r\n        return allReports[_postCID];\r\n    }\r\n\r\n    //////////////////////////////////////////////////////////////////////////////////////////////////////////////////////\r\n    //  Follow user functions                                                                                           //\r\n    //////////////////////////////////////////////////////////////////////////////////////////////////////////////////////\r\n\r\n    function followUser(address _currentUser, address _userToFollow) public {\r\n        require(_currentUser != _userToFollow, \"Cannot follow yourself\");\r\n\r\n        // Ensure both users exist\r\n        require(\r\n            accounts[_currentUser].userAddress != address(0),\r\n            \"Current user does not exist\"\r\n        );\r\n        require(\r\n            accounts[_userToFollow].userAddress != address(0),\r\n            \"User to follow does not exist\"\r\n        );\r\n\r\n        // Check if the current user is already following the user to follow\r\n        require(\r\n            !isFollowing(_currentUser, _userToFollow),\r\n            \"Already following this user\"\r\n        );\r\n\r\n        // Add the user to follow to the following list of the current user\r\n        accounts[_currentUser].following.push(_userToFollow);\r\n        accounts[_currentUser].followingCount++;\r\n\r\n        // Add the current user to the followers list of the user to follow\r\n        accounts[_userToFollow].followers.push(_currentUser);\r\n        accounts[_userToFollow].followersCount++;\r\n    }\r\n\r\n    // Function to check if a user is already following another user\r\n    function isFollowing(\r\n        address _currentUser,\r\n        address _userToFollow\r\n    ) internal view returns (bool) {\r\n        address[] storage following = accounts[_currentUser].following;\r\n        for (uint i = 0; i < following.length; i++) {\r\n            if (following[i] == _userToFollow) {\r\n                return true;\r\n            }\r\n        }\r\n        return false;\r\n    }\r\n\r\n    function getFollowedUsers() public view returns (address[] memory) {\r\n        return accounts[msg.sender].following;\r\n    }\r\n\r\n    function getFollowersCount(address userAddress) public view returns (uint) {\r\n        return accounts[userAddress].followersCount;\r\n    }\r\n\r\n    //////////////////////////////////////////////////////////////////////////////////////////////////////////////////////\r\n    //  Follow user functions                                                                                           //\r\n    //////////////////////////////////////////////////////////////////////////////////////////////////////////////////////\r\n\r\n    mapping(address => mapping(address => string)) allchats;\r\n\r\n    function sendMessage(\r\n        address sender,\r\n        address receiver,\r\n        string memory chatCID\r\n    ) public {\r\n        require(\r\n            accounts[receiver].userAddress == receiver,\r\n            \"User doesn't exist\"\r\n        );\r\n\r\n        allchats[sender][receiver] = chatCID;\r\n        allchats[receiver][sender] = chatCID;\r\n    }\r\n\r\n    function getMessage(\r\n        address sender,\r\n        address receiver\r\n    ) public view returns (string memory) {\r\n        require(\r\n            accounts[msg.sender].userAddress == msg.sender,\r\n            \"User doesn't exist\"\r\n        );\r\n\r\n        return allchats[sender][receiver];\r\n    }\r\n}\r\n",
  "sourcePath": "C:\\Users\\abhis\\OneDrive\\Documents\\Main Project\\MP\\DPOSN\\truffle\\contracts\\SocialNetwork.sol",
  "compiler": {
    "name": "solc",
    "version": "0.8.18+commit.87f61d96.Emscripten.clang"
  },
  "schemaVersion": "3.4.16",
  "updatedAt": "2024-03-31T11:02:29.246Z",
  "networkType": "ethereum",
  "devdoc": {
    "kind": "dev",
    "methods": {},
    "version": 1
  },
  "userdoc": {
    "kind": "user",
    "methods": {},
    "version": 1
  }
}