{
  "contractName": "UserAuthentication",
  "abi": [
    {
      "inputs": [
        {
          "internalType": "address",
          "name": "_userAddress",
          "type": "address"
        },
        {
          "internalType": "string",
          "name": "_email",
          "type": "string"
        },
        {
          "internalType": "string",
          "name": "_password",
          "type": "string"
        },
        {
          "internalType": "string",
          "name": "_firstName",
          "type": "string"
        },
        {
          "internalType": "string",
          "name": "_lastName",
          "type": "string"
        },
        {
          "internalType": "string",
          "name": "_dateOfBirth",
          "type": "string"
        },
        {
          "internalType": "string",
          "name": "_gender",
          "type": "string"
        }
      ],
      "name": "registerUser",
      "outputs": [],
      "stateMutability": "nonpayable",
      "type": "function"
    },
    {
      "inputs": [
        {
          "internalType": "address",
          "name": "_userAddress",
          "type": "address"
        },
        {
          "internalType": "string",
          "name": "_email",
          "type": "string"
        },
        {
          "internalType": "string",
          "name": "_password",
          "type": "string"
        }
      ],
      "name": "loginUser",
      "outputs": [
        {
          "internalType": "string",
          "name": "_firstName",
          "type": "string"
        },
        {
          "internalType": "string",
          "name": "_lastName",
          "type": "string"
        },
        {
          "internalType": "string",
          "name": "_dateOfBirth",
          "type": "string"
        },
        {
          "internalType": "string",
          "name": "_gender",
          "type": "string"
        }
      ],
      "stateMutability": "view",
      "type": "function",
      "constant": true
    }
  ],
  "bytecode": "0x608060405234801561001057600080fd5b5061111d806100206000396000f3fe608060405234801561001057600080fd5b50600436106100365760003560e01c806306f22b041461003b5780639e515fb51461006e575b600080fd5b61005560048036038101906100509190610a5d565b61008a565b6040516100659493929190610b67565b60405180910390f35b61008860048036038101906100839190610bc8565b6105a9565b005b60608060608060003373ffffffffffffffffffffffffffffffffffffffff166000808a73ffffffffffffffffffffffffffffffffffffffff1673ffffffffffffffffffffffffffffffffffffffff16815260200190815260200160002060000160009054906101000a900473ffffffffffffffffffffffffffffffffffffffff1673ffffffffffffffffffffffffffffffffffffffff161480156101b957508660405160200161013a9190610d4e565b604051602081830303815290604052805190602001206000808a73ffffffffffffffffffffffffffffffffffffffff1673ffffffffffffffffffffffffffffffffffffffff1681526020019081526020016000206001016040516020016101a19190610e5d565b60405160208183030381529060405280519060200120145b80156102505750856040516020016101d19190610d4e565b604051602081830303815290604052805190602001206000808a73ffffffffffffffffffffffffffffffffffffffff1673ffffffffffffffffffffffffffffffffffffffff1681526020019081526020016000206002016040516020016102389190610e5d565b60405160208183030381529060405280519060200120145b9050600115158115151461026357600080fd5b6000808973ffffffffffffffffffffffffffffffffffffffff1673ffffffffffffffffffffffffffffffffffffffff1681526020019081526020016000206003016000808a73ffffffffffffffffffffffffffffffffffffffff1673ffffffffffffffffffffffffffffffffffffffff1681526020019081526020016000206004016000808b73ffffffffffffffffffffffffffffffffffffffff1673ffffffffffffffffffffffffffffffffffffffff1681526020019081526020016000206005016000808c73ffffffffffffffffffffffffffffffffffffffff1673ffffffffffffffffffffffffffffffffffffffff16815260200190815260200160002060060183805461037390610d94565b80601f016020809104026020016040519081016040528092919081815260200182805461039f90610d94565b80156103ec5780601f106103c1576101008083540402835291602001916103ec565b820191906000526020600020905b8154815290600101906020018083116103cf57829003601f168201915b505050505093508280546103ff90610d94565b80601f016020809104026020016040519081016040528092919081815260200182805461042b90610d94565b80156104785780601f1061044d57610100808354040283529160200191610478565b820191906000526020600020905b81548152906001019060200180831161045b57829003601f168201915b5050505050925081805461048b90610d94565b80601f01602080910402602001604051908101604052809291908181526020018280546104b790610d94565b80156105045780601f106104d957610100808354040283529160200191610504565b820191906000526020600020905b8154815290600101906020018083116104e757829003601f168201915b5050505050915080805461051790610d94565b80601f016020809104026020016040519081016040528092919081815260200182805461054390610d94565b80156105905780601f1061056557610100808354040283529160200191610590565b820191906000526020600020905b81548152906001019060200180831161057357829003601f168201915b5050505050905094509450945094505093509350935093565b3373ffffffffffffffffffffffffffffffffffffffff166000808973ffffffffffffffffffffffffffffffffffffffff1673ffffffffffffffffffffffffffffffffffffffff16815260200190815260200160002060000160009054906101000a900473ffffffffffffffffffffffffffffffffffffffff1673ffffffffffffffffffffffffffffffffffffffff160361064257600080fd5b866000808973ffffffffffffffffffffffffffffffffffffffff1673ffffffffffffffffffffffffffffffffffffffff16815260200190815260200160002060000160006101000a81548173ffffffffffffffffffffffffffffffffffffffff021916908373ffffffffffffffffffffffffffffffffffffffff160217905550856000808973ffffffffffffffffffffffffffffffffffffffff1673ffffffffffffffffffffffffffffffffffffffff16815260200190815260200160002060010190816107109190611015565b50846000808973ffffffffffffffffffffffffffffffffffffffff1673ffffffffffffffffffffffffffffffffffffffff168152602001908152602001600020600201908161075f9190611015565b50836000808973ffffffffffffffffffffffffffffffffffffffff1673ffffffffffffffffffffffffffffffffffffffff16815260200190815260200160002060030190816107ae9190611015565b50826000808973ffffffffffffffffffffffffffffffffffffffff1673ffffffffffffffffffffffffffffffffffffffff16815260200190815260200160002060040190816107fd9190611015565b50816000808973ffffffffffffffffffffffffffffffffffffffff1673ffffffffffffffffffffffffffffffffffffffff168152602001908152602001600020600501908161084c9190611015565b50806000808973ffffffffffffffffffffffffffffffffffffffff1673ffffffffffffffffffffffffffffffffffffffff168152602001908152602001600020600601908161089b9190611015565b5050505050505050565b6000604051905090565b600080fd5b600080fd5b600073ffffffffffffffffffffffffffffffffffffffff82169050919050565b60006108e4826108b9565b9050919050565b6108f4816108d9565b81146108ff57600080fd5b50565b600081359050610911816108eb565b92915050565b600080fd5b600080fd5b6000601f19601f8301169050919050565b7f4e487b7100000000000000000000000000000000000000000000000000000000600052604160045260246000fd5b61096a82610921565b810181811067ffffffffffffffff8211171561098957610988610932565b5b80604052505050565b600061099c6108a5565b90506109a88282610961565b919050565b600067ffffffffffffffff8211156109c8576109c7610932565b5b6109d182610921565b9050602081019050919050565b82818337600083830152505050565b6000610a006109fb846109ad565b610992565b905082815260208101848484011115610a1c57610a1b61091c565b5b610a278482856109de565b509392505050565b600082601f830112610a4457610a43610917565b5b8135610a548482602086016109ed565b91505092915050565b600080600060608486031215610a7657610a756108af565b5b6000610a8486828701610902565b935050602084013567ffffffffffffffff811115610aa557610aa46108b4565b5b610ab186828701610a2f565b925050604084013567ffffffffffffffff811115610ad257610ad16108b4565b5b610ade86828701610a2f565b9150509250925092565b600081519050919050565b600082825260208201905092915050565b60005b83811015610b22578082015181840152602081019050610b07565b60008484015250505050565b6000610b3982610ae8565b610b438185610af3565b9350610b53818560208601610b04565b610b5c81610921565b840191505092915050565b60006080820190508181036000830152610b818187610b2e565b90508181036020830152610b958186610b2e565b90508181036040830152610ba98185610b2e565b90508181036060830152610bbd8184610b2e565b905095945050505050565b600080600080600080600060e0888a031215610be757610be66108af565b5b6000610bf58a828b01610902565b975050602088013567ffffffffffffffff811115610c1657610c156108b4565b5b610c228a828b01610a2f565b965050604088013567ffffffffffffffff811115610c4357610c426108b4565b5b610c4f8a828b01610a2f565b955050606088013567ffffffffffffffff811115610c7057610c6f6108b4565b5b610c7c8a828b01610a2f565b945050608088013567ffffffffffffffff811115610c9d57610c9c6108b4565b5b610ca98a828b01610a2f565b93505060a088013567ffffffffffffffff811115610cca57610cc96108b4565b5b610cd68a828b01610a2f565b92505060c088013567ffffffffffffffff811115610cf757610cf66108b4565b5b610d038a828b01610a2f565b91505092959891949750929550565b600081905092915050565b6000610d2882610ae8565b610d328185610d12565b9350610d42818560208601610b04565b80840191505092915050565b6000610d5a8284610d1d565b915081905092915050565b7f4e487b7100000000000000000000000000000000000000000000000000000000600052602260045260246000fd5b60006002820490506001821680610dac57607f821691505b602082108103610dbf57610dbe610d65565b5b50919050565b60008190508160005260206000209050919050565b60008154610de781610d94565b610df18186610d12565b94506001821660008114610e0c5760018114610e2157610e54565b60ff1983168652811515820286019350610e54565b610e2a85610dc5565b60005b83811015610e4c57815481890152600182019150602081019050610e2d565b838801955050505b50505092915050565b6000610e698284610dda565b915081905092915050565b60006020601f8301049050919050565b600082821b905092915050565b600060088302610ec17fffffffffffffffffffffffffffffffffffffffffffffffffffffffffffffffff82610e84565b610ecb8683610e84565b95508019841693508086168417925050509392505050565b6000819050919050565b6000819050919050565b6000610f12610f0d610f0884610ee3565b610eed565b610ee3565b9050919050565b6000819050919050565b610f2c83610ef7565b610f40610f3882610f19565b848454610e91565b825550505050565b600090565b610f55610f48565b610f60818484610f23565b505050565b5b81811015610f8457610f79600082610f4d565b600181019050610f66565b5050565b601f821115610fc957610f9a81610dc5565b610fa384610e74565b81016020851015610fb2578190505b610fc6610fbe85610e74565b830182610f65565b50505b505050565b600082821c905092915050565b6000610fec60001984600802610fce565b1980831691505092915050565b60006110058383610fdb565b9150826002028217905092915050565b61101e82610ae8565b67ffffffffffffffff81111561103757611036610932565b5b6110418254610d94565b61104c828285610f88565b600060209050601f83116001811461107f576000841561106d578287015190505b6110778582610ff9565b8655506110df565b601f19841661108d86610dc5565b60005b828110156110b557848901518255600182019150602085019450602081019050611090565b868310156110d257848901516110ce601f891682610fdb565b8355505b6001600288020188555050505b50505050505056fea2646970667358221220a519ae88c64969d3242469260b06c85aba7cb3af4b3195d844a5726b592924dd64736f6c63430008120033",
  "immutableReferences": {},
  "source": "// SPDX-License-Identifier: MIT\npragma solidity >=0.4.22 <0.9.0;\n\ncontract UserAuthentication {\n    struct userData {\n        address userAddress;\n        string email;\n        string password;\n        string firstName;\n        string lastName;\n        string dateOfBirth;\n        string gender;\n    }\n\n    mapping(address => userData) accounts;\n\n    function registerUser(\n        address _userAddress,\n        string memory _email,\n        string memory _password,\n        string memory _firstName,\n        string memory _lastName,\n        string memory _dateOfBirth,\n        string memory _gender\n    ) public {\n        require(accounts[_userAddress].userAddress != msg.sender);\n        accounts[_userAddress].userAddress = _userAddress;\n        accounts[_userAddress].email = _email;\n        accounts[_userAddress].password = _password;\n        accounts[_userAddress].firstName = _firstName;\n        accounts[_userAddress].lastName = _lastName;\n        accounts[_userAddress].dateOfBirth = _dateOfBirth;\n        accounts[_userAddress].gender = _gender;\n    }\n\n    function loginUser(\n        address _userAddress,\n        string memory _email,\n        string memory _password\n    )\n        public\n        view\n        returns (\n            string memory _firstName,\n            string memory _lastName,\n            string memory _dateOfBirth,\n            string memory _gender\n        )\n    {\n        bool isUserRegistered = ((accounts[_userAddress].userAddress ==\n            msg.sender) &&\n            (keccak256(abi.encodePacked(accounts[_userAddress].email)) ==\n                keccak256(abi.encodePacked(_email))) &&\n            (keccak256(abi.encodePacked(accounts[_userAddress].password)) ==\n                keccak256(abi.encodePacked(_password))));\n        require(isUserRegistered == true);\n        return (\n            accounts[_userAddress].firstName,\n            accounts[_userAddress].lastName,\n            accounts[_userAddress].dateOfBirth,\n            accounts[_userAddress].gender\n        );\n    }\n}\n",
  "sourcePath": "/home/cy34/Projects/DPOSN/truffle/contracts/UserAuthentication.sol",
  "compiler": {
    "name": "solc",
    "version": "0.8.18+commit.87f61d96.Emscripten.clang"
  },
  "schemaVersion": "3.4.16",
  "updatedAt": "2024-02-01T07:24:18.114Z",
  "networkType": "ethereum",
  "devdoc": {
    "kind": "dev",
    "methods": {},
    "version": 1
  },
  "userdoc": {
    "kind": "user",
    "methods": {},
    "version": 1
  }
}