{
  "contractName": "UserAuthentication",
  "abi": [
    {
      "inputs": [
        {
          "internalType": "address",
          "name": "_userAddress",
          "type": "address"
        },
        {
          "internalType": "string",
          "name": "_imageCID",
          "type": "string"
        },
        {
          "internalType": "bytes32",
          "name": "_userName",
          "type": "bytes32"
        },
        {
          "internalType": "bytes32",
          "name": "_firstName",
          "type": "bytes32"
        },
        {
          "internalType": "bytes32",
          "name": "_lastName",
          "type": "bytes32"
        },
        {
          "internalType": "bytes32",
          "name": "_dateOfBirth",
          "type": "bytes32"
        },
        {
          "internalType": "bytes32",
          "name": "_status",
          "type": "bytes32"
        }
      ],
      "name": "registerUser",
      "outputs": [],
      "stateMutability": "nonpayable",
      "type": "function"
    },
    {
      "inputs": [],
      "name": "getUser",
      "outputs": [
        {
          "components": [
            {
              "internalType": "address",
              "name": "userAddress",
              "type": "address"
            },
            {
              "internalType": "string",
              "name": "imageCID",
              "type": "string"
            },
            {
              "internalType": "bytes32",
              "name": "userName",
              "type": "bytes32"
            },
            {
              "internalType": "bytes32",
              "name": "firstName",
              "type": "bytes32"
            },
            {
              "internalType": "bytes32",
              "name": "lastName",
              "type": "bytes32"
            },
            {
              "internalType": "bytes32",
              "name": "dateOfBirth",
              "type": "bytes32"
            },
            {
              "internalType": "bytes32",
              "name": "status",
              "type": "bytes32"
            }
          ],
          "internalType": "struct UserAuthentication.userData",
          "name": "",
          "type": "tuple"
        }
      ],
      "stateMutability": "view",
      "type": "function",
      "constant": true
    },
    {
      "inputs": [],
      "name": "loginUser",
      "outputs": [
        {
          "components": [
            {
              "internalType": "address",
              "name": "userAddress",
              "type": "address"
            },
            {
              "internalType": "string",
              "name": "imageCID",
              "type": "string"
            },
            {
              "internalType": "bytes32",
              "name": "userName",
              "type": "bytes32"
            },
            {
              "internalType": "bytes32",
              "name": "firstName",
              "type": "bytes32"
            },
            {
              "internalType": "bytes32",
              "name": "lastName",
              "type": "bytes32"
            },
            {
              "internalType": "bytes32",
              "name": "dateOfBirth",
              "type": "bytes32"
            },
            {
              "internalType": "bytes32",
              "name": "status",
              "type": "bytes32"
            }
          ],
          "internalType": "struct UserAuthentication.userData",
          "name": "",
          "type": "tuple"
        }
      ],
      "stateMutability": "view",
      "type": "function",
      "constant": true
    }
  ],
  "bytecode": "0x608060405234801561001057600080fd5b50610eaf806100206000396000f3fe608060405234801561001057600080fd5b50600436106100415760003560e01c80636923a07e14610046578063832880e714610062578063a19ed68614610080575b600080fd5b610060600480360381019061005b919061088f565b61009e565b005b61006a61028f565b6040516100779190610a86565b60405180910390f35b6100886103ff565b6040516100959190610a86565b60405180910390f35b3373ffffffffffffffffffffffffffffffffffffffff166000808973ffffffffffffffffffffffffffffffffffffffff1673ffffffffffffffffffffffffffffffffffffffff16815260200190815260200160002060000160009054906101000a900473ffffffffffffffffffffffffffffffffffffffff1673ffffffffffffffffffffffffffffffffffffffff160361016d576040517f08c379a000000000000000000000000000000000000000000000000000000000815260040161016490610b05565b60405180910390fd5b6040518060e001604052803373ffffffffffffffffffffffffffffffffffffffff168152602001878152602001868152602001858152602001848152602001838152602001828152506000803373ffffffffffffffffffffffffffffffffffffffff1673ffffffffffffffffffffffffffffffffffffffff16815260200190815260200160002060008201518160000160006101000a81548173ffffffffffffffffffffffffffffffffffffffff021916908373ffffffffffffffffffffffffffffffffffffffff16021790555060208201518160010190816102509190610d3b565b5060408201518160020155606082015181600301556080820151816004015560a0820151816005015560c0820151816006015590505050505050505050565b61029761063f565b6000803373ffffffffffffffffffffffffffffffffffffffff1673ffffffffffffffffffffffffffffffffffffffff1681526020019081526020016000206040518060e00160405290816000820160009054906101000a900473ffffffffffffffffffffffffffffffffffffffff1673ffffffffffffffffffffffffffffffffffffffff1673ffffffffffffffffffffffffffffffffffffffff16815260200160018201805461034690610b54565b80601f016020809104026020016040519081016040528092919081815260200182805461037290610b54565b80156103bf5780601f10610394576101008083540402835291602001916103bf565b820191906000526020600020905b8154815290600101906020018083116103a257829003601f168201915b5050505050815260200160028201548152602001600382015481526020016004820154815260200160058201548152602001600682015481525050905090565b61040761063f565b600073ffffffffffffffffffffffffffffffffffffffff166000803373ffffffffffffffffffffffffffffffffffffffff1673ffffffffffffffffffffffffffffffffffffffff16815260200190815260200160002060000160009054906101000a900473ffffffffffffffffffffffffffffffffffffffff1673ffffffffffffffffffffffffffffffffffffffff16036104d7576040517f08c379a00000000000000000000000000000000000000000000000000000000081526004016104ce90610e59565b60405180910390fd5b6000803373ffffffffffffffffffffffffffffffffffffffff1673ffffffffffffffffffffffffffffffffffffffff1681526020019081526020016000206040518060e00160405290816000820160009054906101000a900473ffffffffffffffffffffffffffffffffffffffff1673ffffffffffffffffffffffffffffffffffffffff1673ffffffffffffffffffffffffffffffffffffffff16815260200160018201805461058690610b54565b80601f01602080910402602001604051908101604052809291908181526020018280546105b290610b54565b80156105ff5780601f106105d4576101008083540402835291602001916105ff565b820191906000526020600020905b8154815290600101906020018083116105e257829003601f168201915b5050505050815260200160028201548152602001600382015481526020016004820154815260200160058201548152602001600682015481525050905090565b6040518060e00160405280600073ffffffffffffffffffffffffffffffffffffffff1681526020016060815260200160008019168152602001600080191681526020016000801916815260200160008019168152602001600080191681525090565b6000604051905090565b600080fd5b600080fd5b600073ffffffffffffffffffffffffffffffffffffffff82169050919050565b60006106e0826106b5565b9050919050565b6106f0816106d5565b81146106fb57600080fd5b50565b60008135905061070d816106e7565b92915050565b600080fd5b600080fd5b6000601f19601f8301169050919050565b7f4e487b7100000000000000000000000000000000000000000000000000000000600052604160045260246000fd5b6107668261071d565b810181811067ffffffffffffffff821117156107855761078461072e565b5b80604052505050565b60006107986106a1565b90506107a4828261075d565b919050565b600067ffffffffffffffff8211156107c4576107c361072e565b5b6107cd8261071d565b9050602081019050919050565b82818337600083830152505050565b60006107fc6107f7846107a9565b61078e565b90508281526020810184848401111561081857610817610718565b5b6108238482856107da565b509392505050565b600082601f8301126108405761083f610713565b5b81356108508482602086016107e9565b91505092915050565b6000819050919050565b61086c81610859565b811461087757600080fd5b50565b60008135905061088981610863565b92915050565b600080600080600080600060e0888a0312156108ae576108ad6106ab565b5b60006108bc8a828b016106fe565b975050602088013567ffffffffffffffff8111156108dd576108dc6106b0565b5b6108e98a828b0161082b565b96505060406108fa8a828b0161087a565b955050606061090b8a828b0161087a565b945050608061091c8a828b0161087a565b93505060a061092d8a828b0161087a565b92505060c061093e8a828b0161087a565b91505092959891949750929550565b610956816106d5565b82525050565b600081519050919050565b600082825260208201905092915050565b60005b8381101561099657808201518184015260208101905061097b565b60008484015250505050565b60006109ad8261095c565b6109b78185610967565b93506109c7818560208601610978565b6109d08161071d565b840191505092915050565b6109e481610859565b82525050565b600060e083016000830151610a02600086018261094d565b5060208301518482036020860152610a1a82826109a2565b9150506040830151610a2f60408601826109db565b506060830151610a4260608601826109db565b506080830151610a5560808601826109db565b5060a0830151610a6860a08601826109db565b5060c0830151610a7b60c08601826109db565b508091505092915050565b60006020820190508181036000830152610aa081846109ea565b905092915050565b600082825260208201905092915050565b7f5573657220616c72656164792072656769737465726564000000000000000000600082015250565b6000610aef601783610aa8565b9150610afa82610ab9565b602082019050919050565b60006020820190508181036000830152610b1e81610ae2565b9050919050565b7f4e487b7100000000000000000000000000000000000000000000000000000000600052602260045260246000fd5b60006002820490506001821680610b6c57607f821691505b602082108103610b7f57610b7e610b25565b5b50919050565b60008190508160005260206000209050919050565b60006020601f8301049050919050565b600082821b905092915050565b600060088302610be77fffffffffffffffffffffffffffffffffffffffffffffffffffffffffffffffff82610baa565b610bf18683610baa565b95508019841693508086168417925050509392505050565b6000819050919050565b6000819050919050565b6000610c38610c33610c2e84610c09565b610c13565b610c09565b9050919050565b6000819050919050565b610c5283610c1d565b610c66610c5e82610c3f565b848454610bb7565b825550505050565b600090565b610c7b610c6e565b610c86818484610c49565b505050565b5b81811015610caa57610c9f600082610c73565b600181019050610c8c565b5050565b601f821115610cef57610cc081610b85565b610cc984610b9a565b81016020851015610cd8578190505b610cec610ce485610b9a565b830182610c8b565b50505b505050565b600082821c905092915050565b6000610d1260001984600802610cf4565b1980831691505092915050565b6000610d2b8383610d01565b9150826002028217905092915050565b610d448261095c565b67ffffffffffffffff811115610d5d57610d5c61072e565b5b610d678254610b54565b610d72828285610cae565b600060209050601f831160018114610da55760008415610d93578287015190505b610d9d8582610d1f565b865550610e05565b601f198416610db386610b85565b60005b82811015610ddb57848901518255600182019150602085019450602081019050610db6565b86831015610df85784890151610df4601f891682610d01565b8355505b6001600288020188555050505b505050505050565b7f7573657220646f65736e27742065786973740000000000000000000000000000600082015250565b6000610e43601283610aa8565b9150610e4e82610e0d565b602082019050919050565b60006020820190508181036000830152610e7281610e36565b905091905056fea2646970667358221220fcaf81716b7d8090309a2910434af0fc2914222e53c766a307e262fedc848e8364736f6c63430008120033",
  "immutableReferences": {},
  "source": "// SPDX-License-Identifier: MIT\npragma solidity >=0.4.22 <0.9.0;\n\ncontract UserAuthentication {\n    struct userData {\n        address userAddress;\n        string imageCID;\n        bytes32 userName;\n        bytes32 firstName;\n        bytes32 lastName;\n        bytes32 dateOfBirth;\n        bytes32 status;\n    }\n\n    mapping(address => userData) accounts;\n\n    function registerUser(\n        address _userAddress,\n        string memory _imageCID,\n        bytes32 _userName,\n        bytes32 _firstName,\n        bytes32 _lastName,\n        bytes32 _dateOfBirth,\n        bytes32 _status\n    ) public {\n        require(\n            accounts[_userAddress].userAddress != msg.sender,\n            \"User already registered\"\n        );\n        accounts[msg.sender] = userData({\n            userAddress: msg.sender,\n            imageCID: _imageCID,\n            userName: _userName,\n            firstName: _firstName,\n            lastName: _lastName,\n            dateOfBirth: _dateOfBirth,\n            status: _status\n        });\n    }\n\n    function getUser() public view returns (userData memory) {\n        return accounts[msg.sender];\n    }\n\n    function loginUser() public view returns (userData memory) {\n        require(\n            accounts[msg.sender].userAddress != address(0),\n            \"user doesn't exist\"\n        );\n        return accounts[msg.sender];\n    }\n}\n",
  "sourcePath": "/home/cy34/Projects/DPOSN/truffle/contracts/UserAuthentication.sol",
  "compiler": {
    "name": "solc",
    "version": "0.8.18+commit.87f61d96.Emscripten.clang"
  },
  "schemaVersion": "3.4.16",
  "updatedAt": "2024-02-17T14:42:35.355Z",
  "networkType": "ethereum",
  "devdoc": {
    "kind": "dev",
    "methods": {},
    "version": 1
  },
  "userdoc": {
    "kind": "user",
    "methods": {},
    "version": 1
  }
}