{
  "contractName": "UserAuthentication",
  "abi": [
    {
      "inputs": [
        {
          "internalType": "address",
          "name": "_userAddress",
          "type": "address"
        },
        {
          "internalType": "string",
          "name": "_email",
          "type": "string"
        },
        {
          "internalType": "string",
          "name": "_password",
          "type": "string"
        },
        {
          "internalType": "string",
          "name": "_firstName",
          "type": "string"
        },
        {
          "internalType": "string",
          "name": "_lastName",
          "type": "string"
        },
        {
          "internalType": "string",
          "name": "_dateOfBirth",
          "type": "string"
        },
        {
          "internalType": "string",
          "name": "_gender",
          "type": "string"
        }
      ],
      "name": "registerUser",
      "outputs": [],
      "stateMutability": "nonpayable",
      "type": "function"
    },
    {
      "inputs": [
        {
          "internalType": "address",
          "name": "userAddress",
          "type": "address"
        }
      ],
      "name": "getUser",
      "outputs": [
        {
          "components": [
            {
              "internalType": "address",
              "name": "userAddress",
              "type": "address"
            },
            {
              "internalType": "string",
              "name": "email",
              "type": "string"
            },
            {
              "internalType": "string",
              "name": "password",
              "type": "string"
            },
            {
              "internalType": "string",
              "name": "firstName",
              "type": "string"
            },
            {
              "internalType": "string",
              "name": "lastName",
              "type": "string"
            },
            {
              "internalType": "string",
              "name": "dateOfBirth",
              "type": "string"
            },
            {
              "internalType": "string",
              "name": "gender",
              "type": "string"
            }
          ],
          "internalType": "struct UserAuthentication.userData",
          "name": "",
          "type": "tuple"
        }
      ],
      "stateMutability": "view",
      "type": "function",
      "constant": true
    },
    {
      "inputs": [
        {
          "internalType": "address",
          "name": "_userAddress",
          "type": "address"
        },
        {
          "internalType": "string",
          "name": "_email",
          "type": "string"
        },
        {
          "internalType": "string",
          "name": "_password",
          "type": "string"
        }
      ],
      "name": "loginUser",
      "outputs": [
        {
          "internalType": "string",
          "name": "_firstName",
          "type": "string"
        },
        {
          "internalType": "string",
          "name": "_lastName",
          "type": "string"
        },
        {
          "internalType": "string",
          "name": "_dateOfBirth",
          "type": "string"
        },
        {
          "internalType": "string",
          "name": "_gender",
          "type": "string"
        }
      ],
      "stateMutability": "view",
      "type": "function",
      "constant": true
    }
  ],
  "bytecode": "0x608060405234801561001057600080fd5b5061172c806100206000396000f3fe608060405234801561001057600080fd5b50600436106100415760003560e01c806306f22b04146100465780636f77926b146100795780639e515fb5146100a9575b600080fd5b610060600480360381019061005b9190610f05565b6100c5565b604051610070949392919061100f565b60405180910390f35b610093600480360381019061008e9190611070565b6105e4565b6040516100a091906111b5565b60405180910390f35b6100c360048036038101906100be91906111d7565b6109fe565b005b60608060608060003373ffffffffffffffffffffffffffffffffffffffff166000808a73ffffffffffffffffffffffffffffffffffffffff1673ffffffffffffffffffffffffffffffffffffffff16815260200190815260200160002060000160009054906101000a900473ffffffffffffffffffffffffffffffffffffffff1673ffffffffffffffffffffffffffffffffffffffff161480156101f4575086604051602001610175919061135d565b604051602081830303815290604052805190602001206000808a73ffffffffffffffffffffffffffffffffffffffff1673ffffffffffffffffffffffffffffffffffffffff1681526020019081526020016000206001016040516020016101dc919061146c565b60405160208183030381529060405280519060200120145b801561028b57508560405160200161020c919061135d565b604051602081830303815290604052805190602001206000808a73ffffffffffffffffffffffffffffffffffffffff1673ffffffffffffffffffffffffffffffffffffffff168152602001908152602001600020600201604051602001610273919061146c565b60405160208183030381529060405280519060200120145b9050600115158115151461029e57600080fd5b6000808973ffffffffffffffffffffffffffffffffffffffff1673ffffffffffffffffffffffffffffffffffffffff1681526020019081526020016000206003016000808a73ffffffffffffffffffffffffffffffffffffffff1673ffffffffffffffffffffffffffffffffffffffff1681526020019081526020016000206004016000808b73ffffffffffffffffffffffffffffffffffffffff1673ffffffffffffffffffffffffffffffffffffffff1681526020019081526020016000206005016000808c73ffffffffffffffffffffffffffffffffffffffff1673ffffffffffffffffffffffffffffffffffffffff1681526020019081526020016000206006018380546103ae906113a3565b80601f01602080910402602001604051908101604052809291908181526020018280546103da906113a3565b80156104275780601f106103fc57610100808354040283529160200191610427565b820191906000526020600020905b81548152906001019060200180831161040a57829003601f168201915b5050505050935082805461043a906113a3565b80601f0160208091040260200160405190810160405280929190818152602001828054610466906113a3565b80156104b35780601f10610488576101008083540402835291602001916104b3565b820191906000526020600020905b81548152906001019060200180831161049657829003601f168201915b505050505092508180546104c6906113a3565b80601f01602080910402602001604051908101604052809291908181526020018280546104f2906113a3565b801561053f5780601f106105145761010080835404028352916020019161053f565b820191906000526020600020905b81548152906001019060200180831161052257829003601f168201915b50505050509150808054610552906113a3565b80601f016020809104026020016040519081016040528092919081815260200182805461057e906113a3565b80156105cb5780601f106105a0576101008083540402835291602001916105cb565b820191906000526020600020905b8154815290600101906020018083116105ae57829003601f168201915b5050505050905094509450945094505093509350935093565b6105ec610cfa565b6000808373ffffffffffffffffffffffffffffffffffffffff1673ffffffffffffffffffffffffffffffffffffffff1681526020019081526020016000206040518060e00160405290816000820160009054906101000a900473ffffffffffffffffffffffffffffffffffffffff1673ffffffffffffffffffffffffffffffffffffffff1673ffffffffffffffffffffffffffffffffffffffff16815260200160018201805461069b906113a3565b80601f01602080910402602001604051908101604052809291908181526020018280546106c7906113a3565b80156107145780601f106106e957610100808354040283529160200191610714565b820191906000526020600020905b8154815290600101906020018083116106f757829003601f168201915b5050505050815260200160028201805461072d906113a3565b80601f0160208091040260200160405190810160405280929190818152602001828054610759906113a3565b80156107a65780601f1061077b576101008083540402835291602001916107a6565b820191906000526020600020905b81548152906001019060200180831161078957829003601f168201915b505050505081526020016003820180546107bf906113a3565b80601f01602080910402602001604051908101604052809291908181526020018280546107eb906113a3565b80156108385780601f1061080d57610100808354040283529160200191610838565b820191906000526020600020905b81548152906001019060200180831161081b57829003601f168201915b50505050508152602001600482018054610851906113a3565b80601f016020809104026020016040519081016040528092919081815260200182805461087d906113a3565b80156108ca5780601f1061089f576101008083540402835291602001916108ca565b820191906000526020600020905b8154815290600101906020018083116108ad57829003601f168201915b505050505081526020016005820180546108e3906113a3565b80601f016020809104026020016040519081016040528092919081815260200182805461090f906113a3565b801561095c5780601f106109315761010080835404028352916020019161095c565b820191906000526020600020905b81548152906001019060200180831161093f57829003601f168201915b50505050508152602001600682018054610975906113a3565b80601f01602080910402602001604051908101604052809291908181526020018280546109a1906113a3565b80156109ee5780601f106109c3576101008083540402835291602001916109ee565b820191906000526020600020905b8154815290600101906020018083116109d157829003601f168201915b5050505050815250509050919050565b3373ffffffffffffffffffffffffffffffffffffffff166000808973ffffffffffffffffffffffffffffffffffffffff1673ffffffffffffffffffffffffffffffffffffffff16815260200190815260200160002060000160009054906101000a900473ffffffffffffffffffffffffffffffffffffffff1673ffffffffffffffffffffffffffffffffffffffff1603610a9757600080fd5b866000808973ffffffffffffffffffffffffffffffffffffffff1673ffffffffffffffffffffffffffffffffffffffff16815260200190815260200160002060000160006101000a81548173ffffffffffffffffffffffffffffffffffffffff021916908373ffffffffffffffffffffffffffffffffffffffff160217905550856000808973ffffffffffffffffffffffffffffffffffffffff1673ffffffffffffffffffffffffffffffffffffffff1681526020019081526020016000206001019081610b659190611624565b50846000808973ffffffffffffffffffffffffffffffffffffffff1673ffffffffffffffffffffffffffffffffffffffff1681526020019081526020016000206002019081610bb49190611624565b50836000808973ffffffffffffffffffffffffffffffffffffffff1673ffffffffffffffffffffffffffffffffffffffff1681526020019081526020016000206003019081610c039190611624565b50826000808973ffffffffffffffffffffffffffffffffffffffff1673ffffffffffffffffffffffffffffffffffffffff1681526020019081526020016000206004019081610c529190611624565b50816000808973ffffffffffffffffffffffffffffffffffffffff1673ffffffffffffffffffffffffffffffffffffffff1681526020019081526020016000206005019081610ca19190611624565b50806000808973ffffffffffffffffffffffffffffffffffffffff1673ffffffffffffffffffffffffffffffffffffffff1681526020019081526020016000206006019081610cf09190611624565b5050505050505050565b6040518060e00160405280600073ffffffffffffffffffffffffffffffffffffffff1681526020016060815260200160608152602001606081526020016060815260200160608152602001606081525090565b6000604051905090565b600080fd5b600080fd5b600073ffffffffffffffffffffffffffffffffffffffff82169050919050565b6000610d8c82610d61565b9050919050565b610d9c81610d81565b8114610da757600080fd5b50565b600081359050610db981610d93565b92915050565b600080fd5b600080fd5b6000601f19601f8301169050919050565b7f4e487b7100000000000000000000000000000000000000000000000000000000600052604160045260246000fd5b610e1282610dc9565b810181811067ffffffffffffffff82111715610e3157610e30610dda565b5b80604052505050565b6000610e44610d4d565b9050610e508282610e09565b919050565b600067ffffffffffffffff821115610e7057610e6f610dda565b5b610e7982610dc9565b9050602081019050919050565b82818337600083830152505050565b6000610ea8610ea384610e55565b610e3a565b905082815260208101848484011115610ec457610ec3610dc4565b5b610ecf848285610e86565b509392505050565b600082601f830112610eec57610eeb610dbf565b5b8135610efc848260208601610e95565b91505092915050565b600080600060608486031215610f1e57610f1d610d57565b5b6000610f2c86828701610daa565b935050602084013567ffffffffffffffff811115610f4d57610f4c610d5c565b5b610f5986828701610ed7565b925050604084013567ffffffffffffffff811115610f7a57610f79610d5c565b5b610f8686828701610ed7565b9150509250925092565b600081519050919050565b600082825260208201905092915050565b60005b83811015610fca578082015181840152602081019050610faf565b60008484015250505050565b6000610fe182610f90565b610feb8185610f9b565b9350610ffb818560208601610fac565b61100481610dc9565b840191505092915050565b600060808201905081810360008301526110298187610fd6565b9050818103602083015261103d8186610fd6565b905081810360408301526110518185610fd6565b905081810360608301526110658184610fd6565b905095945050505050565b60006020828403121561108657611085610d57565b5b600061109484828501610daa565b91505092915050565b6110a681610d81565b82525050565b600082825260208201905092915050565b60006110c882610f90565b6110d281856110ac565b93506110e2818560208601610fac565b6110eb81610dc9565b840191505092915050565b600060e08301600083015161110e600086018261109d565b506020830151848203602086015261112682826110bd565b9150506040830151848203604086015261114082826110bd565b9150506060830151848203606086015261115a82826110bd565b9150506080830151848203608086015261117482826110bd565b91505060a083015184820360a086015261118e82826110bd565b91505060c083015184820360c08601526111a882826110bd565b9150508091505092915050565b600060208201905081810360008301526111cf81846110f6565b905092915050565b600080600080600080600060e0888a0312156111f6576111f5610d57565b5b60006112048a828b01610daa565b975050602088013567ffffffffffffffff81111561122557611224610d5c565b5b6112318a828b01610ed7565b965050604088013567ffffffffffffffff81111561125257611251610d5c565b5b61125e8a828b01610ed7565b955050606088013567ffffffffffffffff81111561127f5761127e610d5c565b5b61128b8a828b01610ed7565b945050608088013567ffffffffffffffff8111156112ac576112ab610d5c565b5b6112b88a828b01610ed7565b93505060a088013567ffffffffffffffff8111156112d9576112d8610d5c565b5b6112e58a828b01610ed7565b92505060c088013567ffffffffffffffff81111561130657611305610d5c565b5b6113128a828b01610ed7565b91505092959891949750929550565b600081905092915050565b600061133782610f90565b6113418185611321565b9350611351818560208601610fac565b80840191505092915050565b6000611369828461132c565b915081905092915050565b7f4e487b7100000000000000000000000000000000000000000000000000000000600052602260045260246000fd5b600060028204905060018216806113bb57607f821691505b6020821081036113ce576113cd611374565b5b50919050565b60008190508160005260206000209050919050565b600081546113f6816113a3565b6114008186611321565b9450600182166000811461141b576001811461143057611463565b60ff1983168652811515820286019350611463565b611439856113d4565b60005b8381101561145b5781548189015260018201915060208101905061143c565b838801955050505b50505092915050565b600061147882846113e9565b915081905092915050565b60006020601f8301049050919050565b600082821b905092915050565b6000600883026114d07fffffffffffffffffffffffffffffffffffffffffffffffffffffffffffffffff82611493565b6114da8683611493565b95508019841693508086168417925050509392505050565b6000819050919050565b6000819050919050565b600061152161151c611517846114f2565b6114fc565b6114f2565b9050919050565b6000819050919050565b61153b83611506565b61154f61154782611528565b8484546114a0565b825550505050565b600090565b611564611557565b61156f818484611532565b505050565b5b818110156115935761158860008261155c565b600181019050611575565b5050565b601f8211156115d8576115a9816113d4565b6115b284611483565b810160208510156115c1578190505b6115d56115cd85611483565b830182611574565b50505b505050565b600082821c905092915050565b60006115fb600019846008026115dd565b1980831691505092915050565b600061161483836115ea565b9150826002028217905092915050565b61162d82610f90565b67ffffffffffffffff81111561164657611645610dda565b5b61165082546113a3565b61165b828285611597565b600060209050601f83116001811461168e576000841561167c578287015190505b6116868582611608565b8655506116ee565b601f19841661169c866113d4565b60005b828110156116c45784890151825560018201915060208501945060208101905061169f565b868310156116e157848901516116dd601f8916826115ea565b8355505b6001600288020188555050505b50505050505056fea2646970667358221220b82aadd7f1edb7ca893cd284cc7302e0c28f985181718348163a91a735b219af64736f6c63430008120033",
  "immutableReferences": {},
  "source": "// SPDX-License-Identifier: MIT\r\npragma solidity >=0.4.22 <0.9.0;\r\n\r\ncontract UserAuthentication {\r\n    struct userData {\r\n        address userAddress;\r\n        string email;\r\n        string password;\r\n        string firstName;\r\n        string lastName;\r\n        string dateOfBirth;\r\n        string gender;\r\n    }\r\n\r\n    mapping(address => userData) accounts;\r\n\r\n    function registerUser(\r\n        address _userAddress,\r\n        string memory _email,\r\n        string memory _password,\r\n        string memory _firstName,\r\n        string memory _lastName,\r\n        string memory _dateOfBirth,\r\n        string memory _gender\r\n    ) public {\r\n        require(accounts[_userAddress].userAddress != msg.sender);\r\n        accounts[_userAddress].userAddress = _userAddress;\r\n        accounts[_userAddress].email = _email;\r\n        accounts[_userAddress].password = _password;\r\n        accounts[_userAddress].firstName = _firstName;\r\n        accounts[_userAddress].lastName = _lastName;\r\n        accounts[_userAddress].dateOfBirth = _dateOfBirth;\r\n        accounts[_userAddress].gender = _gender;\r\n    }\r\n\r\n    function getUser(\r\n        address userAddress\r\n    ) public view returns (userData memory) {\r\n        return accounts[userAddress];\r\n    }\r\n\r\n    function loginUser(\r\n        address _userAddress,\r\n        string memory _email,\r\n        string memory _password\r\n    )\r\n        public\r\n        view\r\n        returns (\r\n            string memory _firstName,\r\n            string memory _lastName,\r\n            string memory _dateOfBirth,\r\n            string memory _gender\r\n        )\r\n    {\r\n        bool isUserRegistered = ((accounts[_userAddress].userAddress ==\r\n            msg.sender) &&\r\n            (keccak256(abi.encodePacked(accounts[_userAddress].email)) ==\r\n                keccak256(abi.encodePacked(_email))) &&\r\n            (keccak256(abi.encodePacked(accounts[_userAddress].password)) ==\r\n                keccak256(abi.encodePacked(_password))));\r\n        require(isUserRegistered == true);\r\n        return (\r\n            accounts[_userAddress].firstName,\r\n            accounts[_userAddress].lastName,\r\n            accounts[_userAddress].dateOfBirth,\r\n            accounts[_userAddress].gender\r\n        );\r\n    }\r\n}\r\n",
  "sourcePath": "C:\\Users\\abhis\\OneDrive\\Documents\\Main Project\\MP\\DPOSN\\truffle\\contracts\\UserAuthentication.sol",
  "compiler": {
    "name": "solc",
    "version": "0.8.18+commit.87f61d96.Emscripten.clang"
  },
  "schemaVersion": "3.4.16",
  "updatedAt": "2024-02-12T08:33:28.650Z",
  "networkType": "ethereum",
  "devdoc": {
    "kind": "dev",
    "methods": {},
    "version": 1
  },
  "userdoc": {
    "kind": "user",
    "methods": {},
    "version": 1
  }
}