{
  "contractName": "UserAuthentication",
  "abi": [
    {
      "inputs": [
        {
          "internalType": "address",
          "name": "_userAddress",
          "type": "address"
        },
        {
          "internalType": "bytes",
          "name": "_email",
          "type": "bytes"
        },
        {
          "internalType": "bytes32",
          "name": "_password",
          "type": "bytes32"
        },
        {
          "internalType": "bytes32",
          "name": "_firstName",
          "type": "bytes32"
        },
        {
          "internalType": "bytes32",
          "name": "_lastName",
          "type": "bytes32"
        },
        {
          "internalType": "bytes32",
          "name": "_dateOfBirth",
          "type": "bytes32"
        },
        {
          "internalType": "bytes32",
          "name": "_gender",
          "type": "bytes32"
        }
      ],
      "name": "registerUser",
      "outputs": [],
      "stateMutability": "nonpayable",
      "type": "function"
    },
    {
      "inputs": [],
      "name": "getUser",
      "outputs": [
        {
          "components": [
            {
              "internalType": "address",
              "name": "userAddress",
              "type": "address"
            },
            {
              "internalType": "bytes",
              "name": "email",
              "type": "bytes"
            },
            {
              "internalType": "bytes32",
              "name": "password",
              "type": "bytes32"
            },
            {
              "internalType": "bytes32",
              "name": "firstName",
              "type": "bytes32"
            },
            {
              "internalType": "bytes32",
              "name": "lastName",
              "type": "bytes32"
            },
            {
              "internalType": "bytes32",
              "name": "dateOfBirth",
              "type": "bytes32"
            },
            {
              "internalType": "bytes32",
              "name": "gender",
              "type": "bytes32"
            }
          ],
          "internalType": "struct UserAuthentication.userData",
          "name": "",
          "type": "tuple"
        }
      ],
      "stateMutability": "view",
      "type": "function",
      "constant": true
    },
    {
      "inputs": [],
      "name": "loginUser",
      "outputs": [
        {
          "internalType": "bytes",
          "name": "",
          "type": "bytes"
        },
        {
          "internalType": "bytes32",
          "name": "",
          "type": "bytes32"
        }
      ],
      "stateMutability": "view",
      "type": "function",
      "constant": true
    }
  ],
  "bytecode": "0x608060405234801561001057600080fd5b50610da8806100206000396000f3fe608060405234801561001057600080fd5b50600436106100415760003560e01c8063832880e714610046578063a19ed68614610064578063e12be90e14610083575b600080fd5b61004e61009f565b60405161005b91906107aa565b60405180910390f35b61006c61020f565b60405161007a929190610825565b60405180910390f35b61009d6004803603810190610098919061091c565b61038c565b005b6100a76105c2565b6000803373ffffffffffffffffffffffffffffffffffffffff1673ffffffffffffffffffffffffffffffffffffffff1681526020019081526020016000206040518060e00160405290816000820160009054906101000a900473ffffffffffffffffffffffffffffffffffffffff1673ffffffffffffffffffffffffffffffffffffffff1673ffffffffffffffffffffffffffffffffffffffff16815260200160018201805461015690610a0d565b80601f016020809104026020016040519081016040528092919081815260200182805461018290610a0d565b80156101cf5780601f106101a4576101008083540402835291602001916101cf565b820191906000526020600020905b8154815290600101906020018083116101b257829003601f168201915b5050505050815260200160028201548152602001600382015481526020016004820154815260200160058201548152602001600682015481525050905090565b60606000806000803373ffffffffffffffffffffffffffffffffffffffff1673ffffffffffffffffffffffffffffffffffffffff1681526020019081526020016000206040518060e00160405290816000820160009054906101000a900473ffffffffffffffffffffffffffffffffffffffff1673ffffffffffffffffffffffffffffffffffffffff1673ffffffffffffffffffffffffffffffffffffffff1681526020016001820180546102c390610a0d565b80601f01602080910402602001604051908101604052809291908181526020018280546102ef90610a0d565b801561033c5780601f106103115761010080835404028352916020019161033c565b820191906000526020600020905b81548152906001019060200180831161031f57829003601f168201915b505050505081526020016002820154815260200160038201548152602001600482015481526020016005820154815260200160068201548152505090508060200151816040015192509250509091565b3373ffffffffffffffffffffffffffffffffffffffff166000808a73ffffffffffffffffffffffffffffffffffffffff1673ffffffffffffffffffffffffffffffffffffffff16815260200190815260200160002060000160009054906101000a900473ffffffffffffffffffffffffffffffffffffffff1673ffffffffffffffffffffffffffffffffffffffff160361045b576040517f08c379a000000000000000000000000000000000000000000000000000000000815260040161045290610a9b565b60405180910390fd5b6040518060e001604052803373ffffffffffffffffffffffffffffffffffffffff16815260200188888080601f016020809104026020016040519081016040528093929190818152602001838380828437600081840152601f19601f820116905080830192505050505050508152602001868152602001858152602001848152602001838152602001828152506000803373ffffffffffffffffffffffffffffffffffffffff1673ffffffffffffffffffffffffffffffffffffffff16815260200190815260200160002060008201518160000160006101000a81548173ffffffffffffffffffffffffffffffffffffffff021916908373ffffffffffffffffffffffffffffffffffffffff16021790555060208201518160010190816105829190610ca0565b5060408201518160020155606082015181600301556080820151816004015560a0820151816005015560c082015181600601559050505050505050505050565b6040518060e00160405280600073ffffffffffffffffffffffffffffffffffffffff1681526020016060815260200160008019168152602001600080191681526020016000801916815260200160008019168152602001600080191681525090565b600073ffffffffffffffffffffffffffffffffffffffff82169050919050565b600061064f82610624565b9050919050565b61065f81610644565b82525050565b600081519050919050565b600082825260208201905092915050565b60005b8381101561069f578082015181840152602081019050610684565b60008484015250505050565b6000601f19601f8301169050919050565b60006106c782610665565b6106d18185610670565b93506106e1818560208601610681565b6106ea816106ab565b840191505092915050565b6000819050919050565b610708816106f5565b82525050565b600060e0830160008301516107266000860182610656565b506020830151848203602086015261073e82826106bc565b915050604083015161075360408601826106ff565b50606083015161076660608601826106ff565b50608083015161077960808601826106ff565b5060a083015161078c60a08601826106ff565b5060c083015161079f60c08601826106ff565b508091505092915050565b600060208201905081810360008301526107c4818461070e565b905092915050565b600082825260208201905092915050565b60006107e882610665565b6107f281856107cc565b9350610802818560208601610681565b61080b816106ab565b840191505092915050565b61081f816106f5565b82525050565b6000604082019050818103600083015261083f81856107dd565b905061084e6020830184610816565b9392505050565b600080fd5b600080fd5b61086881610644565b811461087357600080fd5b50565b6000813590506108858161085f565b92915050565b600080fd5b600080fd5b600080fd5b60008083601f8401126108b0576108af61088b565b5b8235905067ffffffffffffffff8111156108cd576108cc610890565b5b6020830191508360018202830111156108e9576108e8610895565b5b9250929050565b6108f9816106f5565b811461090457600080fd5b50565b600081359050610916816108f0565b92915050565b60008060008060008060008060e0898b03121561093c5761093b610855565b5b600061094a8b828c01610876565b985050602089013567ffffffffffffffff81111561096b5761096a61085a565b5b6109778b828c0161089a565b9750975050604061098a8b828c01610907565b955050606061099b8b828c01610907565b94505060806109ac8b828c01610907565b93505060a06109bd8b828c01610907565b92505060c06109ce8b828c01610907565b9150509295985092959890939650565b7f4e487b7100000000000000000000000000000000000000000000000000000000600052602260045260246000fd5b60006002820490506001821680610a2557607f821691505b602082108103610a3857610a376109de565b5b50919050565b600082825260208201905092915050565b7f5573657220616c72656164792072656769737465726564000000000000000000600082015250565b6000610a85601783610a3e565b9150610a9082610a4f565b602082019050919050565b60006020820190508181036000830152610ab481610a78565b9050919050565b7f4e487b7100000000000000000000000000000000000000000000000000000000600052604160045260246000fd5b60008190508160005260206000209050919050565b60006020601f8301049050919050565b600082821b905092915050565b600060088302610b4c7fffffffffffffffffffffffffffffffffffffffffffffffffffffffffffffffff82610b0f565b610b568683610b0f565b95508019841693508086168417925050509392505050565b6000819050919050565b6000819050919050565b6000610b9d610b98610b9384610b6e565b610b78565b610b6e565b9050919050565b6000819050919050565b610bb783610b82565b610bcb610bc382610ba4565b848454610b1c565b825550505050565b600090565b610be0610bd3565b610beb818484610bae565b505050565b5b81811015610c0f57610c04600082610bd8565b600181019050610bf1565b5050565b601f821115610c5457610c2581610aea565b610c2e84610aff565b81016020851015610c3d578190505b610c51610c4985610aff565b830182610bf0565b50505b505050565b600082821c905092915050565b6000610c7760001984600802610c59565b1980831691505092915050565b6000610c908383610c66565b9150826002028217905092915050565b610ca982610665565b67ffffffffffffffff811115610cc257610cc1610abb565b5b610ccc8254610a0d565b610cd7828285610c13565b600060209050601f831160018114610d0a5760008415610cf8578287015190505b610d028582610c84565b865550610d6a565b601f198416610d1886610aea565b60005b82811015610d4057848901518255600182019150602085019450602081019050610d1b565b86831015610d5d5784890151610d59601f891682610c66565b8355505b6001600288020188555050505b50505050505056fea264697066735822122016e4ecfcb8462e3459ed84f5249d49b9889353f24e2aa3e5909b26b5e86c9f6764736f6c63430008120033",
  "immutableReferences": {},
  "source": "// SPDX-License-Identifier: MIT\r\npragma solidity >=0.4.22 <0.9.0;\r\n\r\ncontract UserAuthentication {\r\n    struct userData {\r\n        address userAddress;\r\n        bytes email;\r\n        bytes32 password;\r\n        bytes32 firstName;\r\n        bytes32 lastName;\r\n        bytes32 dateOfBirth;\r\n        bytes32 gender;\r\n    }\r\n\r\n    mapping(address => userData) accounts;\r\n\r\n    function registerUser(\r\n        address _userAddress,\r\n        bytes calldata _email,\r\n        bytes32 _password,\r\n        bytes32 _firstName,\r\n        bytes32 _lastName,\r\n        bytes32 _dateOfBirth,\r\n        bytes32 _gender\r\n    ) public {\r\n        require(\r\n            accounts[_userAddress].userAddress != msg.sender,\r\n            \"User already registered\"\r\n        );\r\n        accounts[msg.sender] = userData({\r\n            userAddress: msg.sender,\r\n            email: _email,\r\n            password: _password,\r\n            firstName: _firstName,\r\n            lastName: _lastName,\r\n            dateOfBirth: _dateOfBirth,\r\n            gender: _gender\r\n        });\r\n    }\r\n\r\n    function getUser() public view returns (userData memory) {\r\n        return accounts[msg.sender];\r\n    }\r\n\r\n    function loginUser() public view returns (bytes memory, bytes32) {\r\n        userData memory user = accounts[msg.sender];\r\n        return (user.email, user.password);\r\n    }\r\n}\r\n",
  "sourcePath": "C:\\Users\\abhis\\OneDrive\\Documents\\Main Project\\MP\\DPOSN\\truffle\\contracts\\UserAuthentication.sol",
  "compiler": {
    "name": "solc",
    "version": "0.8.18+commit.87f61d96.Emscripten.clang"
  },
  "schemaVersion": "3.4.16",
  "updatedAt": "2024-02-12T15:42:52.110Z",
  "networkType": "ethereum",
  "devdoc": {
    "kind": "dev",
    "methods": {},
    "version": 1
  },
  "userdoc": {
    "kind": "user",
    "methods": {},
    "version": 1
  }
}